{
  "transactions": [
    {
      "hash": "0x7fe80faf43a51a4adff55ae6f65f85472bdf278282751626234a22e1f58f28d3",
      "transactionType": "CREATE",
      "contractName": "Kernel",
      "contractAddress": "0x4B65Cef586d4de8bc7BF48Cf7C8E1e164Bb89bab",
      "function": null,
      "arguments": null,
      "transaction": {
        "type": "0x02",
        "from": "0xa50fc8fc0b7845b07dcd00ef6bde46e5160e3835",
        "gas": "0x91df3f",
        "value": "0x0",
        "data": "0x608060405234801561001057600080fd5b50600080546001600160a01b0319163317905561167c806100326000396000f3fe608060405234801561001057600080fd5b50600436106100a85760003560e01c8063b4dc00b411610071578063b4dc00b414610185578063c34c08e5146101ae578063c4d1f8f1146101c1578063dbb61ee7146101d6578063e52223bb146101e9578063f166d9eb1461020c57600080fd5b80620dd95d146100ad57806303c02f42146100dd5780635af099c91461011657806363a6e3b514610129578063ae5f76fa14610149575b600080fd5b6100c06100bb36600461127a565b610240565b6040516001600160a01b0390911681526020015b60405180910390f35b6101086100eb3660046112bb565b600560209081526000928352604080842090915290825290205481565b6040519081526020016100d4565b6100c06101243660046112f4565b610278565b61010861013736600461130d565b60086020526000908152604090205481565b61016c61015736600461130d565b60036020526000908152604090205460d81b81565b6040516001600160d81b031990911681526020016100d4565b6100c0610193366004611331565b6002602052600090815260409020546001600160a01b031681565b6000546100c0906001600160a01b031681565b6101d46101cf36600461134e565b6102a2565b005b61016c6101e43660046112f4565b6104dc565b6101fc6101f736600461130d565b610513565b60405190151581526020016100d4565b6101fc61021a366004611386565b600660209081526000938452604080852082529284528284209052825290205460ff1681565b6004602052816000526040600020818154811061025c57600080fd5b6000918252602090912001546001600160a01b03169150829050565b6007818154811061028857600080fd5b6000918252602090912001546001600160a01b0316905081565b6000546001600160a01b031633146102d3576040516237c7b360e01b81523360048201526024015b60405180910390fd5b60008260058111156102e7576102e76113d1565b0361036d576102f58161056d565b61035f816001600160a01b0316631ae7ec2e6040518163ffffffff1660e01b8152600401602060405180830381865afa158015610336573d6000803e3d6000fd5b505050506040513d601f19601f8201168201806040525081019061035a91906113e7565b6105a6565b6103688161062e565b610493565b6001826005811115610381576103816113d1565b036103d95761038f8161056d565b6103d0816001600160a01b0316631ae7ec2e6040518163ffffffff1660e01b8152600401602060405180830381865afa158015610336573d6000803e3d6000fd5b610368816107df565b60028260058111156103ed576103ed6113d1565b03610404576103fb8161056d565b6103688161096b565b6003826005811115610418576104186113d1565b0361042f576104268161056d565b61036881610bab565b6004826005811115610443576104436113d1565b0361046857600080546001600160a01b0319166001600160a01b038316179055610493565b600582600581111561047c5761047c6113d1565b036104935761048a8161056d565b61049381610d4d565b806001600160a01b03168260058111156104af576104af6113d1565b6040517f6560dd86d70bf03c0005b3533cc115fa8b8a12b4ee11c7342ae7b32d82267c9090600090a35050565b600181815481106104ec57600080fd5b9060005260206000209060069182820401919006600502915054906101000a900460d81b81565b6007546000901580159061056757506001600160a01b03821660008181526008602052604090205460078054909190811061055057610550611404565b6000918252602090912001546001600160a01b0316145b92915050565b806001600160a01b03163b6000036105a357604051631bd1ba9d60e21b81526001600160a01b03821660048201526024016102ca565b50565b8060005b60058110156106295760008282600581106105c7576105c7611404565b1a60f81b9050604160f81b6001600160f81b0319821610806105f65750602d60f91b6001600160f81b03198216115b156106205760405163075f770560e31b81526001600160d81b0319851660048201526024016102ca565b506001016105aa565b505050565b6000816001600160a01b0316631ae7ec2e6040518163ffffffff1660e01b8152600401602060405180830381865afa15801561066e573d6000803e3d6000fd5b505050506040513d601f19601f8201168201806040525081019061069291906113e7565b6001600160d81b031981166000908152600260205260409020549091506001600160a01b0316156106e257604051634403633360e11b81526001600160d81b0319821660048201526024016102ca565b6001600160d81b03198116600090815260026020908152604080832080546001600160a01b0319166001600160a01b0387169081179091558084526003909252808320805464ffffffffff191660d886901c9081179091556001805480820182559085527fb10e2d527612073b26eecdfd717e6a320cf44b4afac2b0732d9fcbe2b7fa0cf6600680830491909101805464ffffffffff929093066005026101000a9182021990921692029190911790558051633a990e4560e21b81529051919263ea6439149260048084019382900301818387803b1580156107c357600080fd5b505af11580156107d7573d6000803e3d6000fd5b505050505050565b6000816001600160a01b0316631ae7ec2e6040518163ffffffff1660e01b8152600401602060405180830381865afa15801561081f573d6000803e3d6000fd5b505050506040513d601f19601f8201168201806040525081019061084391906113e7565b6001600160d81b031981166000908152600260205260409020549091506001600160a01b03168015806108875750826001600160a01b0316816001600160a01b0316145b156108b15760405163073e073160e01b81526001600160d81b0319831660048201526024016102ca565b6001600160a01b038181166000908152600360209081526040808320805464ffffffffff19908116909155938716808452818420805490951660d888901c179094556001600160d81b031986168352600290915280822080546001600160a01b031916841790558051633a990e4560e21b8152905163ea6439149260048084019391929182900301818387803b15801561094a57600080fd5b505af115801561095e573d6000803e3d6000fd5b5050505061062982610eb6565b61097481610513565b1561099d5760405163224b187760e01b81526001600160a01b03821660048201526024016102ca565b600780546001808201835560008390527fa66cc928b5edb82af9bd49922954155ab7b0942694bea4ce44661d9a8736c68890910180546001600160a01b0319166001600160a01b03851617905590546109f6919061141a565b6001600160a01b038216600081815260086020526040808220939093558251639459b87560e01b815292519092639459b8759160048083019286929190829003018183875af1158015610a4d573d6000803e3d6000fd5b505050506040513d6000823e601f3d908101601f19168201604052610a7591908101906114d3565b805190915060005b81811015610b2e576000838281518110610a9957610a99611404565b6020908102919091018101516001600160d81b03198116600081815260048452604081208054600180820183558284529583200180546001600160a01b0319166001600160a01b038c1617905591905254909250610af7919061141a565b6001600160d81b031990911660009081526005602090815260408083206001600160a01b0389168452909152902055600101610a7d565b506000836001600160a01b0316635924be706040518163ffffffff1660e01b8152600401600060405180830381865afa158015610b6f573d6000803e3d6000fd5b505050506040513d6000823e601f3d908101601f19168201604052610b979190810190611572565b9050610ba584826001610fc1565b50505050565b610bb481610513565b610bdc576040516322cd55c560e01b81526001600160a01b03821660048201526024016102ca565b6000816001600160a01b0316635924be706040518163ffffffff1660e01b8152600401600060405180830381865afa158015610c1c573d6000803e3d6000fd5b505050506040513d6000823e601f3d908101601f19168201604052610c449190810190611572565b9050610c5282826000610fc1565b6001600160a01b03821660009081526008602052604081205460078054919291610c7e9060019061141a565b81548110610c8e57610c8e611404565b600091825260209091200154600780546001600160a01b039092169250829184908110610cbd57610cbd611404565b9060005260206000200160006101000a8154816001600160a01b0302191690836001600160a01b031602179055506007805480610cfc57610cfc611630565b60008281526020808220830160001990810180546001600160a01b03191690559092019092556001600160a01b038381168352600890915260408083208590559086168252812055610ba58461109a565b60015460005b81811015610e1b5760006002600060018481548110610d7457610d74611404565b6000918252602080832060068084049091015492066005026101000a90910460d81b6001600160d81b03191683528201929092526040908101909120549051631195ecdb60e21b81526001600160a01b03868116600483015290911691508190634657b36c90602401600060405180830381600087803b158015610df757600080fd5b505af1158015610e0b573d6000803e3d6000fd5b5050505081600101915050610d53565b5060075460005b81811015610ba557600060078281548110610e3f57610e3f611404565b600091825260209091200154604051631195ecdb60e21b81526001600160a01b03878116600483015290911691508190634657b36c90602401600060405180830381600087803b158015610e9257600080fd5b505af1158015610ea6573d6000803e3d6000fd5b5050505081600101915050610e22565b6001600160d81b03198116600090815260046020908152604080832080548251818502810185019093528083529192909190830182828015610f2157602002820191906000526020600020905b81546001600160a01b03168152600190910190602001808311610f03575b505083519394506000925050505b81811015610ba557828181518110610f4957610f49611404565b60200260200101516001600160a01b0316639459b8756040518163ffffffff1660e01b81526004016000604051808303816000875af1158015610f90573d6000803e3d6000fd5b505050506040513d6000823e601f3d908101601f19168201604052610fb891908101906114d3565b50600101610f2f565b815160005b81811015611093576000848281518110610fe257610fe2611404565b60209081029190910181015180516001600160d81b031990811660009081526006845260408082206001600160a01b038c1680845290865281832085870180516001600160e01b0319908116865291885293839020805460ff19168c1515908117909155865194518451921682529681019690965293955092939116917ff3cdd20c5574ce87c347ea71e37b8fa7a095894be4b7f2bb1533e8d2342965f1910160405180910390a350600101610fc6565b5050505050565b6000816001600160a01b0316639459b8756040518163ffffffff1660e01b81526004016000604051808303816000875af11580156110dc573d6000803e3d6000fd5b505050506040513d6000823e601f3d908101601f1916820160405261110491908101906114d3565b805190915060005b81811015610ba557600083828151811061112857611128611404565b6020908102919091018101516001600160d81b031981166000908152600483526040808220600585528183206001600160a01b038b168452909452812054835492945091839061117a9060019061141a565b8154811061118a5761118a611404565b9060005260206000200160009054906101000a90046001600160a01b03169050808383815481106111bd576111bd611404565b9060005260206000200160006101000a8154816001600160a01b0302191690836001600160a01b03160217905550828054806111fb576111fb611630565b60008281526020808220600019908401810180546001600160a01b03191690559092019092556001600160d81b03199590951681526005855260408082206001600160a01b0393841683529095528481209290925587168152918220919091555060010161110c565b6001600160d81b0319811681146105a357600080fd5b6000806040838503121561128d57600080fd5b823561129881611264565b946020939093013593505050565b6001600160a01b03811681146105a357600080fd5b600080604083850312156112ce57600080fd5b82356112d981611264565b915060208301356112e9816112a6565b809150509250929050565b60006020828403121561130657600080fd5b5035919050565b60006020828403121561131f57600080fd5b813561132a816112a6565b9392505050565b60006020828403121561134357600080fd5b813561132a81611264565b6000806040838503121561136157600080fd5b8235600681106112d957600080fd5b6001600160e01b0319811681146105a357600080fd5b60008060006060848603121561139b57600080fd5b83356113a681611264565b925060208401356113b6816112a6565b915060408401356113c681611370565b809150509250925092565b634e487b7160e01b600052602160045260246000fd5b6000602082840312156113f957600080fd5b815161132a81611264565b634e487b7160e01b600052603260045260246000fd5b60008282101561143a57634e487b7160e01b600052601160045260246000fd5b500390565b634e487b7160e01b600052604160045260246000fd5b6040805190810167ffffffffffffffff811182821017156114785761147861143f565b60405290565b604051601f8201601f1916810167ffffffffffffffff811182821017156114a7576114a761143f565b604052919050565b600067ffffffffffffffff8211156114c9576114c961143f565b5060051b60200190565b600060208083850312156114e657600080fd5b825167ffffffffffffffff8111156114fd57600080fd5b8301601f8101851361150e57600080fd5b805161152161151c826114af565b61147e565b81815260059190911b8201830190838101908783111561154057600080fd5b928401925b8284101561156757835161155881611264565b82529284019290840190611545565b979650505050505050565b6000602080838503121561158557600080fd5b825167ffffffffffffffff81111561159c57600080fd5b8301601f810185136115ad57600080fd5b80516115bb61151c826114af565b81815260069190911b820183019083810190878311156115da57600080fd5b928401925b8284101561156757604084890312156115f85760008081fd5b611600611455565b845161160b81611264565b81528486015161161a81611370565b81870152825260409390930192908401906115df565b634e487b7160e01b600052603160045260246000fdfea2646970667358221220ec7f9e023da8aa41990cdf981f46bd43ee82827076b2c78bcc481eec91e582e364736f6c634300080f0033",
        "nonce": "0x0",
        "accessList": []
      },
      "additionalContracts": [],
      "isFixedGasLimit": false
    },
    {
      "hash": "0x46ee104909fd6f2c51cbc6914ebdb1ea24df5155759dfb63ee61b73be565cd1b",
      "transactionType": "CREATE",
      "contractName": "RADToken",
      "contractAddress": "0x755E6CF262600c7304254926c9671774a16AE969",
      "function": null,
      "arguments": [
        "0x4B65Cef586d4de8bc7BF48Cf7C8E1e164Bb89bab"
      ],
      "transaction": {
        "type": "0x02",
        "from": "0xa50fc8fc0b7845b07dcd00ef6bde46e5160e3835",
        "gas": "0x70aa79",
        "value": "0x0",
        "data": "0x60806040523480156200001157600080fd5b5060405162000f6b38038062000f6b8339810160408190526200003491620000c6565b80806040518060400160405280600e81526020016d2930b234b0b731b2902a37b5b2b760911b8152506040518060400160405280600381526020016214905160ea1b81525081600390816200008a91906200019d565b5060046200009982826200019d565b5050600580546001600160a01b0319166001600160a01b0393909316929092179091555062000269915050565b600060208284031215620000d957600080fd5b81516001600160a01b0381168114620000f157600080fd5b9392505050565b634e487b7160e01b600052604160045260246000fd5b600181811c908216806200012357607f821691505b6020821081036200014457634e487b7160e01b600052602260045260246000fd5b50919050565b601f8211156200019857600081815260208120601f850160051c81016020861015620001735750805b601f850160051c820191505b8181101562000194578281556001016200017f565b5050505b505050565b81516001600160401b03811115620001b957620001b9620000f8565b620001d181620001ca84546200010e565b846200014a565b602080601f831160018114620002095760008415620001f05750858301515b600019600386901b1c1916600185901b17855562000194565b600085815260208120601f198616915b828110156200023a5788860151825594840194600190910190840162000219565b5085821015620002595787850151600019600388901b60f8161c191681555b5050505050600190811b01905550565b610cf280620002796000396000f3fe608060405234801561001057600080fd5b50600436106101215760003560e01c80636f8b44b0116100ad578063d4aae0c411610071578063d4aae0c414610256578063d5abeb0114610281578063dd62ed3e1461028a578063ea6439141461029d578063ffa1ad74146102a557600080fd5b80636f8b44b0146101ec57806370a08231146101ff57806395d89b4114610228578063a457c2d714610230578063a9059cbb1461024357600080fd5b806323b872dd116100f457806323b872dd1461018f578063313ce567146101a257806339509351146101b157806340c10f19146101c45780634657b36c146101d957600080fd5b806306fdde0314610126578063095ea7b31461014457806318160ddd146101675780631ae7ec2e14610179575b600080fd5b61012e6102ba565b60405161013b9190610ab5565b60405180910390f35b610157610152366004610b22565b61034c565b604051901515815260200161013b565b6002545b60405190815260200161013b565b604051642a27a5a2a760d91b815260200161013b565b61015761019d366004610b4e565b610364565b6040516012815260200161013b565b6101576101bf366004610b22565b610388565b6101d76101d2366004610b22565b6103aa565b005b6101d76101e7366004610b8f565b6104c8565b6101d76101fa366004610bb3565b610517565b61016b61020d366004610b8f565b6001600160a01b031660009081526020819052604090205490565b61012e6105c2565b61015761023e366004610b22565b6105d1565b610157610251366004610b22565b61064c565b600554610269906001600160a01b031681565b6040516001600160a01b03909116815260200161013b565b61016b60065481565b61016b610298366004610bcc565b61065a565b6101d7610685565b6040805160018152600060208201520161013b565b6060600380546102c990610c05565b80601f01602080910402602001604051908101604052809291908181526020018280546102f590610c05565b80156103425780601f1061031757610100808354040283529160200191610342565b820191906000526020600020905b81548152906001019060200180831161032557829003601f168201915b5050505050905090565b60003361035a8185856106b4565b5060019392505050565b6000336103728582856107d8565b61037d858585610852565b506001949350505050565b60003361035a81858561039b838361065a565b6103a59190610c3f565b6106b4565b6005546001600160a01b031663f166d9eb642a27a5a2a760d91b336000356001600160e01b0319166040518463ffffffff1660e01b81526004016103f093929190610c65565b602060405180830381865afa15801561040d573d6000803e3d6000fd5b505050506040513d601f19601f820116820180604052508101906104319190610c9a565b610455576040516311bf00c960e01b81523360048201526024015b60405180910390fd5b6006548161046260025490565b61046c9190610c3f565b11156104ba5760405162461bcd60e51b815260206004820152601d60248201527f524144546f6b656e3a206d617820737570706c79206578636565646564000000604482015260640161044c565b6104c482826109f6565b5050565b6005546001600160a01b031633146104f55760405163053e900f60e21b815233600482015260240161044c565b600580546001600160a01b0319166001600160a01b0392909216919091179055565b6005546001600160a01b031663f166d9eb642a27a5a2a760d91b336000356001600160e01b0319166040518463ffffffff1660e01b815260040161055d93929190610c65565b602060405180830381865afa15801561057a573d6000803e3d6000fd5b505050506040513d601f19601f8201168201806040525081019061059e9190610c9a565b6105bd576040516311bf00c960e01b815233600482015260240161044c565b600655565b6060600480546102c990610c05565b600033816105df828661065a565b90508381101561063f5760405162461bcd60e51b815260206004820152602560248201527f45524332303a2064656372656173656420616c6c6f77616e63652062656c6f77604482015264207a65726f60d81b606482015260840161044c565b61037d82868684036106b4565b60003361035a818585610852565b6001600160a01b03918216600090815260016020908152604080832093909416825291909152205490565b6005546001600160a01b031633146106b25760405163053e900f60e21b815233600482015260240161044c565b565b6001600160a01b0383166107165760405162461bcd60e51b8152602060048201526024808201527f45524332303a20617070726f76652066726f6d20746865207a65726f206164646044820152637265737360e01b606482015260840161044c565b6001600160a01b0382166107775760405162461bcd60e51b815260206004820152602260248201527f45524332303a20617070726f766520746f20746865207a65726f206164647265604482015261737360f01b606482015260840161044c565b6001600160a01b0383811660008181526001602090815260408083209487168084529482529182902085905590518481527f8c5be1e5ebec7d5bd14f71427d1e84f3dd0314c0f7b2291e5b200ac8c7c3b925910160405180910390a3505050565b60006107e4848461065a565b9050600019811461084c578181101561083f5760405162461bcd60e51b815260206004820152601d60248201527f45524332303a20696e73756666696369656e7420616c6c6f77616e6365000000604482015260640161044c565b61084c84848484036106b4565b50505050565b6001600160a01b0383166108b65760405162461bcd60e51b815260206004820152602560248201527f45524332303a207472616e736665722066726f6d20746865207a65726f206164604482015264647265737360d81b606482015260840161044c565b6001600160a01b0382166109185760405162461bcd60e51b815260206004820152602360248201527f45524332303a207472616e7366657220746f20746865207a65726f206164647260448201526265737360e81b606482015260840161044c565b6001600160a01b038316600090815260208190526040902054818110156109905760405162461bcd60e51b815260206004820152602660248201527f45524332303a207472616e7366657220616d6f756e7420657863656564732062604482015265616c616e636560d01b606482015260840161044c565b6001600160a01b03848116600081815260208181526040808320878703905593871680835291849020805487019055925185815290927fddf252ad1be2c89b69c2b068fc378daa952ba7f163c4a11628f55a4df523b3ef910160405180910390a361084c565b6001600160a01b038216610a4c5760405162461bcd60e51b815260206004820152601f60248201527f45524332303a206d696e7420746f20746865207a65726f206164647265737300604482015260640161044c565b8060026000828254610a5e9190610c3f565b90915550506001600160a01b038216600081815260208181526040808320805486019055518481527fddf252ad1be2c89b69c2b068fc378daa952ba7f163c4a11628f55a4df523b3ef910160405180910390a35050565b600060208083528351808285015260005b81811015610ae257858101830151858201604001528201610ac6565b81811115610af4576000604083870101525b50601f01601f1916929092016040019392505050565b6001600160a01b0381168114610b1f57600080fd5b50565b60008060408385031215610b3557600080fd5b8235610b4081610b0a565b946020939093013593505050565b600080600060608486031215610b6357600080fd5b8335610b6e81610b0a565b92506020840135610b7e81610b0a565b929592945050506040919091013590565b600060208284031215610ba157600080fd5b8135610bac81610b0a565b9392505050565b600060208284031215610bc557600080fd5b5035919050565b60008060408385031215610bdf57600080fd5b8235610bea81610b0a565b91506020830135610bfa81610b0a565b809150509250929050565b600181811c90821680610c1957607f821691505b602082108103610c3957634e487b7160e01b600052602260045260246000fd5b50919050565b60008219821115610c6057634e487b7160e01b600052601160045260246000fd5b500190565b6001600160d81b03199390931683526001600160a01b039190911660208301526001600160e01b031916604082015260600190565b600060208284031215610cac57600080fd5b81518015158114610bac57600080fdfea2646970667358221220695ea38bc66533b1f266c43d11cffecaa50c7699b61ce29645d9e35bada2cbc964736f6c634300080f00330000000000000000000000004b65cef586d4de8bc7bf48cf7c8e1e164bb89bab",
        "nonce": "0x1",
        "accessList": []
      },
      "additionalContracts": [],
      "isFixedGasLimit": false
    },
    {
      "hash": "0x8d8a8c5f73e11635808e995a093e3f024ba29f74704cb372449f295726d9e07d",
      "transactionType": "CREATE",
      "contractName": "Treasury",
      "contractAddress": "0xA43bEa9a6945c28E3FAEd53a6D2d7Aa65FA7E2B0",
      "function": null,
      "arguments": [
        "0x4B65Cef586d4de8bc7BF48Cf7C8E1e164Bb89bab"
      ],
      "transaction": {
        "type": "0x02",
        "from": "0xa50fc8fc0b7845b07dcd00ef6bde46e5160e3835",
        "gas": "0x2f772b",
        "value": "0x0",
        "data": "0x608060405234801561001057600080fd5b506040516105ac3803806105ac83398101604081905261002f91610054565b600080546001600160a01b0319166001600160a01b0392909216919091179055610084565b60006020828403121561006657600080fd5b81516001600160a01b038116811461007d57600080fd5b9392505050565b610519806100936000396000f3fe608060405234801561001057600080fd5b506004361061007d5760003560e01c8063d4aae0c41161005b578063d4aae0c4146100c5578063ea643914146100f0578063f3fef3a3146100f8578063ffa1ad741461010b57600080fd5b80631ae7ec2e146100825780634657b36c1461009d57806368a9674d146100b2575b600080fd5b60405164545253525960d81b81526020015b60405180910390f35b6100b06100ab3660046103fb565b61011f565b005b6100b06100c036600461041f565b610173565b6000546100d8906001600160a01b031681565b6040516001600160a01b039091168152602001610094565b6100b0610298565b6100b0610106366004610460565b6102c7565b604080516000808252602082015201610094565b6000546001600160a01b031633146101515760405163053e900f60e21b81523360048201526024015b60405180910390fd5b600080546001600160a01b0319166001600160a01b0392909216919091179055565b6000546001600160a01b031663f166d9eb64545253525960d81b336000356001600160e01b0319166040518463ffffffff1660e01b81526004016101b99392919061048c565b602060405180830381865afa1580156101d6573d6000803e3d6000fd5b505050506040513d601f19601f820116820180604052508101906101fa91906104c1565b610219576040516311bf00c960e01b8152336004820152602401610148565b6040516323b872dd60e01b81526001600160a01b038481166004830152306024830152604482018390528316906323b872dd906064016020604051808303816000875af115801561026e573d6000803e3d6000fd5b505050506040513d601f19601f8201168201806040525081019061029291906104c1565b50505050565b6000546001600160a01b031633146102c55760405163053e900f60e21b8152336004820152602401610148565b565b6000546001600160a01b031663f166d9eb64545253525960d81b336000356001600160e01b0319166040518463ffffffff1660e01b815260040161030d9392919061048c565b602060405180830381865afa15801561032a573d6000803e3d6000fd5b505050506040513d601f19601f8201168201806040525081019061034e91906104c1565b61036d576040516311bf00c960e01b8152336004820152602401610148565b60405163a9059cbb60e01b8152336004820152602481018290526001600160a01b0383169063a9059cbb906044016020604051808303816000875af11580156103ba573d6000803e3d6000fd5b505050506040513d601f19601f820116820180604052508101906103de91906104c1565b505050565b6001600160a01b03811681146103f857600080fd5b50565b60006020828403121561040d57600080fd5b8135610418816103e3565b9392505050565b60008060006060848603121561043457600080fd5b833561043f816103e3565b9250602084013561044f816103e3565b929592945050506040919091013590565b6000806040838503121561047357600080fd5b823561047e816103e3565b946020939093013593505050565b6001600160d81b03199390931683526001600160a01b039190911660208301526001600160e01b031916604082015260600190565b6000602082840312156104d357600080fd5b8151801515811461041857600080fdfea2646970667358221220bc872950773a1ea3d0a86fab76730ac0d51181cb072dfdf72a1dc97729090f0264736f6c634300080f00330000000000000000000000004b65cef586d4de8bc7bf48cf7c8e1e164bb89bab",
        "nonce": "0x2",
        "accessList": []
      },
      "additionalContracts": [],
      "isFixedGasLimit": false
    },
    {
      "hash": "0x682033ae6bbc2f1720d0e6f01bb87c94cd8ba5e22b0c245b2ae5660ce8484193",
      "transactionType": "CREATE",
      "contractName": "OlympusRoles",
      "contractAddress": "0x8fF2bF3aa3B05A3cc88BDb636b7d9A738a21fCAC",
      "function": null,
      "arguments": [
        "0x4B65Cef586d4de8bc7BF48Cf7C8E1e164Bb89bab"
      ],
      "transaction": {
        "type": "0x02",
        "from": "0xa50fc8fc0b7845b07dcd00ef6bde46e5160e3835",
        "gas": "0x3dab69",
        "value": "0x0",
        "data": "0x608060405234801561001057600080fd5b506040516107b43803806107b483398101604081905261002f91610054565b600080546001600160a01b0319166001600160a01b0392909216919091179055610084565b60006020828403121561006657600080fd5b81516001600160a01b038116811461007d57600080fd5b9392505050565b610721806100936000396000f3fe608060405234801561001057600080fd5b506004361061009e5760003560e01c8063d09a20c511610066578063d09a20c514610137578063d4aae0c41461014a578063ea64391414610175578063f6ba00071461017d578063ffa1ad741461019057600080fd5b80631ae7ec2e146100a357806340e312f8146100be5780634657b36c146100d3578063656361ff146100e6578063ac4ab3fb146100f9575b600080fd5b60405164524f4c455360d81b81526020015b60405180910390f35b6100d16100cc3660046105cd565b6101a5565b005b6100d16100e13660046105fe565b610256565b6100d16100f4366004610622565b6102a5565b610127610107366004610652565b600160209081526000928352604080842090915290825290205460ff1681565b60405190151581526020016100b5565b6100d1610145366004610622565b610405565b60005461015d906001600160a01b031681565b6040516001600160a01b0390911681526020016100b5565b6100d161044c565b6100d161018b366004610622565b61047b565b604080516001815260006020820152016100b5565b60005b60208110156102525760008282602081106101c5576101c561067e565b1a60f81b9050606160f81b6001600160f81b0319821610806101f45750603d60f91b6001600160f81b03198216115b801561020e5750605f60f81b6001600160f81b0319821614155b801561022357506001600160f81b0319811615155b15610249576040516301dd79d160e31b8152600481018490526024015b60405180910390fd5b506001016101a8565b5050565b6000546001600160a01b031633146102835760405163053e900f60e21b8152336004820152602401610240565b600080546001600160a01b0319166001600160a01b0392909216919091179055565b6000546001600160a01b031663f166d9eb64524f4c455360d81b336000356001600160e01b0319166040518463ffffffff1660e01b81526004016102eb93929190610694565b602060405180830381865afa158015610308573d6000803e3d6000fd5b505050506040513d601f19601f8201168201806040525081019061032c91906106c9565b61034b576040516311bf00c960e01b8152336004820152602401610240565b6001600160a01b038116600090815260016020908152604080832085845290915290205460ff16156103a257604051632fe8304960e21b81526001600160a01b038216600482015260248101839052604401610240565b6103ab826101a5565b6001600160a01b0381166000818152600160208181526040808420878552909152808320805460ff19169092179091555184917f2ae6a113c0ed5b78a53413ffbb7679881f11145ccfba4fb92e863dfcd5a1d2f391a35050565b6001600160a01b038116600090815260016020908152604080832085845290915290205460ff1661025257604051637de30f4160e01b815260048101839052602401610240565b6000546001600160a01b031633146104795760405163053e900f60e21b8152336004820152602401610240565b565b6000546001600160a01b031663f166d9eb64524f4c455360d81b336000356001600160e01b0319166040518463ffffffff1660e01b81526004016104c193929190610694565b602060405180830381865afa1580156104de573d6000803e3d6000fd5b505050506040513d601f19601f8201168201806040525081019061050291906106c9565b610521576040516311bf00c960e01b8152336004820152602401610240565b6001600160a01b038116600090815260016020908152604080832085845290915290205460ff1661057757604051632ca9c83360e21b81526001600160a01b038216600482015260248101839052604401610240565b6001600160a01b0381166000818152600160209081526040808320868452909152808220805460ff191690555184917f155aaafb6329a2098580462df33ec4b7441b19729b9601c5fc17ae1cf99a8a5291a35050565b6000602082840312156105df57600080fd5b5035919050565b6001600160a01b03811681146105fb57600080fd5b50565b60006020828403121561061057600080fd5b813561061b816105e6565b9392505050565b6000806040838503121561063557600080fd5b823591506020830135610647816105e6565b809150509250929050565b6000806040838503121561066557600080fd5b8235610670816105e6565b946020939093013593505050565b634e487b7160e01b600052603260045260246000fd5b6001600160d81b03199390931683526001600160a01b039190911660208301526001600160e01b031916604082015260600190565b6000602082840312156106db57600080fd5b8151801515811461061b57600080fdfea2646970667358221220635defe6f4e38dac95b465429e7200d763966a4d0b185d8e6de106f8f5e435c364736f6c634300080f00330000000000000000000000004b65cef586d4de8bc7bf48cf7c8e1e164bb89bab",
        "nonce": "0x3",
        "accessList": []
      },
      "additionalContracts": [],
      "isFixedGasLimit": false
    },
    {
      "hash": "0xcff64f34e2007112072d5ae343da399f56df1d910096d0457c287fea84e7ae21",
      "transactionType": "CALL",
      "contractName": "Kernel",
      "contractAddress": "0x4B65Cef586d4de8bc7BF48Cf7C8E1e164Bb89bab",
      "function": "executeAction(uint8,address)",
      "arguments": [
        "0",
        "0x8fF2bF3aa3B05A3cc88BDb636b7d9A738a21fCAC"
      ],
      "transaction": {
        "type": "0x02",
        "from": "0xa50fc8fc0b7845b07dcd00ef6bde46e5160e3835",
        "to": "0x4b65cef586d4de8bc7bf48cf7c8e1e164bb89bab",
        "gas": "0x82d75",
        "value": "0x0",
        "data": "0xc4d1f8f100000000000000000000000000000000000000000000000000000000000000000000000000000000000000008ff2bf3aa3b05a3cc88bdb636b7d9a738a21fcac",
        "nonce": "0x4",
        "accessList": []
      },
      "additionalContracts": [],
      "isFixedGasLimit": false
    },
    {
      "hash": "0xbb2c9ea84f93b0267b7321360765fa14eed14a04ac9963845de1c01ba6a0bf35",
      "transactionType": "CALL",
      "contractName": "Kernel",
      "contractAddress": "0x4B65Cef586d4de8bc7BF48Cf7C8E1e164Bb89bab",
      "function": "executeAction(uint8,address)",
      "arguments": [
        "0",
        "0xA43bEa9a6945c28E3FAEd53a6D2d7Aa65FA7E2B0"
      ],
      "transaction": {
        "type": "0x02",
        "from": "0xa50fc8fc0b7845b07dcd00ef6bde46e5160e3835",
        "to": "0x4b65cef586d4de8bc7bf48cf7c8e1e164bb89bab",
        "gas": "0x82d75",
        "value": "0x0",
        "data": "0xc4d1f8f10000000000000000000000000000000000000000000000000000000000000000000000000000000000000000a43bea9a6945c28e3faed53a6d2d7aa65fa7e2b0",
        "nonce": "0x5",
        "accessList": []
      },
      "additionalContracts": [],
      "isFixedGasLimit": false
    },
    {
      "hash": "0x8753bf38461cf75dc5a14157f3925790d7d2b91aa59bcb47ce617dc8dd87b28d",
      "transactionType": "CALL",
      "contractName": "Kernel",
      "contractAddress": "0x4B65Cef586d4de8bc7BF48Cf7C8E1e164Bb89bab",
      "function": "executeAction(uint8,address)",
      "arguments": [
        "0",
        "0x755E6CF262600c7304254926c9671774a16AE969"
      ],
      "transaction": {
        "type": "0x02",
        "from": "0xa50fc8fc0b7845b07dcd00ef6bde46e5160e3835",
        "to": "0x4b65cef586d4de8bc7bf48cf7c8e1e164bb89bab",
        "gas": "0x82d75",
        "value": "0x0",
        "data": "0xc4d1f8f10000000000000000000000000000000000000000000000000000000000000000000000000000000000000000755e6cf262600c7304254926c9671774a16ae969",
        "nonce": "0x6",
        "accessList": []
      },
      "additionalContracts": [],
      "isFixedGasLimit": false
    },
    {
      "hash": "0x40799b4e3e7e0f50586558813df4e9d9481cab7315b384ed56af858fa0a11d77",
      "transactionType": "CREATE",
      "contractName": "RolesAdmin",
      "contractAddress": "0x75599756BA4C57ef1f644f2FC3Ba44D7E16abA10",
      "function": null,
      "arguments": [
        "0x4B65Cef586d4de8bc7BF48Cf7C8E1e164Bb89bab"
      ],
      "transaction": {
        "type": "0x02",
        "from": "0xa50fc8fc0b7845b07dcd00ef6bde46e5160e3835",
        "gas": "0x47feec",
        "value": "0x0",
        "data": "0x608060405234801561001057600080fd5b506040516108e93803806108e983398101604081905261002f9161005d565b600080546001600160a01b039092166001600160a01b0319928316179055600180549091163317905561008d565b60006020828403121561006f57600080fd5b81516001600160a01b038116811461008657600080fd5b9392505050565b61084d8061009c6000396000f3fe608060405234801561001057600080fd5b50600436106100b45760003560e01c806372b0bb491161007157806372b0bb4914610151578063923cb952146101595780639459b8751461016c578063d4aae0c414610181578063d547741f14610194578063f851a440146101a757600080fd5b806303346696146100b957806322f3e2d4146100ce5780632f2ff15d146100eb5780633ea26384146100fe5780634657b36c146101295780635924be701461013c575b600080fd5b6100cc6100c73660046106bd565b6101ba565b005b6100d661022f565b60405190151581526020015b60405180910390f35b6100cc6100f93660046106e1565b6102a1565b600254610111906001600160a01b031681565b6040516001600160a01b0390911681526020016100e2565b6100cc6101373660046106bd565b610337565b61014461038b565b6040516100e29190610711565b6100cc61046a565b600354610111906001600160a01b031681565b6101746104e9565b6040516100e29190610774565b600054610111906001600160a01b031681565b6100cc6101a23660046106e1565b61058f565b600154610111906001600160a01b031681565b6001546001600160a01b031633146101e557604051634755657960e01b815260040160405180910390fd5b600280546001600160a01b0319166001600160a01b0383169081179091556040517fa2c5878324891aaeaaa631341c00e3c30a2b70c1b6a1e9411b903402d40df5c990600090a250565b6000805460405163e52223bb60e01b81523060048201526001600160a01b039091169063e52223bb90602401602060405180830381865afa158015610278573d6000803e3d6000fd5b505050506040513d601f19601f8201168201806040525081019061029c91906107c2565b905090565b6001546001600160a01b031633146102cc57604051634755657960e01b815260040160405180910390fd5b60035460405163656361ff60e01b8152600481018490526001600160a01b0383811660248301529091169063656361ff906044015b600060405180830381600087803b15801561031b57600080fd5b505af115801561032f573d6000803e3d6000fd5b505050505050565b6000546001600160a01b031633146103695760405163053e900f60e21b81523360048201526024015b60405180910390fd5b600080546001600160a01b0319166001600160a01b0392909216919091179055565b604080516002808252606082810190935264524f4c455360d81b9190602082015b60408051808201909152600080825260208201528152602001906001900390816103ac575050604080518082019091526001600160d81b03198316815263656361ff60e01b6020820152815191935090839060009061040d5761040d6107e4565b60200260200101819052506040518060400160405280826001600160d81b031916815260200163f6ba000760e01b6001600160e01b0319168152508260018151811061045b5761045b6107e4565b60200260200101819052505090565b6002546001600160a01b031633146104955760405163c5c898b360e01b815260040160405180910390fd5b60028054600180546001600160a01b0383166001600160a01b031991821681179092559091169091556040517fecf24556cb4f08854c12350ad47cc1bf4bfe9ada0935ffb3d3de5f2f3f5a0ad690600090a2565b6040805160018082528183019092526060916020808301908036833701905050905064524f4c455360d81b81600081518110610527576105276107e4565b60200260200101906001600160d81b03191690816001600160d81b0319168152505061056c8160008151811061055f5761055f6107e4565b60200260200101516105f3565b600380546001600160a01b0319166001600160a01b039290921691909117905590565b6001546001600160a01b031633146105ba57604051634755657960e01b815260040160405180910390fd5b60035460405163f6ba000760e01b8152600481018490526001600160a01b0383811660248301529091169063f6ba000790604401610301565b60008054604051632d37002d60e21b81526001600160d81b03198416600482015282916001600160a01b03169063b4dc00b490602401602060405180830381865afa158015610646573d6000803e3d6000fd5b505050506040513d601f19601f8201168201806040525081019061066a91906107fa565b90506001600160a01b03811661069f57604051635c3fa9cd60e01b81526001600160d81b031984166004820152602401610360565b92915050565b6001600160a01b03811681146106ba57600080fd5b50565b6000602082840312156106cf57600080fd5b81356106da816106a5565b9392505050565b600080604083850312156106f457600080fd5b823591506020830135610706816106a5565b809150509250929050565b602080825282518282018190526000919060409081850190868401855b8281101561076757815180516001600160d81b03191685528601516001600160e01b03191686850152928401929085019060010161072e565b5091979650505050505050565b6020808252825182820181905260009190848201906040850190845b818110156107b65783516001600160d81b03191683529284019291840191600101610790565b50909695505050505050565b6000602082840312156107d457600080fd5b815180151581146106da57600080fd5b634e487b7160e01b600052603260045260246000fd5b60006020828403121561080c57600080fd5b81516106da816106a556fea2646970667358221220276b0ce27b76cd087951b6c24e31c16562dc562377b250686bf0c9308afd1cac64736f6c634300080f00330000000000000000000000004b65cef586d4de8bc7bf48cf7c8e1e164bb89bab",
        "nonce": "0x7",
        "accessList": []
      },
      "additionalContracts": [],
      "isFixedGasLimit": false
    },
    {
      "hash": "0x8a277e706b88e0fd2abdb839b733441cc8821b0ef249230863856cac5d11cd73",
      "transactionType": "CREATE",
      "contractName": "Initialization",
      "contractAddress": "0x882b852CEA9efce0881CD5a65868EaC0Ba1064B6",
      "function": null,
      "arguments": [
        "0x4B65Cef586d4de8bc7BF48Cf7C8E1e164Bb89bab"
      ],
      "transaction": {
        "type": "0x02",
        "from": "0xa50fc8fc0b7845b07dcd00ef6bde46e5160e3835",
        "gas": "0x434230",
        "value": "0x0",
        "data": "0x60a060405234801561001057600080fd5b5060405161089338038061089383398101604081905261002f91610058565b600080546001600160a01b0319166001600160a01b039290921691909117905533608052610088565b60006020828403121561006a57600080fd5b81516001600160a01b038116811461008157600080fd5b9392505050565b6080516107e26100b16000396000818161013f015281816101f101526104b501526107e26000f3fe608060405234801561001057600080fd5b50600436106100935760003560e01c80639459b875116100665780639459b875146100f2578063b1839d1514610107578063d4aae0c41461010f578063fb7bf61a1461013a578063fc0c546a1461016157600080fd5b806322f3e2d41461009857806340c10f19146100b55780634657b36c146100ca5780635924be70146100dd575b600080fd5b6100a0610174565b60405190151581526020015b60405180910390f35b6100c86100c3366004610656565b6101e6565b005b6100c86100d8366004610682565b6102cd565b6100e561031c565b6040516100ac91906106a6565b6100fa610404565b6040516100ac9190610709565b6100c86104aa565b600054610122906001600160a01b031681565b6040516001600160a01b0390911681526020016100ac565b6101227f000000000000000000000000000000000000000000000000000000000000000081565b600154610122906001600160a01b031681565b6000805460405163e52223bb60e01b81523060048201526001600160a01b039091169063e52223bb90602401602060405180830381865afa1580156101bd573d6000803e3d6000fd5b505050506040513d601f19601f820116820180604052508101906101e19190610757565b905090565b336001600160a01b037f000000000000000000000000000000000000000000000000000000000000000016146102635760405162461bcd60e51b815260206004820152601a60248201527f4f6e6c7920636f6e666967757261746f722063616e206d696e7400000000000060448201526064015b60405180910390fd5b6001546040516340c10f1960e01b81526001600160a01b03848116600483015260248201849052909116906340c10f1990604401600060405180830381600087803b1580156102b157600080fd5b505af11580156102c5573d6000803e3d6000fd5b505050505050565b6000546001600160a01b031633146102fa5760405163053e900f60e21b815233600482015260240161025a565b600080546001600160a01b0319166001600160a01b0392909216919091179055565b6040805160028082526060828101909352816020015b60408051808201909152600080825260208201528152602001906001900390816103325790505090506040518060400160405280610375642a27a5a2a760d91b90565b6001600160d81b03191681526340c10f1960e01b602090910152815182906000906103a2576103a2610779565b602002602001018190525060405180604001604052806103c7642a27a5a2a760d91b90565b6001600160d81b03191681526306f8b44b60e41b6020909101528151829060019081106103f6576103f6610779565b602002602001018190525090565b60408051600180825281830190925260609160208083019080368337019050509050642a27a5a2a760d91b8160008151811061044257610442610779565b60200260200101906001600160d81b03191690816001600160d81b031916815250506104878160008151811061047a5761047a610779565b602002602001015161058c565b600180546001600160a01b0319166001600160a01b039290921691909117905590565b336001600160a01b037f000000000000000000000000000000000000000000000000000000000000000016146105225760405162461bcd60e51b815260206004820152601d60248201527f4f6e6c7920636f6e666967757261746f722063616e20736574206d6178000000604482015260640161025a565b6001546040516306f8b44b60e41b81526a01a784379d99db4200000060048201526001600160a01b0390911690636f8b44b090602401600060405180830381600087803b15801561057257600080fd5b505af1158015610586573d6000803e3d6000fd5b50505050565b60008054604051632d37002d60e21b81526001600160d81b03198416600482015282916001600160a01b03169063b4dc00b490602401602060405180830381865afa1580156105df573d6000803e3d6000fd5b505050506040513d601f19601f82011682018060405250810190610603919061078f565b90506001600160a01b03811661063857604051635c3fa9cd60e01b81526001600160d81b03198416600482015260240161025a565b92915050565b6001600160a01b038116811461065357600080fd5b50565b6000806040838503121561066957600080fd5b82356106748161063e565b946020939093013593505050565b60006020828403121561069457600080fd5b813561069f8161063e565b9392505050565b602080825282518282018190526000919060409081850190868401855b828110156106fc57815180516001600160d81b03191685528601516001600160e01b0319168685015292840192908501906001016106c3565b5091979650505050505050565b6020808252825182820181905260009190848201906040850190845b8181101561074b5783516001600160d81b03191683529284019291840191600101610725565b50909695505050505050565b60006020828403121561076957600080fd5b8151801515811461069f57600080fd5b634e487b7160e01b600052603260045260246000fd5b6000602082840312156107a157600080fd5b815161069f8161063e56fea264697066735822122065829fffd4cb3a3cda53be6d45c653882a0f26dbe7f8acfcb22a307658da512a64736f6c634300080f00330000000000000000000000004b65cef586d4de8bc7bf48cf7c8e1e164bb89bab",
        "nonce": "0x8",
        "accessList": []
      },
      "additionalContracts": [],
      "isFixedGasLimit": false
    },
    {
      "hash": "0xbf98c4aded8386d36ed182a7339f328e7085ec7ef9d7e6b512bdeaf1a71e3b73",
      "transactionType": "CALL",
      "contractName": "Kernel",
      "contractAddress": "0x4B65Cef586d4de8bc7BF48Cf7C8E1e164Bb89bab",
      "function": "executeAction(uint8,address)",
      "arguments": [
        "2",
        "0x75599756BA4C57ef1f644f2FC3Ba44D7E16abA10"
      ],
      "transaction": {
        "type": "0x02",
        "from": "0xa50fc8fc0b7845b07dcd00ef6bde46e5160e3835",
        "to": "0x4b65cef586d4de8bc7bf48cf7c8e1e164bb89bab",
        "gas": "0x82d84",
        "value": "0x0",
        "data": "0xc4d1f8f1000000000000000000000000000000000000000000000000000000000000000200000000000000000000000075599756ba4c57ef1f644f2fc3ba44d7e16aba10",
        "nonce": "0x9",
        "accessList": []
      },
      "additionalContracts": [],
      "isFixedGasLimit": false
    },
    {
      "hash": "0x956313215a520bf614e2eed9e368137d41a89fb152dc4b1f6cf739305417e14a",
      "transactionType": "CALL",
      "contractName": "Kernel",
      "contractAddress": "0x4B65Cef586d4de8bc7BF48Cf7C8E1e164Bb89bab",
      "function": "executeAction(uint8,address)",
      "arguments": [
        "2",
        "0x882b852CEA9efce0881CD5a65868EaC0Ba1064B6"
      ],
      "transaction": {
        "type": "0x02",
        "from": "0xa50fc8fc0b7845b07dcd00ef6bde46e5160e3835",
        "to": "0x4b65cef586d4de8bc7bf48cf7c8e1e164bb89bab",
        "gas": "0x82d84",
        "value": "0x0",
        "data": "0xc4d1f8f10000000000000000000000000000000000000000000000000000000000000002000000000000000000000000882b852cea9efce0881cd5a65868eac0ba1064b6",
        "nonce": "0xa",
        "accessList": []
      },
      "additionalContracts": [],
      "isFixedGasLimit": false
    },
    {
      "hash": "0x240a66e5f06a76a5b64562d43161fae16bcbadb0f2a581163297bd3ecb3c3cce",
      "transactionType": "CREATE",
      "contractName": "RADPresale",
      "contractAddress": "0xBA4BeedC6d4f1c582a7EDB09A0709b7AC6508296",
      "function": null,
      "arguments": [
        "0x94b23c2233BC7c9Fe75B22950335d7F792b00E8e",
        "0x755E6CF262600c7304254926c9671774a16AE969",
        "0xFF970A61A04b1cA14834A43f5dE4533eBDDB5CC8",
        "604800"
      ],
      "transaction": {
        "type": "0x02",
        "from": "0xa50fc8fc0b7845b07dcd00ef6bde46e5160e3835",
        "gas": "0xd49089",
        "value": "0x0",
        "data": "0x60a06040526105dc600655692a5a058fc295ed000000600755600060088190556009819055600b55600e805460ff191690553480156200003e57600080fd5b5060405162001ea038038062001ea0833981016040819052620000619162000113565b6200006c33620000aa565b600180556001600160a01b03938416608052600380549385166001600160a01b0319948516179055600d55600480549190931691161790556200016d565b600080546001600160a01b038381166001600160a01b0319831681178455604051919092169283917f8be0079c531659141344cd1fd0a4f28419497f9722a3daafe3b4186f6b6457e09190a35050565b6001600160a01b03811681146200011057600080fd5b50565b600080600080608085870312156200012a57600080fd5b84516200013781620000fa565b60208601519094506200014a81620000fa565b60408601519093506200015d81620000fa565b6060959095015193969295505050565b608051611d10620001906000396000818161049f01526113790152611d106000f3fe6080604052600436106101e75760003560e01c806354575af41161010257806394761e2a11610095578063bd8aa78011610064578063bd8aa780146105fa578063c625e9b11461061a578063d547741f1461063a578063f2fde38b1461065a5761020d565b806394761e2a1461059f57806396132521146105b5578063a217fddf146105cf578063b91d4001146105e45761020d565b806389a30271116100d157806389a302711461052b5780638da5cb5b1461054b57806391d148541461056957806392d6b6f3146105895761020d565b806354575af4146104c157806361d027b3146104e1578063715018a61461050157806386d1a69f146105165761020d565b8063248a9ca31161017a578063355274ea11610149578063355274ea1461043757806336568abe1461044d57806347786d371461046d578063521eb2731461048d5761020d565b8063248a9ca3146103b15780632c4e722e146103e15780632f2ff15d146103f757806334fcf437146104175761020d565b806309d943d5116101b657806309d943d5146102d95780631959a002146102fb5780631bb7cc991461035d5780631e83409a146103915761020d565b80630170937a1461023257806301ffc9a71461025b57806302c7e7af1461028b57806306f405fd146102a15761020d565b3661020d5760405162461bcd60e51b8152600401610204906118b4565b60405180910390fd5b34801561021957600080fd5b5060405162461bcd60e51b8152600401610204906118b4565b34801561023e57600080fd5b5061024860095481565b6040519081526020015b60405180910390f35b34801561026757600080fd5b5061027b6102763660046118f5565b61067a565b6040519015158152602001610252565b34801561029757600080fd5b5061024860085481565b3480156102ad57600080fd5b506003546102c1906001600160a01b031681565b6040516001600160a01b039091168152602001610252565b3480156102e557600080fd5b506102f96102f436600461191f565b6106b1565b005b34801561030757600080fd5b5061033d61031636600461195d565b600a6020526000908152604090208054600182015460028301546003909301549192909184565b604080519485526020850193909352918301526060820152608001610252565b34801561036957600080fd5b506102487f0af0c3ebe77999ca20698e1ff25f812bf82409a59d21ca15a41f39e0ce9f250081565b34801561039d57600080fd5b506102f96103ac36600461195d565b610740565b3480156103bd57600080fd5b506102486103cc36600461191f565b60009081526002602052604090206001015490565b3480156103ed57600080fd5b5061024860065481565b34801561040357600080fd5b506102f961041236600461197a565b6109ed565b34801561042357600080fd5b506102f961043236600461191f565b610a17565b34801561044357600080fd5b5061024860075481565b34801561045957600080fd5b506102f961046836600461197a565b610a8c565b34801561047957600080fd5b506102f961048836600461191f565b610b0a565b34801561049957600080fd5b506102c17f000000000000000000000000000000000000000000000000000000000000000081565b3480156104cd57600080fd5b506102f96104dc3660046119aa565b610b99565b3480156104ed57600080fd5b506005546102c1906001600160a01b031681565b34801561050d57600080fd5b506102f9610c8f565b34801561052257600080fd5b506102f9610cc5565b34801561053757600080fd5b506004546102c1906001600160a01b031681565b34801561055757600080fd5b506000546001600160a01b03166102c1565b34801561057557600080fd5b5061027b61058436600461197a565b610d02565b34801561059557600080fd5b50610248600b5481565b3480156105ab57600080fd5b50610248600d5481565b3480156105c157600080fd5b50600e5461027b9060ff1681565b3480156105db57600080fd5b50610248600081565b3480156105f057600080fd5b50610248600c5481565b34801561060657600080fd5b506102f9610615366004611a02565b610d2d565b34801561062657600080fd5b506102f961063536600461197a565b610db8565b34801561064657600080fd5b506102f961065536600461197a565b610fd9565b34801561066657600080fd5b506102f961067536600461195d565b610ffe565b60006001600160e01b03198216637965db0b60e01b14806106ab57506301ffc9a760e01b6001600160e01b03198316145b92915050565b6000546001600160a01b031633146106db5760405162461bcd60e51b815260040161020490611ac7565b600954811161073b5760405162461bcd60e51b815260206004820152602660248201527f63616e27742068617665207573657220636170206c6f776572207468616e20636044820152651d5c9c995b9d60d21b6064820152608401610204565b600955565b610748611096565b600e5460ff1661078d5760405162461bcd60e51b815260206004820152601060248201526f1b9bdd081c995b19585cd959081e595d60821b6044820152606401610204565b6001600160a01b0381166000908152600a60205260409020546107e85760405162461bcd60e51b81526020600482015260136024820152726e6f20746f6b656e7320636c61696d61626c6560681b6044820152606401610204565b6001600160a01b0381166000908152600a6020526040902080546003909101541061084b5760405162461bcd60e51b8152602060048201526013602482015272616c6c20636c61696d656420616c726561647960681b6044820152606401610204565b6001600160a01b0381166000908152600a6020526040812060020154900361088d57600c546001600160a01b0382166000908152600a60205260409020600201555b6001600160a01b0381166000908152600a60205260408120600201544291906108b69083611b12565b6001600160a01b0384166000908152600a60205260408120600201849055600d5491925090821015806108f75750600d54600c546108f49042611b12565b10155b1561092c576001600160a01b0384166000908152600a60205260409020600381015490546109259190611b12565b9050610960565b600d546001600160a01b0385166000908152600a6020526040902054610953908490611b29565b61095d9190611b48565b90505b6001600160a01b0384166000908152600a60205260408120600301805483929061098b908490611b6a565b9091555061099b905084826110ef565b836001600160a01b03167fe42df0d9493dfd0d7f69902c895b94c190a53e8c27876a86f45e7c997d9d8f7c826040516109d691815260200190565b60405180910390a25050506109ea60018055565b50565b600082815260026020526040902060010154610a0881611166565b610a128383611170565b505050565b6000546001600160a01b03163314610a415760405162461bcd60e51b815260040161020490611ac7565b60008111610a875760405162461bcd60e51b8152602060048201526013602482015272726174652063616e6e6f74206265207a65726f60681b6044820152606401610204565b600655565b6001600160a01b0381163314610afc5760405162461bcd60e51b815260206004820152602f60248201527f416363657373436f6e74726f6c3a2063616e206f6e6c792072656e6f756e636560448201526e103937b632b9903337b91039b2b63360891b6064820152608401610204565b610b0682826111f6565b5050565b6000546001600160a01b03163314610b345760405162461bcd60e51b815260040161020490611ac7565b6008548111610b945760405162461bcd60e51b815260206004820152602660248201527f63616e2774206861766520636170206c6f776572207468616e20616c726561646044820152651e481cdbdb1960d21b6064820152608401610204565b600755565b6000546001600160a01b03163314610bc35760405162461bcd60e51b815260040161020490611ac7565b63648949504211610c165760405162461bcd60e51b815260206004820152601960248201527f776520617265206e6f742072756767696e672075206c6d616f000000000000006044820152606401610204565b60405163a9059cbb60e01b81526001600160a01b0382811660048301526024820184905284169063a9059cbb906044016020604051808303816000875af1158015610c65573d6000803e3d6000fd5b505050506040513d601f19601f82011682018060405250810190610c899190611b82565b50505050565b6000546001600160a01b03163314610cb95760405162461bcd60e51b815260040161020490611ac7565b610cc3600061125d565b565b6000546001600160a01b03163314610cef5760405162461bcd60e51b815260040161020490611ac7565b600e805460ff1916600117905542600c55565b60009182526002602090815260408084206001600160a01b0393909316845291905290205460ff1690565b6000546001600160a01b03163314610d575760405162461bcd60e51b815260040161020490611ac7565b60005b8151811015610b0657610da67f0af0c3ebe77999ca20698e1ff25f812bf82409a59d21ca15a41f39e0ce9f2500838381518110610d9957610d99611ba4565b6020026020010151611170565b80610db081611bba565b915050610d5a565b610dc0611096565b610dea7f0af0c3ebe77999ca20698e1ff25f812bf82409a59d21ca15a41f39e0ce9f250082610d02565b610e475760405162461bcd60e51b815260206004820152602860248201527f6e6f742077686974656c69737465642c207761697420666f72207075626c69636044820152672070726573616c6560c01b6064820152608401610204565b6009546001600160a01b0382166000908152600a6020526040902060010154610e71908490611b6a565b1115610eb85760405162461bcd60e51b81526020600482015260166024820152750616d6f756e74206578636565642075736572206361760541b6044820152606401610204565b610ec281836112ad565b6000610ecd8361133c565b905060075481600854610ee09190611b6a565b1115610f2e5760405162461bcd60e51b815260206004820152601960248201527f6e6f7420656e6f75676820746f6b656e7320696e2073616c65000000000000006044820152606401610204565b60408051848152602081018390526001600160a01b0384169133917f623b3804fa71d67900d064613da8f94b9617215ee90799290593e1745087ad18910160405180910390a3610f7d83611366565b610f87828261139e565b6001600160a01b0382166000908152600a602052604081206001018054859290610fb2908490611b6a565b9250508190555082600b6000828254610fcb9190611b6a565b909155505060018055505050565b600082815260026020526040902060010154610ff481611166565b610a1283836111f6565b6000546001600160a01b031633146110285760405162461bcd60e51b815260040161020490611ac7565b6001600160a01b03811661108d5760405162461bcd60e51b815260206004820152602660248201527f4f776e61626c653a206e6577206f776e657220697320746865207a65726f206160448201526564647265737360d01b6064820152608401610204565b6109ea8161125d565b6002600154036110e85760405162461bcd60e51b815260206004820152601f60248201527f5265656e7472616e637947756172643a207265656e7472616e742063616c6c006044820152606401610204565b6002600155565b60035460405163a9059cbb60e01b81526001600160a01b038481166004830152602482018490529091169063a9059cbb906044016020604051808303816000875af1158015611142573d6000803e3d6000fd5b505050506040513d601f19601f82011682018060405250810190610a129190611b82565b6109ea81336113f9565b61117a8282610d02565b610b065760008281526002602090815260408083206001600160a01b03851684529091529020805460ff191660011790556111b23390565b6001600160a01b0316816001600160a01b0316837f2f8788117e7eff1d82e926ec794901d17c78024a50270940304540a733656f0d60405160405180910390a45050565b6112008282610d02565b15610b065760008281526002602090815260408083206001600160a01b0385168085529252808320805460ff1916905551339285917ff6391f5c32d9c69d2a47ea670b442974b53935d1edc7fd64eb21e047a839171b9190a45050565b600080546001600160a01b038381166001600160a01b0319831681178455604051919092169283917f8be0079c531659141344cd1fd0a4f28419497f9722a3daafe3b4186f6b6457e09190a35050565b6001600160a01b0382166112f65760405162461bcd60e51b815260206004820152601060248201526f6164647265737320697320656d70747960801b6044820152606401610204565b80600003610b065760405162461bcd60e51b8152602060048201526013602482015272656e7472792063616e2774206265207a65726f60681b6044820152606401610204565b60065460009061134d836064611b29565b61135c9064e8d4a51000611b29565b6106ab9190611b48565b6004546109ea906001600160a01b0316337f000000000000000000000000000000000000000000000000000000000000000084611452565b6001600160a01b0382166000908152600a60205260409020546113c2908290611b6a565b6001600160a01b0383166000908152600a6020526040812091909155600880548392906113f0908490611b6a565b90915550505050565b6114038282610d02565b610b0657611410816114ac565b61141b8360206114be565b60405160200161142c929190611bff565b60408051601f198184030181529082905262461bcd60e51b825261020491600401611c74565b604080516001600160a01b0385811660248301528416604482015260648082018490528251808303909101815260849091019091526020810180516001600160e01b03166323b872dd60e01b179052610c89908590611661565b60606106ab6001600160a01b03831660145b606060006114cd836002611b29565b6114d8906002611b6a565b67ffffffffffffffff8111156114f0576114f06119ec565b6040519080825280601f01601f19166020018201604052801561151a576020820181803683370190505b509050600360fc1b8160008151811061153557611535611ba4565b60200101906001600160f81b031916908160001a905350600f60fb1b8160018151811061156457611564611ba4565b60200101906001600160f81b031916908160001a9053506000611588846002611b29565b611593906001611b6a565b90505b600181111561160b576f181899199a1a9b1b9c1cb0b131b232b360811b85600f16601081106115c7576115c7611ba4565b1a60f81b8282815181106115dd576115dd611ba4565b60200101906001600160f81b031916908160001a90535060049490941c9361160481611ca7565b9050611596565b50831561165a5760405162461bcd60e51b815260206004820181905260248201527f537472696e67733a20686578206c656e67746820696e73756666696369656e746044820152606401610204565b9392505050565b60006116b6826040518060400160405280602081526020017f5361666545524332303a206c6f772d6c6576656c2063616c6c206661696c6564815250856001600160a01b03166117339092919063ffffffff16565b805190915015610a1257808060200190518101906116d49190611b82565b610a125760405162461bcd60e51b815260206004820152602a60248201527f5361666545524332303a204552433230206f7065726174696f6e20646964206e6044820152691bdd081cdd58d8d9595960b21b6064820152608401610204565b6060611742848460008561174a565b949350505050565b6060824710156117ab5760405162461bcd60e51b815260206004820152602660248201527f416464726573733a20696e73756666696369656e742062616c616e636520666f6044820152651c8818d85b1b60d21b6064820152608401610204565b6001600160a01b0385163b6118025760405162461bcd60e51b815260206004820152601d60248201527f416464726573733a2063616c6c20746f206e6f6e2d636f6e74726163740000006044820152606401610204565b600080866001600160a01b0316858760405161181e9190611cbe565b60006040518083038185875af1925050503d806000811461185b576040519150601f19603f3d011682016040523d82523d6000602084013e611860565b606091505b509150915061187082828661187b565b979650505050505050565b6060831561188a57508161165a565b82511561189a5782518084602001fd5b8160405162461bcd60e51b81526004016102049190611c74565b60208082526021908201527f5468697320636f6e747261637420646f6573206e6f74206163636570742045546040820152600960fb1b606082015260800190565b60006020828403121561190757600080fd5b81356001600160e01b03198116811461165a57600080fd5b60006020828403121561193157600080fd5b5035919050565b6001600160a01b03811681146109ea57600080fd5b803561195881611938565b919050565b60006020828403121561196f57600080fd5b813561165a81611938565b6000806040838503121561198d57600080fd5b82359150602083013561199f81611938565b809150509250929050565b6000806000606084860312156119bf57600080fd5b83356119ca81611938565b92506020840135915060408401356119e181611938565b809150509250925092565b634e487b7160e01b600052604160045260246000fd5b60006020808385031215611a1557600080fd5b823567ffffffffffffffff80821115611a2d57600080fd5b818501915085601f830112611a4157600080fd5b813581811115611a5357611a536119ec565b8060051b604051601f19603f83011681018181108582111715611a7857611a786119ec565b604052918252848201925083810185019188831115611a9657600080fd5b938501935b82851015611abb57611aac8561194d565b84529385019392850192611a9b565b98975050505050505050565b6020808252818101527f4f776e61626c653a2063616c6c6572206973206e6f7420746865206f776e6572604082015260600190565b634e487b7160e01b600052601160045260246000fd5b600082821015611b2457611b24611afc565b500390565b6000816000190483118215151615611b4357611b43611afc565b500290565b600082611b6557634e487b7160e01b600052601260045260246000fd5b500490565b60008219821115611b7d57611b7d611afc565b500190565b600060208284031215611b9457600080fd5b8151801515811461165a57600080fd5b634e487b7160e01b600052603260045260246000fd5b600060018201611bcc57611bcc611afc565b5060010190565b60005b83811015611bee578181015183820152602001611bd6565b83811115610c895750506000910152565b7f416363657373436f6e74726f6c3a206163636f756e7420000000000000000000815260008351611c37816017850160208801611bd3565b7001034b99036b4b9b9b4b733903937b6329607d1b6017918401918201528351611c68816028840160208801611bd3565b01602801949350505050565b6020815260008251806020840152611c93816040850160208701611bd3565b601f01601f19169190910160400192915050565b600081611cb657611cb6611afc565b506000190190565b60008251611cd0818460208701611bd3565b919091019291505056fea2646970667358221220be8bdca76fb9b83656b3c2b00eba04c9b977d64fa6a53197c38cebfdff18226c64736f6c634300080f003300000000000000000000000094b23c2233bc7c9fe75b22950335d7f792b00e8e000000000000000000000000755e6cf262600c7304254926c9671774a16ae969000000000000000000000000ff970a61a04b1ca14834a43f5de4533ebddb5cc80000000000000000000000000000000000000000000000000000000000093a80",
        "nonce": "0xb",
        "accessList": []
      },
      "additionalContracts": [],
      "isFixedGasLimit": false
    },
    {
      "hash": "0xbe410e91f64b43f0d4158998ce17a66b03b69db0d6b020f65eac9b2958910b74",
      "transactionType": "CALL",
      "contractName": "Initialization",
      "contractAddress": "0x882b852CEA9efce0881CD5a65868EaC0Ba1064B6",
      "function": "setMaxSupply()",
      "arguments": [],
      "transaction": {
        "type": "0x02",
        "from": "0xa50fc8fc0b7845b07dcd00ef6bde46e5160e3835",
        "to": "0x882b852cea9efce0881cd5a65868eac0ba1064b6",
        "gas": "0x5c7db",
        "value": "0x0",
        "data": "0xb1839d15",
        "nonce": "0xc",
        "accessList": []
      },
      "additionalContracts": [],
      "isFixedGasLimit": false
    },
    {
      "hash": "0x8c6374d19845fe824687db5b1aefdb8bac334d359a789010555ccb050e9b9436",
      "transactionType": "CALL",
      "contractName": "Initialization",
      "contractAddress": "0x882b852CEA9efce0881CD5a65868EaC0Ba1064B6",
      "function": "mint(address,uint256)",
      "arguments": [
        "0xBA4BeedC6d4f1c582a7EDB09A0709b7AC6508296",
        "13333000000000000000000"
      ],
      "transaction": {
        "type": "0x02",
        "from": "0xa50fc8fc0b7845b07dcd00ef6bde46e5160e3835",
        "to": "0x882b852cea9efce0881cd5a65868eac0ba1064b6",
        "gas": "0x82df1",
        "value": "0x0",
        "data": "0x40c10f19000000000000000000000000ba4beedc6d4f1c582a7edb09a0709b7ac65082960000000000000000000000000000000000000000000002d2c88b7abd0b340000",
        "nonce": "0xd",
        "accessList": []
      },
      "additionalContracts": [],
      "isFixedGasLimit": false
    },
    {
      "hash": "0xa3460f44cbf32b342099a6cd373bd49d981036689e1b92358475f2b763942baf",
      "transactionType": "CALL",
      "contractName": "Initialization",
      "contractAddress": "0x882b852CEA9efce0881CD5a65868EaC0Ba1064B6",
      "function": "mint(address,uint256)",
      "arguments": [
        "0x94b23c2233BC7c9Fe75B22950335d7F792b00E8e",
        "45000000000000000000000"
      ],
      "transaction": {
        "type": "0x02",
        "from": "0xa50fc8fc0b7845b07dcd00ef6bde46e5160e3835",
        "to": "0x882b852cea9efce0881cd5a65868eac0ba1064b6",
        "gas": "0x82df1",
        "value": "0x0",
        "data": "0x40c10f1900000000000000000000000094b23c2233bc7c9fe75b22950335d7f792b00e8e00000000000000000000000000000000000000000000098774738bc822200000",
        "nonce": "0xe",
        "accessList": []
      },
      "additionalContracts": [],
      "isFixedGasLimit": false
    },
    {
      "hash": "0xde535315e6f7f15d2499265894e610f770db7456758c5c0e4a63e2d3e0fd99aa",
      "transactionType": "CALL",
      "contractName": "Initialization",
      "contractAddress": "0x882b852CEA9efce0881CD5a65868EaC0Ba1064B6",
      "function": "mint(address,uint256)",
      "arguments": [
        "0xA43bEa9a6945c28E3FAEd53a6D2d7Aa65FA7E2B0",
        "96000000000000000000000"
      ],
      "transaction": {
        "type": "0x02",
        "from": "0xa50fc8fc0b7845b07dcd00ef6bde46e5160e3835",
        "to": "0x882b852cea9efce0881cd5a65868eac0ba1064b6",
        "gas": "0x82de2",
        "value": "0x0",
        "data": "0x40c10f19000000000000000000000000a43bea9a6945c28e3faed53a6d2d7aa65fa7e2b00000000000000000000000000000000000000000000014542ba12a337c000000",
        "nonce": "0xf",
        "accessList": []
      },
      "additionalContracts": [],
      "isFixedGasLimit": false
    },
    {
      "hash": "0xe475a2ec848ccc907758253f84452b1196e91d2dcd4e95ac078a07949a69d0e1",
      "transactionType": "CALL",
      "contractName": "RolesAdmin",
      "contractAddress": "0x75599756BA4C57ef1f644f2FC3Ba44D7E16abA10",
      "function": "grantRole(bytes32,address)",
      "arguments": [
        "0x61646d696e000000000000000000000000000000000000000000000000000000",
        "0x94b23c2233BC7c9Fe75B22950335d7F792b00E8e"
      ],
      "transaction": {
        "type": "0x02",
        "from": "0xa50fc8fc0b7845b07dcd00ef6bde46e5160e3835",
        "to": "0x75599756ba4c57ef1f644f2fc3ba44d7e16aba10",
        "gas": "0x82dc3",
        "value": "0x0",
        "data": "0x2f2ff15d61646d696e00000000000000000000000000000000000000000000000000000000000000000000000000000094b23c2233bc7c9fe75b22950335d7f792b00e8e",
        "nonce": "0x10",
        "accessList": []
      },
      "additionalContracts": [],
      "isFixedGasLimit": false
    },
    {
      "hash": "0x3a8ab33e59067b8f4a9412583e69c1addcd81280a9bdecbd7fb6a58864886ad0",
      "transactionType": "CALL",
      "contractName": "RADPresale",
      "contractAddress": "0xBA4BeedC6d4f1c582a7EDB09A0709b7AC6508296",
      "function": "whitelist(address[])",
      "arguments": [
        "[0xCFFE08BDf20918007f8Ab268C32f8756494fC8D8, 0xAd0fc281Ac377794FA417e76D68788a56E3040f0, 0x3B5f951A87BecF94ef52C84a91684409D28060Aa, 0x8aEe0E08c61b5810fc9bd274fF69ba2db4492ECE, 0x98aE9456a99f309956e4182deCE0e4798943B9f6, 0x6ED88188Da646B6fE64022895dE4045C35EbA48e, 0x6b49a6B4777C561Bd71F4d5E6cF90fBcFA4116D6, 0xc1737e5Cb508630f14224d8b77BEFDB348E63a2B, 0xa2917120C698fb5F2A03e3fD3524bdA85a3eaEF6, 0x4911505CBb6cC71F71b59eF1EC0ee99f6C57a8A0, 0x9A451eFa23AAF9F419D8a3EA6ABEe550613fb3dc, 0x4d744DaAce4AD148eA8B7833d21Be7e2942d9A29, 0x83F66B8d41DDAB1a5D346181c4346a58e6D83A0C, 0x3Bf7Ca3737335868d949f80EA017e577A8f8f316, 0x6bEA1644C14C9082cf42667Eaad4cfA89158EbF0, 0xcb954F2a0973abc92f9F8eD58938821B219CfE80, 0x5bAaC7ccda079839C9524b90dF81720834FC039f, 0x37D34B424dC624a41fE412ab1460d1e0eBEfb8aF, 0x87013CfD02A863D5ED3Cad31223A81b59dBfDbCD, 0x1Cc00Cc60f0b031Bb8d460358E27ab2857a07C0D, 0x4c496ea116A09651778e480B2e7E5aBA78514521, 0xB2515a7221b2654F9Faae0E4eD1d0E49Aa7B85DD, 0x2b133847465Ce196015044Afbe675aFdda482e1B, 0x076a6Faed850c0C2b270E7271A526cB26755F14D, 0x7637f43CFcc6ae683BB7dCAaD90F0b61b76C573A, 0x214E59A2e789f5D5881699401145ac72539aF6aB, 0x0922Bc5098a85C5C406Fb3c2371aF990f9d8dc65, 0xBF6ce33bce54b40DD6Ba8aAD3a85f6c566fC9D40, 0xC8Fc69a0A0508C4C8753e36262E23F876E3552Db, 0x911DA057b7F735bc54E9fFbe1143DdA363dBA6fB, 0x133e9241Aac55967884d7A141f60Da4da2Fb7B50, 0xA8992310f620dc8f23F9Cf4faD90A2F2380D8d6a, 0xE8EE975d5e3B357C1D9719F99c6d3b9614B0442d, 0x0cECB92B7A674f6E371F7339e3BFdC11418d1259, 0xa9256a6Ff144B59A55f32C3547aB0d3fe217bAD4, 0xd0947C8f6e6318696bB2155f30968037fa08BD04, 0x6b90f246E0057f9C289449EDBE8181E46e239e5B, 0x1228a857FD7Ee845f4999f33540F6b9D0988e80d, 0xd1fA3f9BA62cb251e785D2c7Eddd5D0A022BAaE1, 0x3476C2e44880E020aaaEB80dCd85f7f67D20acC6, 0x8b5d3e6FD56488c7Bc4F31b93Fa2f2E219fDfb38, 0xA914604c82BfbEbDd261CC08E72B35AC29259D8B, 0x7038e012B0683d8Fdb38f127ebb98A01BB30dA27, 0xD963BE28A687E21FF44c7B3eb822CcE75CE95B88, 0xf733F39134dEbb3EC637D7Cdd9463a5687AB893C, 0xe4682c269248F3d9efE7C8EC1A9C73eBdc185b2E, 0xE5ea58E6531E63C7BB58353F08A492acC8B5Eeb6, 0xB3639Bcf727216c353B78C2415878b7e52286d44, 0xC8ba5a463895B09f8362977Be63C48022cAAeAC7, 0xbD76C6487DaBef207470AFdB6f332c0432482F45, 0x2412Bd7681B71010a1CD90057DeE4158EC86F08C, 0x3753E2eDE1fb49cC203f9C3e598B18665fB55D2A, 0xB4fb31E7B1471A8e52dD1e962A281a732EaD59c1, 0x6B2ea72Ba8A7346cEdd2Dd5dC1476eA8df0B57D7, 0x47671c4d89aBB81efF18cc69839C634aF408e8af, 0x049808d5EAA90a2665b9703d2246DDed34F1EB73, 0x300F818133Cb321b1099cBD845044390F37e2E22, 0x6b5b5f2de5FB8Ac403C2632a21B55efC4DCc1Ed3, 0x8f7fF55bA9880A740a30e75f99e8991cbC382D7b, 0x16623D088c54A11Afa30faF98f778FBD7f7Fb61F, 0xaB888291F4127352B655fd476F64AC2ebfb8fe76, 0x7c6CC4fc9f054F851aa9aE3577087f00e017db5A, 0x629862337fDDf4d18C543DBaa9B3B7b441900fb5, 0x3bb20140Af8858a94C9693244e517Ff304299085, 0xe6f4cCAc6bbc030f4b4735fb9Dbd68526096Ce3D, 0xe3F186478E9DcD416E3568E56e4153645144093A, 0x232E03CC440ad5158Bd38636607f0E0Ad62A01c2, 0x05a2e50C5E4d724897b67b708db432A38c985f83, 0x2be1a753b1c0562c4cf35A24F6f62619961CEB53, 0x0cA6CAdb6a8cA4199788b9a060C3285Fe7B897Fd, 0xC44fD102415FF62769A4e37C70deA27033a5291F, 0x473d3a2005499301Dc353AFa9D0C9c5980b5188c, 0x7C43a9C3b85619be2F7C0a4D676eCd373f63b73C, 0x48Cd090C9E8a9954B0955c8b87754031d90c4955, 0x61E60af04805D7dDFB0CFDe0A96A3b1C15F3748F, 0x8F0568899653dC5853954cc02B29C37862982148, 0xde28e623B919b4A5280Ed97759d3B8e741Ea8fF3, 0xeAE1e7BDaAADC6D4E0892B0dEFBA3f0111354248, 0x2A1BBcdff7A047d82fc8829FAA0D13a8D2cf1dBE, 0x9a54971B7a4c17e93fcFFb4cB11e792065e15d44, 0x3f2228945C85663b54677dB97dA44DBDE71744ae, 0x1EeB5ECBb50e4cd52dE4F81D7c07d3fd6CE2e9Fc, 0xB05Cf01231cF2fF99499682E64D3780d57c80FdD, 0xb6F6db1F7eBA57094Ebc3891904bB5b34778dB67, 0xb50A3877f40ba0A019D45cEC9F3d9f01dD4eeD0e, 0xBCEF7d7a39ed4975b3261c8b226220187b785662, 0xB3B38F171f12C1543164ac8fc40503827d3B9edc, 0x3Bf86d166cb46BBf145E94B124dc686493a265aF, 0x56679F8669f6CDFf2B341F9aaA4055356DaDC8e7, 0x750685dB51856e2C9B5E839Ab27Fb268b365115b, 0x3188810bf80C80551b9e15a3D49854190b381aE9, 0x3f2B9232Ce37d489f846d4464648F14036c6ca12, 0xa52453C88c29550430F8a0378f1AdE46413ab9d7, 0xf8FeA0bA658aCAEf401566C9CC6f84fFaB6fCD70, 0xB41429cf0bD01e587d09369A088e547150c2fE38, 0x6aF9bd5D67468d8b273B68B57C43956e8397C620, 0x03b25D7C738C4ba0C319b86C208c2f718eA04D22, 0x99655CA16C742b46A4a05AFAf0f7798C336Fd279, 0x3172aee5e0B47bB23e87db93327F58E06e6A73B6, 0x6c7D2e50B4A588ACB5E88C8f6b76a6218fcE5aF2, 0xFdfC13a4AceF96e28D4f54bc17857DBD9824a819, 0x2DCF532DD77845710DC95596cf560ef8B7964104, 0xFab977091c09cB67A478c824C427b1351Fb204B7, 0x0452c0a0743C37Af4737e000b1E664f2017f8337, 0xc5cC3cB22A976C1715D8CC83B6A8E1dBB995A6f5, 0x10b38E6a0E47cFC69cFB153885b8565Ae2333B74, 0x48218a6452F65E0b8529d20cb5149b695D48E0C5, 0x2fA7AB2e6a5c5fd9Af6F9C4a025F04529Ce301cD]"
      ],
      "transaction": {
        "type": "0x02",
        "from": "0xa50fc8fc0b7845b07dcd00ef6bde46e5160e3835",
        "to": "0xba4beedc6d4f1c582a7edb09a0709b7ac6508296",
        "gas": "0x695c61",
        "value": "0x0",
        "data": "0xbd8aa7800000000000000000000000000000000000000000000000000000000000000020000000000000000000000000000000000000000000000000000000000000006c000000000000000000000000cffe08bdf20918007f8ab268c32f8756494fc8d8000000000000000000000000ad0fc281ac377794fa417e76d68788a56e3040f00000000000000000000000003b5f951a87becf94ef52c84a91684409d28060aa0000000000000000000000008aee0e08c61b5810fc9bd274ff69ba2db4492ece00000000000000000000000098ae9456a99f309956e4182dece0e4798943b9f60000000000000000000000006ed88188da646b6fe64022895de4045c35eba48e0000000000000000000000006b49a6b4777c561bd71f4d5e6cf90fbcfa4116d6000000000000000000000000c1737e5cb508630f14224d8b77befdb348e63a2b000000000000000000000000a2917120c698fb5f2a03e3fd3524bda85a3eaef60000000000000000000000004911505cbb6cc71f71b59ef1ec0ee99f6c57a8a00000000000000000000000009a451efa23aaf9f419d8a3ea6abee550613fb3dc0000000000000000000000004d744daace4ad148ea8b7833d21be7e2942d9a2900000000000000000000000083f66b8d41ddab1a5d346181c4346a58e6d83a0c0000000000000000000000003bf7ca3737335868d949f80ea017e577a8f8f3160000000000000000000000006bea1644c14c9082cf42667eaad4cfa89158ebf0000000000000000000000000cb954f2a0973abc92f9f8ed58938821b219cfe800000000000000000000000005baac7ccda079839c9524b90df81720834fc039f00000000000000000000000037d34b424dc624a41fe412ab1460d1e0ebefb8af00000000000000000000000087013cfd02a863d5ed3cad31223a81b59dbfdbcd0000000000000000000000001cc00cc60f0b031bb8d460358e27ab2857a07c0d0000000000000000000000004c496ea116a09651778e480b2e7e5aba78514521000000000000000000000000b2515a7221b2654f9faae0e4ed1d0e49aa7b85dd0000000000000000000000002b133847465ce196015044afbe675afdda482e1b000000000000000000000000076a6faed850c0c2b270e7271a526cb26755f14d0000000000000000000000007637f43cfcc6ae683bb7dcaad90f0b61b76c573a000000000000000000000000214e59a2e789f5d5881699401145ac72539af6ab0000000000000000000000000922bc5098a85c5c406fb3c2371af990f9d8dc65000000000000000000000000bf6ce33bce54b40dd6ba8aad3a85f6c566fc9d40000000000000000000000000c8fc69a0a0508c4c8753e36262e23f876e3552db000000000000000000000000911da057b7f735bc54e9ffbe1143dda363dba6fb000000000000000000000000133e9241aac55967884d7a141f60da4da2fb7b50000000000000000000000000a8992310f620dc8f23f9cf4fad90a2f2380d8d6a000000000000000000000000e8ee975d5e3b357c1d9719f99c6d3b9614b0442d0000000000000000000000000cecb92b7a674f6e371f7339e3bfdc11418d1259000000000000000000000000a9256a6ff144b59a55f32c3547ab0d3fe217bad4000000000000000000000000d0947c8f6e6318696bb2155f30968037fa08bd040000000000000000000000006b90f246e0057f9c289449edbe8181e46e239e5b0000000000000000000000001228a857fd7ee845f4999f33540f6b9d0988e80d000000000000000000000000d1fa3f9ba62cb251e785d2c7eddd5d0a022baae10000000000000000000000003476c2e44880e020aaaeb80dcd85f7f67d20acc60000000000000000000000008b5d3e6fd56488c7bc4f31b93fa2f2e219fdfb38000000000000000000000000a914604c82bfbebdd261cc08e72b35ac29259d8b0000000000000000000000007038e012b0683d8fdb38f127ebb98a01bb30da27000000000000000000000000d963be28a687e21ff44c7b3eb822cce75ce95b88000000000000000000000000f733f39134debb3ec637d7cdd9463a5687ab893c000000000000000000000000e4682c269248f3d9efe7c8ec1a9c73ebdc185b2e000000000000000000000000e5ea58e6531e63c7bb58353f08a492acc8b5eeb6000000000000000000000000b3639bcf727216c353b78c2415878b7e52286d44000000000000000000000000c8ba5a463895b09f8362977be63c48022caaeac7000000000000000000000000bd76c6487dabef207470afdb6f332c0432482f450000000000000000000000002412bd7681b71010a1cd90057dee4158ec86f08c0000000000000000000000003753e2ede1fb49cc203f9c3e598b18665fb55d2a000000000000000000000000b4fb31e7b1471a8e52dd1e962a281a732ead59c10000000000000000000000006b2ea72ba8a7346cedd2dd5dc1476ea8df0b57d700000000000000000000000047671c4d89abb81eff18cc69839c634af408e8af000000000000000000000000049808d5eaa90a2665b9703d2246dded34f1eb73000000000000000000000000300f818133cb321b1099cbd845044390f37e2e220000000000000000000000006b5b5f2de5fb8ac403c2632a21b55efc4dcc1ed30000000000000000000000008f7ff55ba9880a740a30e75f99e8991cbc382d7b00000000000000000000000016623d088c54a11afa30faf98f778fbd7f7fb61f000000000000000000000000ab888291f4127352b655fd476f64ac2ebfb8fe760000000000000000000000007c6cc4fc9f054f851aa9ae3577087f00e017db5a000000000000000000000000629862337fddf4d18c543dbaa9b3b7b441900fb50000000000000000000000003bb20140af8858a94c9693244e517ff304299085000000000000000000000000e6f4ccac6bbc030f4b4735fb9dbd68526096ce3d000000000000000000000000e3f186478e9dcd416e3568e56e4153645144093a000000000000000000000000232e03cc440ad5158bd38636607f0e0ad62a01c200000000000000000000000005a2e50c5e4d724897b67b708db432a38c985f830000000000000000000000002be1a753b1c0562c4cf35a24f6f62619961ceb530000000000000000000000000ca6cadb6a8ca4199788b9a060c3285fe7b897fd000000000000000000000000c44fd102415ff62769a4e37c70dea27033a5291f000000000000000000000000473d3a2005499301dc353afa9d0c9c5980b5188c0000000000000000000000007c43a9c3b85619be2f7c0a4d676ecd373f63b73c00000000000000000000000048cd090c9e8a9954b0955c8b87754031d90c495500000000000000000000000061e60af04805d7ddfb0cfde0a96a3b1c15f3748f0000000000000000000000008f0568899653dc5853954cc02b29c37862982148000000000000000000000000de28e623b919b4a5280ed97759d3b8e741ea8ff3000000000000000000000000eae1e7bdaaadc6d4e0892b0defba3f01113542480000000000000000000000002a1bbcdff7a047d82fc8829faa0d13a8d2cf1dbe0000000000000000000000009a54971b7a4c17e93fcffb4cb11e792065e15d440000000000000000000000003f2228945c85663b54677db97da44dbde71744ae0000000000000000000000001eeb5ecbb50e4cd52de4f81d7c07d3fd6ce2e9fc000000000000000000000000b05cf01231cf2ff99499682e64d3780d57c80fdd000000000000000000000000b6f6db1f7eba57094ebc3891904bb5b34778db67000000000000000000000000b50a3877f40ba0a019d45cec9f3d9f01dd4eed0e000000000000000000000000bcef7d7a39ed4975b3261c8b226220187b785662000000000000000000000000b3b38f171f12c1543164ac8fc40503827d3b9edc0000000000000000000000003bf86d166cb46bbf145e94b124dc686493a265af00000000000000000000000056679f8669f6cdff2b341f9aaa4055356dadc8e7000000000000000000000000750685db51856e2c9b5e839ab27fb268b365115b0000000000000000000000003188810bf80c80551b9e15a3d49854190b381ae90000000000000000000000003f2b9232ce37d489f846d4464648f14036c6ca12000000000000000000000000a52453c88c29550430f8a0378f1ade46413ab9d7000000000000000000000000f8fea0ba658acaef401566c9cc6f84ffab6fcd70000000000000000000000000b41429cf0bd01e587d09369a088e547150c2fe380000000000000000000000006af9bd5d67468d8b273b68b57c43956e8397c62000000000000000000000000003b25d7c738c4ba0c319b86c208c2f718ea04d2200000000000000000000000099655ca16c742b46a4a05afaf0f7798c336fd2790000000000000000000000003172aee5e0b47bb23e87db93327f58e06e6a73b60000000000000000000000006c7d2e50b4a588acb5e88c8f6b76a6218fce5af2000000000000000000000000fdfc13a4acef96e28d4f54bc17857dbd9824a8190000000000000000000000002dcf532dd77845710dc95596cf560ef8b7964104000000000000000000000000fab977091c09cb67a478c824c427b1351fb204b70000000000000000000000000452c0a0743c37af4737e000b1e664f2017f8337000000000000000000000000c5cc3cb22a976c1715d8cc83b6a8e1dbb995a6f500000000000000000000000010b38e6a0e47cfc69cfb153885b8565ae2333b7400000000000000000000000048218a6452f65e0b8529d20cb5149b695d48e0c50000000000000000000000002fa7ab2e6a5c5fd9af6f9c4a025f04529ce301cd",
        "nonce": "0x11",
        "accessList": []
      },
      "additionalContracts": [],
      "isFixedGasLimit": false
    },
    {
      "hash": "0x8f6c5c0d6c910d01fcf0a6dd79be3a5e1d1e8ef09539ce6c08de4d4953f34fd9",
      "transactionType": "CALL",
      "contractName": "Kernel",
      "contractAddress": "0x4B65Cef586d4de8bc7BF48Cf7C8E1e164Bb89bab",
      "function": "executeAction(uint8,address)",
      "arguments": [
        "4",
        "0x94b23c2233BC7c9Fe75B22950335d7F792b00E8e"
      ],
      "transaction": {
        "type": "0x02",
        "from": "0xa50fc8fc0b7845b07dcd00ef6bde46e5160e3835",
        "to": "0x4b65cef586d4de8bc7bf48cf7c8e1e164bb89bab",
        "gas": "0x82d84",
        "value": "0x0",
        "data": "0xc4d1f8f1000000000000000000000000000000000000000000000000000000000000000400000000000000000000000094b23c2233bc7c9fe75b22950335d7f792b00e8e",
        "nonce": "0x12",
        "accessList": []
      },
      "additionalContracts": [],
      "isFixedGasLimit": false
    }
  ],
  "receipts": [
    {
      "transactionHash": "0x7fe80faf43a51a4adff55ae6f65f85472bdf278282751626234a22e1f58f28d3",
      "transactionIndex": "0x2",
      "blockHash": "0xad7ff23f53935c5b7125a9af912c8761ad904d8f5766b3cb703f8079974c5525",
      "blockNumber": "0x610336d",
      "from": "0xa50FC8Fc0b7845b07DCD00ef6bdE46E5160E3835",
      "to": null,
      "cumulativeGasUsed": "0x75df2b",
      "gasUsed": "0x66c10f",
      "contractAddress": "0x4B65Cef586d4de8bc7BF48Cf7C8E1e164Bb89bab",
      "logs": [],
      "status": "0x1",
      "logsBloom": "0x00000000000000000000000000000000000000000000000000000000000000000000000000000000000000000000000000000000000000000000000000000000000000000000000000000000000000000000000000000000000000000000000000000000000000000000000000000000000000000000000000000000000000000000000000000000000000000000000000000000000000000000000000000000000000000000000000000000000000000000000000000000000000000000000000000000000000000000000000000000000000000000000000000000000000000000000000000000000000000000000000000000000000000000000000000000",
      "type": "0x2",
      "effectiveGasPrice": "0x5f5e100"
    },
    {
      "transactionHash": "0x46ee104909fd6f2c51cbc6914ebdb1ea24df5155759dfb63ee61b73be565cd1b",
      "transactionIndex": "0x1",
      "blockHash": "0x17de08fc8bd4259a4b0c1b1d38f120aebb0275847cd1c216a7a9d63ddf822fa1",
      "blockNumber": "0x6103388",
      "from": "0xa50FC8Fc0b7845b07DCD00ef6bdE46E5160E3835",
      "to": null,
      "cumulativeGasUsed": "0x4eb002",
      "gasUsed": "0x4eb002",
      "contractAddress": "0x755E6CF262600c7304254926c9671774a16AE969",
      "logs": [],
      "status": "0x1",
      "logsBloom": "0x00000000000000000000000000000000000000000000000000000000000000000000000000000000000000000000000000000000000000000000000000000000000000000000000000000000000000000000000000000000000000000000000000000000000000000000000000000000000000000000000000000000000000000000000000000000000000000000000000000000000000000000000000000000000000000000000000000000000000000000000000000000000000000000000000000000000000000000000000000000000000000000000000000000000000000000000000000000000000000000000000000000000000000000000000000000",
      "type": "0x2",
      "effectiveGasPrice": "0x5f5e100"
    },
    {
      "transactionHash": "0x8d8a8c5f73e11635808e995a093e3f024ba29f74704cb372449f295726d9e07d",
      "transactionIndex": "0x2",
      "blockHash": "0x453fd8eefe3e5ea2fdeb5ea14b2e63267a8f649494039b8aa13aac32a482bb76",
      "blockNumber": "0x61033a2",
      "from": "0xa50FC8Fc0b7845b07DCD00ef6bdE46E5160E3835",
      "to": null,
      "cumulativeGasUsed": "0x2e5de9",
      "gasUsed": "0x20d3f5",
      "contractAddress": "0xA43bEa9a6945c28E3FAEd53a6D2d7Aa65FA7E2B0",
      "logs": [],
      "status": "0x1",
      "logsBloom": "0x00000000000000000000000000000000000000000000000000000000000000000000000000000000000000000000000000000000000000000000000000000000000000000000000000000000000000000000000000000000000000000000000000000000000000000000000000000000000000000000000000000000000000000000000000000000000000000000000000000000000000000000000000000000000000000000000000000000000000000000000000000000000000000000000000000000000000000000000000000000000000000000000000000000000000000000000000000000000000000000000000000000000000000000000000000000",
      "type": "0x2",
      "effectiveGasPrice": "0x5f5e100"
    },
    {
      "transactionHash": "0x682033ae6bbc2f1720d0e6f01bb87c94cd8ba5e22b0c245b2ae5660ce8484193",
      "transactionIndex": "0x1",
      "blockHash": "0x22fc85f57722019914a255f835d6ad7b97936a63db198716d0706c8268f1e70c",
      "blockNumber": "0x61033be",
      "from": "0xa50FC8Fc0b7845b07DCD00ef6bdE46E5160E3835",
      "to": null,
      "cumulativeGasUsed": "0x2a8de1",
      "gasUsed": "0x2a8de1",
      "contractAddress": "0x8fF2bF3aa3B05A3cc88BDb636b7d9A738a21fCAC",
      "logs": [],
      "status": "0x1",
      "logsBloom": "0x00000000000000000000000000000000000000000000000000000000000000000000000000000000000000000000000000000000000000000000000000000000000000000000000000000000000000000000000000000000000000000000000000000000000000000000000000000000000000000000000000000000000000000000000000000000000000000000000000000000000000000000000000000000000000000000000000000000000000000000000000000000000000000000000000000000000000000000000000000000000000000000000000000000000000000000000000000000000000000000000000000000000000000000000000000000",
      "type": "0x2",
      "effectiveGasPrice": "0x5f5e100"
    },
    {
      "transactionHash": "0xcff64f34e2007112072d5ae343da399f56df1d910096d0457c287fea84e7ae21",
      "transactionIndex": "0x1",
      "blockHash": "0x34529713a272196abf2999846bd62955f5f0632afdd52501e0374761d2d0238f",
      "blockNumber": "0x61033d6",
      "from": "0xa50FC8Fc0b7845b07DCD00ef6bdE46E5160E3835",
      "to": "0x4B65Cef586d4de8bc7BF48Cf7C8E1e164Bb89bab",
      "cumulativeGasUsed": "0x692cc",
      "gasUsed": "0x692cc",
      "contractAddress": null,
      "logs": [
        {
          "address": "0x4B65Cef586d4de8bc7BF48Cf7C8E1e164Bb89bab",
          "topics": [
            "0x6560dd86d70bf03c0005b3533cc115fa8b8a12b4ee11c7342ae7b32d82267c90",
            "0x0000000000000000000000000000000000000000000000000000000000000000",
            "0x0000000000000000000000008ff2bf3aa3b05a3cc88bdb636b7d9a738a21fcac"
          ],
          "data": "0x",
          "blockHash": "0x34529713a272196abf2999846bd62955f5f0632afdd52501e0374761d2d0238f",
          "blockNumber": "0x61033d6",
          "transactionHash": "0xcff64f34e2007112072d5ae343da399f56df1d910096d0457c287fea84e7ae21",
          "transactionIndex": "0x1",
          "logIndex": "0x0",
          "removed": false
        }
      ],
      "status": "0x1",
      "logsBloom": "0x80000000000000000000000000000000000000000000000000000000000000000000000000000000000000000000000000000000000000000000000000000000000000000000000000000000000000000000000000000000000000000000000000000000020000000000000000000800000000000040000000000000000000000000000000000000000000000000000000000000000000000000004000000000000000000000000000000000000000000000000000000000000000800000000000800000100000000008000000000000000000000000000000000000008020000000000000000000000000000000000000000000000000000000000000000080",
      "type": "0x2",
      "effectiveGasPrice": "0x5f5e100"
    },
    {
      "transactionHash": "0xbb2c9ea84f93b0267b7321360765fa14eed14a04ac9963845de1c01ba6a0bf35",
      "transactionIndex": "0x3",
      "blockHash": "0x80aa5db73314631c321ab413f08c7d39d08dc45fadcdb23128301252199e1b98",
      "blockNumber": "0x61033f2",
      "from": "0xa50FC8Fc0b7845b07DCD00ef6bdE46E5160E3835",
      "to": "0x4B65Cef586d4de8bc7BF48Cf7C8E1e164Bb89bab",
      "cumulativeGasUsed": "0x10b2f7",
      "gasUsed": "0x60d50",
      "contractAddress": null,
      "logs": [
        {
          "address": "0x4B65Cef586d4de8bc7BF48Cf7C8E1e164Bb89bab",
          "topics": [
            "0x6560dd86d70bf03c0005b3533cc115fa8b8a12b4ee11c7342ae7b32d82267c90",
            "0x0000000000000000000000000000000000000000000000000000000000000000",
            "0x000000000000000000000000a43bea9a6945c28e3faed53a6d2d7aa65fa7e2b0"
          ],
          "data": "0x",
          "blockHash": "0x80aa5db73314631c321ab413f08c7d39d08dc45fadcdb23128301252199e1b98",
          "blockNumber": "0x61033f2",
          "transactionHash": "0xbb2c9ea84f93b0267b7321360765fa14eed14a04ac9963845de1c01ba6a0bf35",
          "transactionIndex": "0x3",
          "logIndex": "0x2",
          "removed": false
        }
      ],
      "status": "0x1",
      "logsBloom": "0x80000000000040000000000800000000000000000000000000000000000000000000000000000000000000000000000000000000000000000000000000000000000000000000000000000000000000000000000000000000000000000000000000000000020000000000000000000800000000000040000000000000000000000000000000000000000000000000000000000000000000000000004000000000000000000000000000000000000000000000000000000000000000000000000000000000000000000008000000000000000000000000000000000000008820000000000000000000000000000000000000000000000000000000000000000080",
      "type": "0x2",
      "effectiveGasPrice": "0x5f5e100"
    },
    {
      "transactionHash": "0x8753bf38461cf75dc5a14157f3925790d7d2b91aa59bcb47ce617dc8dd87b28d",
      "transactionIndex": "0x1",
      "blockHash": "0xe624f19d7ca20cd9b2688cde68d31ca885dc947f150d64a62532346e466288e9",
      "blockNumber": "0x610340e",
      "from": "0xa50FC8Fc0b7845b07DCD00ef6bdE46E5160E3835",
      "to": "0x4B65Cef586d4de8bc7BF48Cf7C8E1e164Bb89bab",
      "cumulativeGasUsed": "0x60e5a",
      "gasUsed": "0x60e5a",
      "contractAddress": null,
      "logs": [
        {
          "address": "0x4B65Cef586d4de8bc7BF48Cf7C8E1e164Bb89bab",
          "topics": [
            "0x6560dd86d70bf03c0005b3533cc115fa8b8a12b4ee11c7342ae7b32d82267c90",
            "0x0000000000000000000000000000000000000000000000000000000000000000",
            "0x000000000000000000000000755e6cf262600c7304254926c9671774a16ae969"
          ],
          "data": "0x",
          "blockHash": "0xe624f19d7ca20cd9b2688cde68d31ca885dc947f150d64a62532346e466288e9",
          "blockNumber": "0x610340e",
          "transactionHash": "0x8753bf38461cf75dc5a14157f3925790d7d2b91aa59bcb47ce617dc8dd87b28d",
          "transactionIndex": "0x1",
          "logIndex": "0x0",
          "removed": false
        }
      ],
      "status": "0x1",
      "logsBloom": "0x80000000000000000000000000000000000000000000000000000000000000000000000000000000000000000000000000000000000000000000000000000000000000000000000000000000000000000000000000000000000000000000000000000000020000000000000000000800000000000040000000000000000000000000000000000000000000000000000000000004000000000000004000000000000000000000000000000000000000000000000000000000000000000000000000000000000000000008000000000000000000001000000000000000008020000000000000000000000000000000100000000000000000000000000000000080",
      "type": "0x2",
      "effectiveGasPrice": "0x5f5e100"
    },
    {
      "transactionHash": "0x40799b4e3e7e0f50586558813df4e9d9481cab7315b384ed56af858fa0a11d77",
      "transactionIndex": "0x3",
      "blockHash": "0xe3ae03ecdc5313926751277891b6c75b87df41c3251bc7b329695030451c73d5",
      "blockNumber": "0x610342a",
      "from": "0xa50FC8Fc0b7845b07DCD00ef6bdE46E5160E3835",
      "to": null,
      "cumulativeGasUsed": "0x466cf9",
      "gasUsed": "0x31e97f",
      "contractAddress": "0x75599756BA4C57ef1f644f2FC3Ba44D7E16abA10",
      "logs": [],
      "status": "0x1",
      "logsBloom": "0x00000000000000000000000000000000000000000000000000000000000000000000000000000000000000000000000000000000000000000000000000000000000000000000000000000000000000000000000000000000000000000000000000000000000000000000000000000000000000000000000000000000000000000000000000000000000000000000000000000000000000000000000000000000000000000000000000000000000000000000000000000000000000000000000000000000000000000000000000000000000000000000000000000000000000000000000000000000000000000000000000000000000000000000000000000000",
      "type": "0x2",
      "effectiveGasPrice": "0x5f5e100"
    },
    {
      "transactionHash": "0x8a277e706b88e0fd2abdb839b733441cc8821b0ef249230863856cac5d11cd73",
      "transactionIndex": "0x2",
      "blockHash": "0xde0b81d76d298ad835cdfe71b46404ee4ac9155c625ab791ea14b11c66a26c2b",
      "blockNumber": "0x6103446",
      "from": "0xa50FC8Fc0b7845b07DCD00ef6bdE46E5160E3835",
      "to": null,
      "cumulativeGasUsed": "0x339425",
      "gasUsed": "0x2e5bdd",
      "contractAddress": "0x882b852CEA9efce0881CD5a65868EaC0Ba1064B6",
      "logs": [],
      "status": "0x1",
      "logsBloom": "0x00000000000000000000000000000000000000000000000000000000000000000000000000000000000000000000000000000000000000000000000000000000000000000000000000000000000000000000000000000000000000000000000000000000000000000000000000000000000000000000000000000000000000000000000000000000000000000000000000000000000000000000000000000000000000000000000000000000000000000000000000000000000000000000000000000000000000000000000000000000000000000000000000000000000000000000000000000000000000000000000000000000000000000000000000000000",
      "type": "0x2",
      "effectiveGasPrice": "0x5f5e100"
    },
    {
      "transactionHash": "0xbf98c4aded8386d36ed182a7339f328e7085ec7ef9d7e6b512bdeaf1a71e3b73",
      "transactionIndex": "0x3",
      "blockHash": "0x7dd94a7b0bde10ae8c4c7b86e6f3b1fa38e585d382da174864ab63ae3ebcfca8",
      "blockNumber": "0x610345e",
      "from": "0xa50FC8Fc0b7845b07DCD00ef6bdE46E5160E3835",
      "to": "0x4B65Cef586d4de8bc7BF48Cf7C8E1e164Bb89bab",
      "cumulativeGasUsed": "0x133e8d",
      "gasUsed": "0x7d16d",
      "contractAddress": null,
      "logs": [
        {
          "address": "0x4B65Cef586d4de8bc7BF48Cf7C8E1e164Bb89bab",
          "topics": [
            "0xf3cdd20c5574ce87c347ea71e37b8fa7a095894be4b7f2bb1533e8d2342965f1",
            "0x524f4c4553000000000000000000000000000000000000000000000000000000",
            "0x00000000000000000000000075599756ba4c57ef1f644f2fc3ba44d7e16aba10"
          ],
          "data": "0x656361ff000000000000000000000000000000000000000000000000000000000000000000000000000000000000000000000000000000000000000000000001",
          "blockHash": "0x7dd94a7b0bde10ae8c4c7b86e6f3b1fa38e585d382da174864ab63ae3ebcfca8",
          "blockNumber": "0x610345e",
          "transactionHash": "0xbf98c4aded8386d36ed182a7339f328e7085ec7ef9d7e6b512bdeaf1a71e3b73",
          "transactionIndex": "0x3",
          "logIndex": "0x3",
          "removed": false
        },
        {
          "address": "0x4B65Cef586d4de8bc7BF48Cf7C8E1e164Bb89bab",
          "topics": [
            "0xf3cdd20c5574ce87c347ea71e37b8fa7a095894be4b7f2bb1533e8d2342965f1",
            "0x524f4c4553000000000000000000000000000000000000000000000000000000",
            "0x00000000000000000000000075599756ba4c57ef1f644f2fc3ba44d7e16aba10"
          ],
          "data": "0xf6ba0007000000000000000000000000000000000000000000000000000000000000000000000000000000000000000000000000000000000000000000000001",
          "blockHash": "0x7dd94a7b0bde10ae8c4c7b86e6f3b1fa38e585d382da174864ab63ae3ebcfca8",
          "blockNumber": "0x610345e",
          "transactionHash": "0xbf98c4aded8386d36ed182a7339f328e7085ec7ef9d7e6b512bdeaf1a71e3b73",
          "transactionIndex": "0x3",
          "logIndex": "0x4",
          "removed": false
        },
        {
          "address": "0x4B65Cef586d4de8bc7BF48Cf7C8E1e164Bb89bab",
          "topics": [
            "0x6560dd86d70bf03c0005b3533cc115fa8b8a12b4ee11c7342ae7b32d82267c90",
            "0x0000000000000000000000000000000000000000000000000000000000000002",
            "0x00000000000000000000000075599756ba4c57ef1f644f2fc3ba44d7e16aba10"
          ],
          "data": "0x",
          "blockHash": "0x7dd94a7b0bde10ae8c4c7b86e6f3b1fa38e585d382da174864ab63ae3ebcfca8",
          "blockNumber": "0x610345e",
          "transactionHash": "0xbf98c4aded8386d36ed182a7339f328e7085ec7ef9d7e6b512bdeaf1a71e3b73",
          "transactionIndex": "0x3",
          "logIndex": "0x5",
          "removed": false
        }
      ],
      "status": "0x1",
      "logsBloom": "0x84000000002000000000000000000000000000000000000000000000000000000000000000000000000000000000000000000000000000000000000000000000000000000000000000000000000000000020000000000000000000000000000000000000000000000000000001000000000000000040000000000000000000002000000000000000000000000080000000000000000000000000004000000000000000000000000100000100000000000000000000000000000000000000100000000000000000000008000000000000000000000000000000000000008000040000000000001000000000000000000000000000008000000000000000000080",
      "type": "0x2",
      "effectiveGasPrice": "0x5f5e100"
    },
    {
      "transactionHash": "0x956313215a520bf614e2eed9e368137d41a89fb152dc4b1f6cf739305417e14a",
      "transactionIndex": "0x1",
      "blockHash": "0x06698933f6178c3d6a8d13b26c56203c95bad95c3cbb9b91bf04c658112e165b",
      "blockNumber": "0x610347a",
      "from": "0xa50FC8Fc0b7845b07DCD00ef6bdE46E5160E3835",
      "to": "0x4B65Cef586d4de8bc7BF48Cf7C8E1e164Bb89bab",
      "cumulativeGasUsed": "0x7e575",
      "gasUsed": "0x7e575",
      "contractAddress": null,
      "logs": [
        {
          "address": "0x4B65Cef586d4de8bc7BF48Cf7C8E1e164Bb89bab",
          "topics": [
            "0xf3cdd20c5574ce87c347ea71e37b8fa7a095894be4b7f2bb1533e8d2342965f1",
            "0x544f4b454e000000000000000000000000000000000000000000000000000000",
            "0x000000000000000000000000882b852cea9efce0881cd5a65868eac0ba1064b6"
          ],
          "data": "0x40c10f19000000000000000000000000000000000000000000000000000000000000000000000000000000000000000000000000000000000000000000000001",
          "blockHash": "0x06698933f6178c3d6a8d13b26c56203c95bad95c3cbb9b91bf04c658112e165b",
          "blockNumber": "0x610347a",
          "transactionHash": "0x956313215a520bf614e2eed9e368137d41a89fb152dc4b1f6cf739305417e14a",
          "transactionIndex": "0x1",
          "logIndex": "0x0",
          "removed": false
        },
        {
          "address": "0x4B65Cef586d4de8bc7BF48Cf7C8E1e164Bb89bab",
          "topics": [
            "0xf3cdd20c5574ce87c347ea71e37b8fa7a095894be4b7f2bb1533e8d2342965f1",
            "0x544f4b454e000000000000000000000000000000000000000000000000000000",
            "0x000000000000000000000000882b852cea9efce0881cd5a65868eac0ba1064b6"
          ],
          "data": "0x6f8b44b0000000000000000000000000000000000000000000000000000000000000000000000000000000000000000000000000000000000000000000000001",
          "blockHash": "0x06698933f6178c3d6a8d13b26c56203c95bad95c3cbb9b91bf04c658112e165b",
          "blockNumber": "0x610347a",
          "transactionHash": "0x956313215a520bf614e2eed9e368137d41a89fb152dc4b1f6cf739305417e14a",
          "transactionIndex": "0x1",
          "logIndex": "0x1",
          "removed": false
        },
        {
          "address": "0x4B65Cef586d4de8bc7BF48Cf7C8E1e164Bb89bab",
          "topics": [
            "0x6560dd86d70bf03c0005b3533cc115fa8b8a12b4ee11c7342ae7b32d82267c90",
            "0x0000000000000000000000000000000000000000000000000000000000000002",
            "0x000000000000000000000000882b852cea9efce0881cd5a65868eac0ba1064b6"
          ],
          "data": "0x",
          "blockHash": "0x06698933f6178c3d6a8d13b26c56203c95bad95c3cbb9b91bf04c658112e165b",
          "blockNumber": "0x610347a",
          "transactionHash": "0x956313215a520bf614e2eed9e368137d41a89fb152dc4b1f6cf739305417e14a",
          "transactionIndex": "0x1",
          "logIndex": "0x2",
          "removed": false
        }
      ],
      "status": "0x1",
      "logsBloom": "0x84000000200000000000000000000000000000000000000000000000000000000000000000000000000000000000000000000000000000000000000000000000000000000000000000000000000000000020000000000000000040000000000000000000000000000000000000000000000000000040000000000000000000000000000000000000000000000000000000000000000000000000004000000000000200000000000000000100000000000000000000000000000000000020000000000000000000000008000000400000000000000000000000000000008000040000000000001000000000000000000000000000008000000000000000800080",
      "type": "0x2",
      "effectiveGasPrice": "0x5f5e100"
    },
    {
      "transactionHash": "0x240a66e5f06a76a5b64562d43161fae16bcbadb0f2a581163297bd3ecb3c3cce",
      "transactionIndex": "0x4",
      "blockHash": "0xf712a10c060adaaaf4475e288cdfeab6215540c826228321f47031e0e19965a0",
      "blockNumber": "0x6103496",
      "from": "0xa50FC8Fc0b7845b07DCD00ef6bdE46E5160E3835",
      "to": null,
      "cumulativeGasUsed": "0xd89352",
      "gasUsed": "0x955b91",
      "contractAddress": "0xBA4BeedC6d4f1c582a7EDB09A0709b7AC6508296",
      "logs": [
        {
          "address": "0xBA4BeedC6d4f1c582a7EDB09A0709b7AC6508296",
          "topics": [
            "0x8be0079c531659141344cd1fd0a4f28419497f9722a3daafe3b4186f6b6457e0",
            "0x0000000000000000000000000000000000000000000000000000000000000000",
            "0x000000000000000000000000a50fc8fc0b7845b07dcd00ef6bde46e5160e3835"
          ],
          "data": "0x",
          "blockHash": "0xf712a10c060adaaaf4475e288cdfeab6215540c826228321f47031e0e19965a0",
          "blockNumber": "0x6103496",
          "transactionHash": "0x240a66e5f06a76a5b64562d43161fae16bcbadb0f2a581163297bd3ecb3c3cce",
          "transactionIndex": "0x4",
          "logIndex": "0xe",
          "removed": false
        }
      ],
      "status": "0x1",
      "logsBloom": "0x00000000000000000000000000000000000000000000000000800000000000000000000002000000000000000000000000000000000000000000000008000000000000000000000000000000000000000001000000000000000000000000000000000000020000000000000000000800000000000000040000000000000000400000000000000000000000000000000000000000000000000000000000000000000000010000010000000000000000000000000000000000000000000000000000000000000000000000000000000000000000000000000000000000004020000000000000000000000000000000000000000000000000000000000000000000",
      "type": "0x2",
      "effectiveGasPrice": "0x5f5e100"
    },
    {
      "transactionHash": "0xbe410e91f64b43f0d4158998ce17a66b03b69db0d6b020f65eac9b2958910b74",
      "transactionIndex": "0x2",
      "blockHash": "0xe3ca6b3ad6a509b45aff661c0d06dbd1b5680782bec5d0082330f27350fa6754",
      "blockNumber": "0x61034b2",
      "from": "0xa50FC8Fc0b7845b07DCD00ef6bdE46E5160E3835",
      "to": "0x882b852CEA9efce0881CD5a65868EaC0Ba1064B6",
      "cumulativeGasUsed": "0x154aaf",
      "gasUsed": "0x3eb16",
      "contractAddress": null,
      "logs": [],
      "status": "0x1",
      "logsBloom": "0x00000000000000000000000000000000000000000000000000000000000000000000000000000000000000000000000000000000000000000000000000000000000000000000000000000000000000000000000000000000000000000000000000000000000000000000000000000000000000000000000000000000000000000000000000000000000000000000000000000000000000000000000000000000000000000000000000000000000000000000000000000000000000000000000000000000000000000000000000000000000000000000000000000000000000000000000000000000000000000000000000000000000000000000000000000000",
      "type": "0x2",
      "effectiveGasPrice": "0x5f5e100"
    },
    {
      "transactionHash": "0x8c6374d19845fe824687db5b1aefdb8bac334d359a789010555ccb050e9b9436",
      "transactionIndex": "0x1",
      "blockHash": "0x2d83c8a87f5e920bb1785d3cefdd9372edad3e9adee9fcd59a2053974deba15c",
      "blockNumber": "0x61034ce",
      "from": "0xa50FC8Fc0b7845b07DCD00ef6bdE46E5160E3835",
      "to": "0x882b852CEA9efce0881CD5a65868EaC0Ba1064B6",
      "cumulativeGasUsed": "0x5fd89",
      "gasUsed": "0x5fd89",
      "contractAddress": null,
      "logs": [
        {
          "address": "0x755E6CF262600c7304254926c9671774a16AE969",
          "topics": [
            "0xddf252ad1be2c89b69c2b068fc378daa952ba7f163c4a11628f55a4df523b3ef",
            "0x0000000000000000000000000000000000000000000000000000000000000000",
            "0x000000000000000000000000ba4beedc6d4f1c582a7edb09a0709b7ac6508296"
          ],
          "data": "0x0000000000000000000000000000000000000000000002d2c88b7abd0b340000",
          "blockHash": "0x2d83c8a87f5e920bb1785d3cefdd9372edad3e9adee9fcd59a2053974deba15c",
          "blockNumber": "0x61034ce",
          "transactionHash": "0x8c6374d19845fe824687db5b1aefdb8bac334d359a789010555ccb050e9b9436",
          "transactionIndex": "0x1",
          "logIndex": "0x0",
          "removed": false
        }
      ],
      "status": "0x1",
      "logsBloom": "0x00000000000000010000000000000000000000000000000000000000000000000000000000000000000000000000000000000000020000000000000000000000000000000000000000000008000000000000000000000000000000000000000000000000020000000000000000000800000000000000000000000010000000000000000000000000000000000000000000000000000000000000000000000000000000000000000000000100000000000000000000000000000000010000000000000002000000000000000000000000000000000000000000000000000020000004000000000000000000000000000000000000000000000000000000400000",
      "type": "0x2",
      "effectiveGasPrice": "0x5f5e100"
    },
    {
      "transactionHash": "0xa3460f44cbf32b342099a6cd373bd49d981036689e1b92358475f2b763942baf",
      "transactionIndex": "0x2",
      "blockHash": "0xc51ada5d247611fb401fdd217002e246f04bf19d769c3845bece8a70ba2ed9df",
      "blockNumber": "0x61034ea",
      "from": "0xa50FC8Fc0b7845b07DCD00ef6bdE46E5160E3835",
      "to": "0x882b852CEA9efce0881CD5a65868EaC0Ba1064B6",
      "cumulativeGasUsed": "0x14fff7",
      "gasUsed": "0x5babd",
      "contractAddress": null,
      "logs": [
        {
          "address": "0x755E6CF262600c7304254926c9671774a16AE969",
          "topics": [
            "0xddf252ad1be2c89b69c2b068fc378daa952ba7f163c4a11628f55a4df523b3ef",
            "0x0000000000000000000000000000000000000000000000000000000000000000",
            "0x00000000000000000000000094b23c2233bc7c9fe75b22950335d7f792b00e8e"
          ],
          "data": "0x00000000000000000000000000000000000000000000098774738bc822200000",
          "blockHash": "0xc51ada5d247611fb401fdd217002e246f04bf19d769c3845bece8a70ba2ed9df",
          "blockNumber": "0x61034ea",
          "transactionHash": "0xa3460f44cbf32b342099a6cd373bd49d981036689e1b92358475f2b763942baf",
          "transactionIndex": "0x2",
          "logIndex": "0x2",
          "removed": false
        }
      ],
      "status": "0x1",
      "logsBloom": "0x00000000000000010000000000000000000000000000000000000000000000000000000000000000000000000000000000000000000000000000000000000000000000000000000000000008000000000000000000000000000000000000020000000000020000000000000000000800000000000000000000000010000000000000000000000000000000000000000000000000000000000000000000000000000000000000000000000000000000000000000000000000000000010000000000000002000000000000000000000020000000000000000000000000000020000004000000000000000000000000000000000000000000004000000000000000",
      "type": "0x2",
      "effectiveGasPrice": "0x5f5e100"
    },
    {
      "transactionHash": "0xde535315e6f7f15d2499265894e610f770db7456758c5c0e4a63e2d3e0fd99aa",
      "transactionIndex": "0x1",
      "blockHash": "0x16eaa1c0707527230540dbc3d52730e637c979e98c1995995e3d2220f9d806c5",
      "blockNumber": "0x6103506",
      "from": "0xa50FC8Fc0b7845b07DCD00ef6bdE46E5160E3835",
      "to": "0x882b852CEA9efce0881CD5a65868EaC0Ba1064B6",
      "cumulativeGasUsed": "0x5bab1",
      "gasUsed": "0x5bab1",
      "contractAddress": null,
      "logs": [
        {
          "address": "0x755E6CF262600c7304254926c9671774a16AE969",
          "topics": [
            "0xddf252ad1be2c89b69c2b068fc378daa952ba7f163c4a11628f55a4df523b3ef",
            "0x0000000000000000000000000000000000000000000000000000000000000000",
            "0x000000000000000000000000a43bea9a6945c28e3faed53a6d2d7aa65fa7e2b0"
          ],
          "data": "0x0000000000000000000000000000000000000000000014542ba12a337c000000",
          "blockHash": "0x16eaa1c0707527230540dbc3d52730e637c979e98c1995995e3d2220f9d806c5",
          "blockNumber": "0x6103506",
          "transactionHash": "0xde535315e6f7f15d2499265894e610f770db7456758c5c0e4a63e2d3e0fd99aa",
          "transactionIndex": "0x1",
          "logIndex": "0x0",
          "removed": false
        }
      ],
      "status": "0x1",
      "logsBloom": "0x00000000000040010000000800000000000000000000000000000000000000000000000000000000000000000000000000000000000000000000000000000000000000000000000000000008000000000000000000000000000000000000000000000000020000000000000000000800000000000000000000000010000000000000000000000000000000000000000000000000000000000000000000000000000000000000000000000000000000000000000000000000000000010000000000000002000000000000000000000000000000000000000000000000000820000004000000000000000000000000000000000000000000000000000000000000",
      "type": "0x2",
      "effectiveGasPrice": "0x5f5e100"
    },
    {
      "transactionHash": "0xe475a2ec848ccc907758253f84452b1196e91d2dcd4e95ac078a07949a69d0e1",
      "transactionIndex": "0x1",
      "blockHash": "0x122dfd863e325892b18f413fd7853f31e36ba48c83856069240a0fb97292ab80",
      "blockNumber": "0x6103522",
      "from": "0xa50FC8Fc0b7845b07DCD00ef6bdE46E5160E3835",
      "to": "0x75599756BA4C57ef1f644f2FC3Ba44D7E16abA10",
      "cumulativeGasUsed": "0x5c7d3",
      "gasUsed": "0x5c7d3",
      "contractAddress": null,
      "logs": [
        {
          "address": "0x8fF2bF3aa3B05A3cc88BDb636b7d9A738a21fCAC",
          "topics": [
            "0x2ae6a113c0ed5b78a53413ffbb7679881f11145ccfba4fb92e863dfcd5a1d2f3",
            "0x61646d696e000000000000000000000000000000000000000000000000000000",
            "0x00000000000000000000000094b23c2233bc7c9fe75b22950335d7f792b00e8e"
          ],
          "data": "0x",
          "blockHash": "0x122dfd863e325892b18f413fd7853f31e36ba48c83856069240a0fb97292ab80",
          "blockNumber": "0x6103522",
          "transactionHash": "0xe475a2ec848ccc907758253f84452b1196e91d2dcd4e95ac078a07949a69d0e1",
          "transactionIndex": "0x1",
          "logIndex": "0x0",
          "removed": false
        }
      ],
      "status": "0x1",
      "logsBloom": "0x0000000000000000000000000000000000000000000000000000000000000000000000000000000000000000000000000000000000000000000000000000000000000000000000000240000000000000000000000000000000000000000002000020000000000000000000000000040000000000000080000000000000000000000000000000000000000000000000000000000000000000000000000000000000000000000000000000000000000000000000000000000000000080000000000000000000000000000000000000002000000000000000002000000000000000000000400000000000000000000000000000000000000000c000000000000000",
      "type": "0x2",
      "effectiveGasPrice": "0x5f5e100"
    },
    {
      "transactionHash": "0x3a8ab33e59067b8f4a9412583e69c1addcd81280a9bdecbd7fb6a58864886ad0",
      "transactionIndex": "0x2",
      "blockHash": "0xb157d050d0967963d8f65cf7c9b1ea4bd24f274f875ad4c9c73b90cb25f045c4",
      "blockNumber": "0x610353e",
      "from": "0xa50FC8Fc0b7845b07DCD00ef6bdE46E5160E3835",
      "to": "0xBA4BeedC6d4f1c582a7EDB09A0709b7AC6508296",
      "cumulativeGasUsed": "0x79397b",
      "gasUsed": "0x717107",
      "contractAddress": null,
      "logs": [
        {
          "address": "0xBA4BeedC6d4f1c582a7EDB09A0709b7AC6508296",
          "topics": [
            "0x2f8788117e7eff1d82e926ec794901d17c78024a50270940304540a733656f0d",
            "0x0af0c3ebe77999ca20698e1ff25f812bf82409a59d21ca15a41f39e0ce9f2500",
            "0x000000000000000000000000cffe08bdf20918007f8ab268c32f8756494fc8d8",
            "0x000000000000000000000000a50fc8fc0b7845b07dcd00ef6bde46e5160e3835"
          ],
          "data": "0x",
          "blockHash": "0xb157d050d0967963d8f65cf7c9b1ea4bd24f274f875ad4c9c73b90cb25f045c4",
          "blockNumber": "0x610353e",
          "transactionHash": "0x3a8ab33e59067b8f4a9412583e69c1addcd81280a9bdecbd7fb6a58864886ad0",
          "transactionIndex": "0x2",
          "logIndex": "0x0",
          "removed": false
        },
        {
          "address": "0xBA4BeedC6d4f1c582a7EDB09A0709b7AC6508296",
          "topics": [
            "0x2f8788117e7eff1d82e926ec794901d17c78024a50270940304540a733656f0d",
            "0x0af0c3ebe77999ca20698e1ff25f812bf82409a59d21ca15a41f39e0ce9f2500",
            "0x000000000000000000000000ad0fc281ac377794fa417e76d68788a56e3040f0",
            "0x000000000000000000000000a50fc8fc0b7845b07dcd00ef6bde46e5160e3835"
          ],
          "data": "0x",
          "blockHash": "0xb157d050d0967963d8f65cf7c9b1ea4bd24f274f875ad4c9c73b90cb25f045c4",
          "blockNumber": "0x610353e",
          "transactionHash": "0x3a8ab33e59067b8f4a9412583e69c1addcd81280a9bdecbd7fb6a58864886ad0",
          "transactionIndex": "0x2",
          "logIndex": "0x1",
          "removed": false
        },
        {
          "address": "0xBA4BeedC6d4f1c582a7EDB09A0709b7AC6508296",
          "topics": [
            "0x2f8788117e7eff1d82e926ec794901d17c78024a50270940304540a733656f0d",
            "0x0af0c3ebe77999ca20698e1ff25f812bf82409a59d21ca15a41f39e0ce9f2500",
            "0x0000000000000000000000003b5f951a87becf94ef52c84a91684409d28060aa",
            "0x000000000000000000000000a50fc8fc0b7845b07dcd00ef6bde46e5160e3835"
          ],
          "data": "0x",
          "blockHash": "0xb157d050d0967963d8f65cf7c9b1ea4bd24f274f875ad4c9c73b90cb25f045c4",
          "blockNumber": "0x610353e",
          "transactionHash": "0x3a8ab33e59067b8f4a9412583e69c1addcd81280a9bdecbd7fb6a58864886ad0",
          "transactionIndex": "0x2",
          "logIndex": "0x2",
          "removed": false
        },
        {
          "address": "0xBA4BeedC6d4f1c582a7EDB09A0709b7AC6508296",
          "topics": [
            "0x2f8788117e7eff1d82e926ec794901d17c78024a50270940304540a733656f0d",
            "0x0af0c3ebe77999ca20698e1ff25f812bf82409a59d21ca15a41f39e0ce9f2500",
            "0x0000000000000000000000008aee0e08c61b5810fc9bd274ff69ba2db4492ece",
            "0x000000000000000000000000a50fc8fc0b7845b07dcd00ef6bde46e5160e3835"
          ],
          "data": "0x",
          "blockHash": "0xb157d050d0967963d8f65cf7c9b1ea4bd24f274f875ad4c9c73b90cb25f045c4",
          "blockNumber": "0x610353e",
          "transactionHash": "0x3a8ab33e59067b8f4a9412583e69c1addcd81280a9bdecbd7fb6a58864886ad0",
          "transactionIndex": "0x2",
          "logIndex": "0x3",
          "removed": false
        },
        {
          "address": "0xBA4BeedC6d4f1c582a7EDB09A0709b7AC6508296",
          "topics": [
            "0x2f8788117e7eff1d82e926ec794901d17c78024a50270940304540a733656f0d",
            "0x0af0c3ebe77999ca20698e1ff25f812bf82409a59d21ca15a41f39e0ce9f2500",
            "0x00000000000000000000000098ae9456a99f309956e4182dece0e4798943b9f6",
            "0x000000000000000000000000a50fc8fc0b7845b07dcd00ef6bde46e5160e3835"
          ],
          "data": "0x",
          "blockHash": "0xb157d050d0967963d8f65cf7c9b1ea4bd24f274f875ad4c9c73b90cb25f045c4",
          "blockNumber": "0x610353e",
          "transactionHash": "0x3a8ab33e59067b8f4a9412583e69c1addcd81280a9bdecbd7fb6a58864886ad0",
          "transactionIndex": "0x2",
          "logIndex": "0x4",
          "removed": false
        },
        {
          "address": "0xBA4BeedC6d4f1c582a7EDB09A0709b7AC6508296",
          "topics": [
            "0x2f8788117e7eff1d82e926ec794901d17c78024a50270940304540a733656f0d",
            "0x0af0c3ebe77999ca20698e1ff25f812bf82409a59d21ca15a41f39e0ce9f2500",
            "0x0000000000000000000000006ed88188da646b6fe64022895de4045c35eba48e",
            "0x000000000000000000000000a50fc8fc0b7845b07dcd00ef6bde46e5160e3835"
          ],
          "data": "0x",
          "blockHash": "0xb157d050d0967963d8f65cf7c9b1ea4bd24f274f875ad4c9c73b90cb25f045c4",
          "blockNumber": "0x610353e",
          "transactionHash": "0x3a8ab33e59067b8f4a9412583e69c1addcd81280a9bdecbd7fb6a58864886ad0",
          "transactionIndex": "0x2",
          "logIndex": "0x5",
          "removed": false
        },
        {
          "address": "0xBA4BeedC6d4f1c582a7EDB09A0709b7AC6508296",
          "topics": [
            "0x2f8788117e7eff1d82e926ec794901d17c78024a50270940304540a733656f0d",
            "0x0af0c3ebe77999ca20698e1ff25f812bf82409a59d21ca15a41f39e0ce9f2500",
            "0x0000000000000000000000006b49a6b4777c561bd71f4d5e6cf90fbcfa4116d6",
            "0x000000000000000000000000a50fc8fc0b7845b07dcd00ef6bde46e5160e3835"
          ],
          "data": "0x",
          "blockHash": "0xb157d050d0967963d8f65cf7c9b1ea4bd24f274f875ad4c9c73b90cb25f045c4",
          "blockNumber": "0x610353e",
          "transactionHash": "0x3a8ab33e59067b8f4a9412583e69c1addcd81280a9bdecbd7fb6a58864886ad0",
          "transactionIndex": "0x2",
          "logIndex": "0x6",
          "removed": false
        },
        {
          "address": "0xBA4BeedC6d4f1c582a7EDB09A0709b7AC6508296",
          "topics": [
            "0x2f8788117e7eff1d82e926ec794901d17c78024a50270940304540a733656f0d",
            "0x0af0c3ebe77999ca20698e1ff25f812bf82409a59d21ca15a41f39e0ce9f2500",
            "0x000000000000000000000000c1737e5cb508630f14224d8b77befdb348e63a2b",
            "0x000000000000000000000000a50fc8fc0b7845b07dcd00ef6bde46e5160e3835"
          ],
          "data": "0x",
          "blockHash": "0xb157d050d0967963d8f65cf7c9b1ea4bd24f274f875ad4c9c73b90cb25f045c4",
          "blockNumber": "0x610353e",
          "transactionHash": "0x3a8ab33e59067b8f4a9412583e69c1addcd81280a9bdecbd7fb6a58864886ad0",
          "transactionIndex": "0x2",
          "logIndex": "0x7",
          "removed": false
        },
        {
          "address": "0xBA4BeedC6d4f1c582a7EDB09A0709b7AC6508296",
          "topics": [
            "0x2f8788117e7eff1d82e926ec794901d17c78024a50270940304540a733656f0d",
            "0x0af0c3ebe77999ca20698e1ff25f812bf82409a59d21ca15a41f39e0ce9f2500",
            "0x000000000000000000000000a2917120c698fb5f2a03e3fd3524bda85a3eaef6",
            "0x000000000000000000000000a50fc8fc0b7845b07dcd00ef6bde46e5160e3835"
          ],
          "data": "0x",
          "blockHash": "0xb157d050d0967963d8f65cf7c9b1ea4bd24f274f875ad4c9c73b90cb25f045c4",
          "blockNumber": "0x610353e",
          "transactionHash": "0x3a8ab33e59067b8f4a9412583e69c1addcd81280a9bdecbd7fb6a58864886ad0",
          "transactionIndex": "0x2",
          "logIndex": "0x8",
          "removed": false
        },
        {
          "address": "0xBA4BeedC6d4f1c582a7EDB09A0709b7AC6508296",
          "topics": [
            "0x2f8788117e7eff1d82e926ec794901d17c78024a50270940304540a733656f0d",
            "0x0af0c3ebe77999ca20698e1ff25f812bf82409a59d21ca15a41f39e0ce9f2500",
            "0x0000000000000000000000004911505cbb6cc71f71b59ef1ec0ee99f6c57a8a0",
            "0x000000000000000000000000a50fc8fc0b7845b07dcd00ef6bde46e5160e3835"
          ],
          "data": "0x",
          "blockHash": "0xb157d050d0967963d8f65cf7c9b1ea4bd24f274f875ad4c9c73b90cb25f045c4",
          "blockNumber": "0x610353e",
          "transactionHash": "0x3a8ab33e59067b8f4a9412583e69c1addcd81280a9bdecbd7fb6a58864886ad0",
          "transactionIndex": "0x2",
          "logIndex": "0x9",
          "removed": false
        },
        {
          "address": "0xBA4BeedC6d4f1c582a7EDB09A0709b7AC6508296",
          "topics": [
            "0x2f8788117e7eff1d82e926ec794901d17c78024a50270940304540a733656f0d",
            "0x0af0c3ebe77999ca20698e1ff25f812bf82409a59d21ca15a41f39e0ce9f2500",
            "0x0000000000000000000000009a451efa23aaf9f419d8a3ea6abee550613fb3dc",
            "0x000000000000000000000000a50fc8fc0b7845b07dcd00ef6bde46e5160e3835"
          ],
          "data": "0x",
          "blockHash": "0xb157d050d0967963d8f65cf7c9b1ea4bd24f274f875ad4c9c73b90cb25f045c4",
          "blockNumber": "0x610353e",
          "transactionHash": "0x3a8ab33e59067b8f4a9412583e69c1addcd81280a9bdecbd7fb6a58864886ad0",
          "transactionIndex": "0x2",
          "logIndex": "0xa",
          "removed": false
        },
        {
          "address": "0xBA4BeedC6d4f1c582a7EDB09A0709b7AC6508296",
          "topics": [
            "0x2f8788117e7eff1d82e926ec794901d17c78024a50270940304540a733656f0d",
            "0x0af0c3ebe77999ca20698e1ff25f812bf82409a59d21ca15a41f39e0ce9f2500",
            "0x0000000000000000000000004d744daace4ad148ea8b7833d21be7e2942d9a29",
            "0x000000000000000000000000a50fc8fc0b7845b07dcd00ef6bde46e5160e3835"
          ],
          "data": "0x",
          "blockHash": "0xb157d050d0967963d8f65cf7c9b1ea4bd24f274f875ad4c9c73b90cb25f045c4",
          "blockNumber": "0x610353e",
          "transactionHash": "0x3a8ab33e59067b8f4a9412583e69c1addcd81280a9bdecbd7fb6a58864886ad0",
          "transactionIndex": "0x2",
          "logIndex": "0xb",
          "removed": false
        },
        {
          "address": "0xBA4BeedC6d4f1c582a7EDB09A0709b7AC6508296",
          "topics": [
            "0x2f8788117e7eff1d82e926ec794901d17c78024a50270940304540a733656f0d",
            "0x0af0c3ebe77999ca20698e1ff25f812bf82409a59d21ca15a41f39e0ce9f2500",
            "0x00000000000000000000000083f66b8d41ddab1a5d346181c4346a58e6d83a0c",
            "0x000000000000000000000000a50fc8fc0b7845b07dcd00ef6bde46e5160e3835"
          ],
          "data": "0x",
          "blockHash": "0xb157d050d0967963d8f65cf7c9b1ea4bd24f274f875ad4c9c73b90cb25f045c4",
          "blockNumber": "0x610353e",
          "transactionHash": "0x3a8ab33e59067b8f4a9412583e69c1addcd81280a9bdecbd7fb6a58864886ad0",
          "transactionIndex": "0x2",
          "logIndex": "0xc",
          "removed": false
        },
        {
          "address": "0xBA4BeedC6d4f1c582a7EDB09A0709b7AC6508296",
          "topics": [
            "0x2f8788117e7eff1d82e926ec794901d17c78024a50270940304540a733656f0d",
            "0x0af0c3ebe77999ca20698e1ff25f812bf82409a59d21ca15a41f39e0ce9f2500",
            "0x0000000000000000000000003bf7ca3737335868d949f80ea017e577a8f8f316",
            "0x000000000000000000000000a50fc8fc0b7845b07dcd00ef6bde46e5160e3835"
          ],
          "data": "0x",
          "blockHash": "0xb157d050d0967963d8f65cf7c9b1ea4bd24f274f875ad4c9c73b90cb25f045c4",
          "blockNumber": "0x610353e",
          "transactionHash": "0x3a8ab33e59067b8f4a9412583e69c1addcd81280a9bdecbd7fb6a58864886ad0",
          "transactionIndex": "0x2",
          "logIndex": "0xd",
          "removed": false
        },
        {
          "address": "0xBA4BeedC6d4f1c582a7EDB09A0709b7AC6508296",
          "topics": [
            "0x2f8788117e7eff1d82e926ec794901d17c78024a50270940304540a733656f0d",
            "0x0af0c3ebe77999ca20698e1ff25f812bf82409a59d21ca15a41f39e0ce9f2500",
            "0x0000000000000000000000006bea1644c14c9082cf42667eaad4cfa89158ebf0",
            "0x000000000000000000000000a50fc8fc0b7845b07dcd00ef6bde46e5160e3835"
          ],
          "data": "0x",
          "blockHash": "0xb157d050d0967963d8f65cf7c9b1ea4bd24f274f875ad4c9c73b90cb25f045c4",
          "blockNumber": "0x610353e",
          "transactionHash": "0x3a8ab33e59067b8f4a9412583e69c1addcd81280a9bdecbd7fb6a58864886ad0",
          "transactionIndex": "0x2",
          "logIndex": "0xe",
          "removed": false
        },
        {
          "address": "0xBA4BeedC6d4f1c582a7EDB09A0709b7AC6508296",
          "topics": [
            "0x2f8788117e7eff1d82e926ec794901d17c78024a50270940304540a733656f0d",
            "0x0af0c3ebe77999ca20698e1ff25f812bf82409a59d21ca15a41f39e0ce9f2500",
            "0x000000000000000000000000cb954f2a0973abc92f9f8ed58938821b219cfe80",
            "0x000000000000000000000000a50fc8fc0b7845b07dcd00ef6bde46e5160e3835"
          ],
          "data": "0x",
          "blockHash": "0xb157d050d0967963d8f65cf7c9b1ea4bd24f274f875ad4c9c73b90cb25f045c4",
          "blockNumber": "0x610353e",
          "transactionHash": "0x3a8ab33e59067b8f4a9412583e69c1addcd81280a9bdecbd7fb6a58864886ad0",
          "transactionIndex": "0x2",
          "logIndex": "0xf",
          "removed": false
        },
        {
          "address": "0xBA4BeedC6d4f1c582a7EDB09A0709b7AC6508296",
          "topics": [
            "0x2f8788117e7eff1d82e926ec794901d17c78024a50270940304540a733656f0d",
            "0x0af0c3ebe77999ca20698e1ff25f812bf82409a59d21ca15a41f39e0ce9f2500",
            "0x0000000000000000000000005baac7ccda079839c9524b90df81720834fc039f",
            "0x000000000000000000000000a50fc8fc0b7845b07dcd00ef6bde46e5160e3835"
          ],
          "data": "0x",
          "blockHash": "0xb157d050d0967963d8f65cf7c9b1ea4bd24f274f875ad4c9c73b90cb25f045c4",
          "blockNumber": "0x610353e",
          "transactionHash": "0x3a8ab33e59067b8f4a9412583e69c1addcd81280a9bdecbd7fb6a58864886ad0",
          "transactionIndex": "0x2",
          "logIndex": "0x10",
          "removed": false
        },
        {
          "address": "0xBA4BeedC6d4f1c582a7EDB09A0709b7AC6508296",
          "topics": [
            "0x2f8788117e7eff1d82e926ec794901d17c78024a50270940304540a733656f0d",
            "0x0af0c3ebe77999ca20698e1ff25f812bf82409a59d21ca15a41f39e0ce9f2500",
            "0x00000000000000000000000037d34b424dc624a41fe412ab1460d1e0ebefb8af",
            "0x000000000000000000000000a50fc8fc0b7845b07dcd00ef6bde46e5160e3835"
          ],
          "data": "0x",
          "blockHash": "0xb157d050d0967963d8f65cf7c9b1ea4bd24f274f875ad4c9c73b90cb25f045c4",
          "blockNumber": "0x610353e",
          "transactionHash": "0x3a8ab33e59067b8f4a9412583e69c1addcd81280a9bdecbd7fb6a58864886ad0",
          "transactionIndex": "0x2",
          "logIndex": "0x11",
          "removed": false
        },
        {
          "address": "0xBA4BeedC6d4f1c582a7EDB09A0709b7AC6508296",
          "topics": [
            "0x2f8788117e7eff1d82e926ec794901d17c78024a50270940304540a733656f0d",
            "0x0af0c3ebe77999ca20698e1ff25f812bf82409a59d21ca15a41f39e0ce9f2500",
            "0x00000000000000000000000087013cfd02a863d5ed3cad31223a81b59dbfdbcd",
            "0x000000000000000000000000a50fc8fc0b7845b07dcd00ef6bde46e5160e3835"
          ],
          "data": "0x",
          "blockHash": "0xb157d050d0967963d8f65cf7c9b1ea4bd24f274f875ad4c9c73b90cb25f045c4",
          "blockNumber": "0x610353e",
          "transactionHash": "0x3a8ab33e59067b8f4a9412583e69c1addcd81280a9bdecbd7fb6a58864886ad0",
          "transactionIndex": "0x2",
          "logIndex": "0x12",
          "removed": false
        },
        {
          "address": "0xBA4BeedC6d4f1c582a7EDB09A0709b7AC6508296",
          "topics": [
            "0x2f8788117e7eff1d82e926ec794901d17c78024a50270940304540a733656f0d",
            "0x0af0c3ebe77999ca20698e1ff25f812bf82409a59d21ca15a41f39e0ce9f2500",
            "0x0000000000000000000000001cc00cc60f0b031bb8d460358e27ab2857a07c0d",
            "0x000000000000000000000000a50fc8fc0b7845b07dcd00ef6bde46e5160e3835"
          ],
          "data": "0x",
          "blockHash": "0xb157d050d0967963d8f65cf7c9b1ea4bd24f274f875ad4c9c73b90cb25f045c4",
          "blockNumber": "0x610353e",
          "transactionHash": "0x3a8ab33e59067b8f4a9412583e69c1addcd81280a9bdecbd7fb6a58864886ad0",
          "transactionIndex": "0x2",
          "logIndex": "0x13",
          "removed": false
        },
        {
          "address": "0xBA4BeedC6d4f1c582a7EDB09A0709b7AC6508296",
          "topics": [
            "0x2f8788117e7eff1d82e926ec794901d17c78024a50270940304540a733656f0d",
            "0x0af0c3ebe77999ca20698e1ff25f812bf82409a59d21ca15a41f39e0ce9f2500",
            "0x0000000000000000000000004c496ea116a09651778e480b2e7e5aba78514521",
            "0x000000000000000000000000a50fc8fc0b7845b07dcd00ef6bde46e5160e3835"
          ],
          "data": "0x",
          "blockHash": "0xb157d050d0967963d8f65cf7c9b1ea4bd24f274f875ad4c9c73b90cb25f045c4",
          "blockNumber": "0x610353e",
          "transactionHash": "0x3a8ab33e59067b8f4a9412583e69c1addcd81280a9bdecbd7fb6a58864886ad0",
          "transactionIndex": "0x2",
          "logIndex": "0x14",
          "removed": false
        },
        {
          "address": "0xBA4BeedC6d4f1c582a7EDB09A0709b7AC6508296",
          "topics": [
            "0x2f8788117e7eff1d82e926ec794901d17c78024a50270940304540a733656f0d",
            "0x0af0c3ebe77999ca20698e1ff25f812bf82409a59d21ca15a41f39e0ce9f2500",
            "0x000000000000000000000000b2515a7221b2654f9faae0e4ed1d0e49aa7b85dd",
            "0x000000000000000000000000a50fc8fc0b7845b07dcd00ef6bde46e5160e3835"
          ],
          "data": "0x",
          "blockHash": "0xb157d050d0967963d8f65cf7c9b1ea4bd24f274f875ad4c9c73b90cb25f045c4",
          "blockNumber": "0x610353e",
          "transactionHash": "0x3a8ab33e59067b8f4a9412583e69c1addcd81280a9bdecbd7fb6a58864886ad0",
          "transactionIndex": "0x2",
          "logIndex": "0x15",
          "removed": false
        },
        {
          "address": "0xBA4BeedC6d4f1c582a7EDB09A0709b7AC6508296",
          "topics": [
            "0x2f8788117e7eff1d82e926ec794901d17c78024a50270940304540a733656f0d",
            "0x0af0c3ebe77999ca20698e1ff25f812bf82409a59d21ca15a41f39e0ce9f2500",
            "0x0000000000000000000000002b133847465ce196015044afbe675afdda482e1b",
            "0x000000000000000000000000a50fc8fc0b7845b07dcd00ef6bde46e5160e3835"
          ],
          "data": "0x",
          "blockHash": "0xb157d050d0967963d8f65cf7c9b1ea4bd24f274f875ad4c9c73b90cb25f045c4",
          "blockNumber": "0x610353e",
          "transactionHash": "0x3a8ab33e59067b8f4a9412583e69c1addcd81280a9bdecbd7fb6a58864886ad0",
          "transactionIndex": "0x2",
          "logIndex": "0x16",
          "removed": false
        },
        {
          "address": "0xBA4BeedC6d4f1c582a7EDB09A0709b7AC6508296",
          "topics": [
            "0x2f8788117e7eff1d82e926ec794901d17c78024a50270940304540a733656f0d",
            "0x0af0c3ebe77999ca20698e1ff25f812bf82409a59d21ca15a41f39e0ce9f2500",
            "0x000000000000000000000000076a6faed850c0c2b270e7271a526cb26755f14d",
            "0x000000000000000000000000a50fc8fc0b7845b07dcd00ef6bde46e5160e3835"
          ],
          "data": "0x",
          "blockHash": "0xb157d050d0967963d8f65cf7c9b1ea4bd24f274f875ad4c9c73b90cb25f045c4",
          "blockNumber": "0x610353e",
          "transactionHash": "0x3a8ab33e59067b8f4a9412583e69c1addcd81280a9bdecbd7fb6a58864886ad0",
          "transactionIndex": "0x2",
          "logIndex": "0x17",
          "removed": false
        },
        {
          "address": "0xBA4BeedC6d4f1c582a7EDB09A0709b7AC6508296",
          "topics": [
            "0x2f8788117e7eff1d82e926ec794901d17c78024a50270940304540a733656f0d",
            "0x0af0c3ebe77999ca20698e1ff25f812bf82409a59d21ca15a41f39e0ce9f2500",
            "0x0000000000000000000000007637f43cfcc6ae683bb7dcaad90f0b61b76c573a",
            "0x000000000000000000000000a50fc8fc0b7845b07dcd00ef6bde46e5160e3835"
          ],
          "data": "0x",
          "blockHash": "0xb157d050d0967963d8f65cf7c9b1ea4bd24f274f875ad4c9c73b90cb25f045c4",
          "blockNumber": "0x610353e",
          "transactionHash": "0x3a8ab33e59067b8f4a9412583e69c1addcd81280a9bdecbd7fb6a58864886ad0",
          "transactionIndex": "0x2",
          "logIndex": "0x18",
          "removed": false
        },
        {
          "address": "0xBA4BeedC6d4f1c582a7EDB09A0709b7AC6508296",
          "topics": [
            "0x2f8788117e7eff1d82e926ec794901d17c78024a50270940304540a733656f0d",
            "0x0af0c3ebe77999ca20698e1ff25f812bf82409a59d21ca15a41f39e0ce9f2500",
            "0x000000000000000000000000214e59a2e789f5d5881699401145ac72539af6ab",
            "0x000000000000000000000000a50fc8fc0b7845b07dcd00ef6bde46e5160e3835"
          ],
          "data": "0x",
          "blockHash": "0xb157d050d0967963d8f65cf7c9b1ea4bd24f274f875ad4c9c73b90cb25f045c4",
          "blockNumber": "0x610353e",
          "transactionHash": "0x3a8ab33e59067b8f4a9412583e69c1addcd81280a9bdecbd7fb6a58864886ad0",
          "transactionIndex": "0x2",
          "logIndex": "0x19",
          "removed": false
        },
        {
          "address": "0xBA4BeedC6d4f1c582a7EDB09A0709b7AC6508296",
          "topics": [
            "0x2f8788117e7eff1d82e926ec794901d17c78024a50270940304540a733656f0d",
            "0x0af0c3ebe77999ca20698e1ff25f812bf82409a59d21ca15a41f39e0ce9f2500",
            "0x0000000000000000000000000922bc5098a85c5c406fb3c2371af990f9d8dc65",
            "0x000000000000000000000000a50fc8fc0b7845b07dcd00ef6bde46e5160e3835"
          ],
          "data": "0x",
          "blockHash": "0xb157d050d0967963d8f65cf7c9b1ea4bd24f274f875ad4c9c73b90cb25f045c4",
          "blockNumber": "0x610353e",
          "transactionHash": "0x3a8ab33e59067b8f4a9412583e69c1addcd81280a9bdecbd7fb6a58864886ad0",
          "transactionIndex": "0x2",
          "logIndex": "0x1a",
          "removed": false
        },
        {
          "address": "0xBA4BeedC6d4f1c582a7EDB09A0709b7AC6508296",
          "topics": [
            "0x2f8788117e7eff1d82e926ec794901d17c78024a50270940304540a733656f0d",
            "0x0af0c3ebe77999ca20698e1ff25f812bf82409a59d21ca15a41f39e0ce9f2500",
            "0x000000000000000000000000bf6ce33bce54b40dd6ba8aad3a85f6c566fc9d40",
            "0x000000000000000000000000a50fc8fc0b7845b07dcd00ef6bde46e5160e3835"
          ],
          "data": "0x",
          "blockHash": "0xb157d050d0967963d8f65cf7c9b1ea4bd24f274f875ad4c9c73b90cb25f045c4",
          "blockNumber": "0x610353e",
          "transactionHash": "0x3a8ab33e59067b8f4a9412583e69c1addcd81280a9bdecbd7fb6a58864886ad0",
          "transactionIndex": "0x2",
          "logIndex": "0x1b",
          "removed": false
        },
        {
          "address": "0xBA4BeedC6d4f1c582a7EDB09A0709b7AC6508296",
          "topics": [
            "0x2f8788117e7eff1d82e926ec794901d17c78024a50270940304540a733656f0d",
            "0x0af0c3ebe77999ca20698e1ff25f812bf82409a59d21ca15a41f39e0ce9f2500",
            "0x000000000000000000000000c8fc69a0a0508c4c8753e36262e23f876e3552db",
            "0x000000000000000000000000a50fc8fc0b7845b07dcd00ef6bde46e5160e3835"
          ],
          "data": "0x",
          "blockHash": "0xb157d050d0967963d8f65cf7c9b1ea4bd24f274f875ad4c9c73b90cb25f045c4",
          "blockNumber": "0x610353e",
          "transactionHash": "0x3a8ab33e59067b8f4a9412583e69c1addcd81280a9bdecbd7fb6a58864886ad0",
          "transactionIndex": "0x2",
          "logIndex": "0x1c",
          "removed": false
        },
        {
          "address": "0xBA4BeedC6d4f1c582a7EDB09A0709b7AC6508296",
          "topics": [
            "0x2f8788117e7eff1d82e926ec794901d17c78024a50270940304540a733656f0d",
            "0x0af0c3ebe77999ca20698e1ff25f812bf82409a59d21ca15a41f39e0ce9f2500",
            "0x000000000000000000000000911da057b7f735bc54e9ffbe1143dda363dba6fb",
            "0x000000000000000000000000a50fc8fc0b7845b07dcd00ef6bde46e5160e3835"
          ],
          "data": "0x",
          "blockHash": "0xb157d050d0967963d8f65cf7c9b1ea4bd24f274f875ad4c9c73b90cb25f045c4",
          "blockNumber": "0x610353e",
          "transactionHash": "0x3a8ab33e59067b8f4a9412583e69c1addcd81280a9bdecbd7fb6a58864886ad0",
          "transactionIndex": "0x2",
          "logIndex": "0x1d",
          "removed": false
        },
        {
          "address": "0xBA4BeedC6d4f1c582a7EDB09A0709b7AC6508296",
          "topics": [
            "0x2f8788117e7eff1d82e926ec794901d17c78024a50270940304540a733656f0d",
            "0x0af0c3ebe77999ca20698e1ff25f812bf82409a59d21ca15a41f39e0ce9f2500",
            "0x000000000000000000000000133e9241aac55967884d7a141f60da4da2fb7b50",
            "0x000000000000000000000000a50fc8fc0b7845b07dcd00ef6bde46e5160e3835"
          ],
          "data": "0x",
          "blockHash": "0xb157d050d0967963d8f65cf7c9b1ea4bd24f274f875ad4c9c73b90cb25f045c4",
          "blockNumber": "0x610353e",
          "transactionHash": "0x3a8ab33e59067b8f4a9412583e69c1addcd81280a9bdecbd7fb6a58864886ad0",
          "transactionIndex": "0x2",
          "logIndex": "0x1e",
          "removed": false
        },
        {
          "address": "0xBA4BeedC6d4f1c582a7EDB09A0709b7AC6508296",
          "topics": [
            "0x2f8788117e7eff1d82e926ec794901d17c78024a50270940304540a733656f0d",
            "0x0af0c3ebe77999ca20698e1ff25f812bf82409a59d21ca15a41f39e0ce9f2500",
            "0x000000000000000000000000a8992310f620dc8f23f9cf4fad90a2f2380d8d6a",
            "0x000000000000000000000000a50fc8fc0b7845b07dcd00ef6bde46e5160e3835"
          ],
          "data": "0x",
          "blockHash": "0xb157d050d0967963d8f65cf7c9b1ea4bd24f274f875ad4c9c73b90cb25f045c4",
          "blockNumber": "0x610353e",
          "transactionHash": "0x3a8ab33e59067b8f4a9412583e69c1addcd81280a9bdecbd7fb6a58864886ad0",
          "transactionIndex": "0x2",
          "logIndex": "0x1f",
          "removed": false
        },
        {
          "address": "0xBA4BeedC6d4f1c582a7EDB09A0709b7AC6508296",
          "topics": [
            "0x2f8788117e7eff1d82e926ec794901d17c78024a50270940304540a733656f0d",
            "0x0af0c3ebe77999ca20698e1ff25f812bf82409a59d21ca15a41f39e0ce9f2500",
            "0x000000000000000000000000e8ee975d5e3b357c1d9719f99c6d3b9614b0442d",
            "0x000000000000000000000000a50fc8fc0b7845b07dcd00ef6bde46e5160e3835"
          ],
          "data": "0x",
          "blockHash": "0xb157d050d0967963d8f65cf7c9b1ea4bd24f274f875ad4c9c73b90cb25f045c4",
          "blockNumber": "0x610353e",
          "transactionHash": "0x3a8ab33e59067b8f4a9412583e69c1addcd81280a9bdecbd7fb6a58864886ad0",
          "transactionIndex": "0x2",
          "logIndex": "0x20",
          "removed": false
        },
        {
          "address": "0xBA4BeedC6d4f1c582a7EDB09A0709b7AC6508296",
          "topics": [
            "0x2f8788117e7eff1d82e926ec794901d17c78024a50270940304540a733656f0d",
            "0x0af0c3ebe77999ca20698e1ff25f812bf82409a59d21ca15a41f39e0ce9f2500",
            "0x0000000000000000000000000cecb92b7a674f6e371f7339e3bfdc11418d1259",
            "0x000000000000000000000000a50fc8fc0b7845b07dcd00ef6bde46e5160e3835"
          ],
          "data": "0x",
          "blockHash": "0xb157d050d0967963d8f65cf7c9b1ea4bd24f274f875ad4c9c73b90cb25f045c4",
          "blockNumber": "0x610353e",
          "transactionHash": "0x3a8ab33e59067b8f4a9412583e69c1addcd81280a9bdecbd7fb6a58864886ad0",
          "transactionIndex": "0x2",
          "logIndex": "0x21",
          "removed": false
        },
        {
          "address": "0xBA4BeedC6d4f1c582a7EDB09A0709b7AC6508296",
          "topics": [
            "0x2f8788117e7eff1d82e926ec794901d17c78024a50270940304540a733656f0d",
            "0x0af0c3ebe77999ca20698e1ff25f812bf82409a59d21ca15a41f39e0ce9f2500",
            "0x000000000000000000000000a9256a6ff144b59a55f32c3547ab0d3fe217bad4",
            "0x000000000000000000000000a50fc8fc0b7845b07dcd00ef6bde46e5160e3835"
          ],
          "data": "0x",
          "blockHash": "0xb157d050d0967963d8f65cf7c9b1ea4bd24f274f875ad4c9c73b90cb25f045c4",
          "blockNumber": "0x610353e",
          "transactionHash": "0x3a8ab33e59067b8f4a9412583e69c1addcd81280a9bdecbd7fb6a58864886ad0",
          "transactionIndex": "0x2",
          "logIndex": "0x22",
          "removed": false
        },
        {
          "address": "0xBA4BeedC6d4f1c582a7EDB09A0709b7AC6508296",
          "topics": [
            "0x2f8788117e7eff1d82e926ec794901d17c78024a50270940304540a733656f0d",
            "0x0af0c3ebe77999ca20698e1ff25f812bf82409a59d21ca15a41f39e0ce9f2500",
            "0x000000000000000000000000d0947c8f6e6318696bb2155f30968037fa08bd04",
            "0x000000000000000000000000a50fc8fc0b7845b07dcd00ef6bde46e5160e3835"
          ],
          "data": "0x",
          "blockHash": "0xb157d050d0967963d8f65cf7c9b1ea4bd24f274f875ad4c9c73b90cb25f045c4",
          "blockNumber": "0x610353e",
          "transactionHash": "0x3a8ab33e59067b8f4a9412583e69c1addcd81280a9bdecbd7fb6a58864886ad0",
          "transactionIndex": "0x2",
          "logIndex": "0x23",
          "removed": false
        },
        {
          "address": "0xBA4BeedC6d4f1c582a7EDB09A0709b7AC6508296",
          "topics": [
            "0x2f8788117e7eff1d82e926ec794901d17c78024a50270940304540a733656f0d",
            "0x0af0c3ebe77999ca20698e1ff25f812bf82409a59d21ca15a41f39e0ce9f2500",
            "0x0000000000000000000000006b90f246e0057f9c289449edbe8181e46e239e5b",
            "0x000000000000000000000000a50fc8fc0b7845b07dcd00ef6bde46e5160e3835"
          ],
          "data": "0x",
          "blockHash": "0xb157d050d0967963d8f65cf7c9b1ea4bd24f274f875ad4c9c73b90cb25f045c4",
          "blockNumber": "0x610353e",
          "transactionHash": "0x3a8ab33e59067b8f4a9412583e69c1addcd81280a9bdecbd7fb6a58864886ad0",
          "transactionIndex": "0x2",
          "logIndex": "0x24",
          "removed": false
        },
        {
          "address": "0xBA4BeedC6d4f1c582a7EDB09A0709b7AC6508296",
          "topics": [
            "0x2f8788117e7eff1d82e926ec794901d17c78024a50270940304540a733656f0d",
            "0x0af0c3ebe77999ca20698e1ff25f812bf82409a59d21ca15a41f39e0ce9f2500",
            "0x0000000000000000000000001228a857fd7ee845f4999f33540f6b9d0988e80d",
            "0x000000000000000000000000a50fc8fc0b7845b07dcd00ef6bde46e5160e3835"
          ],
          "data": "0x",
          "blockHash": "0xb157d050d0967963d8f65cf7c9b1ea4bd24f274f875ad4c9c73b90cb25f045c4",
          "blockNumber": "0x610353e",
          "transactionHash": "0x3a8ab33e59067b8f4a9412583e69c1addcd81280a9bdecbd7fb6a58864886ad0",
          "transactionIndex": "0x2",
          "logIndex": "0x25",
          "removed": false
        },
        {
          "address": "0xBA4BeedC6d4f1c582a7EDB09A0709b7AC6508296",
          "topics": [
            "0x2f8788117e7eff1d82e926ec794901d17c78024a50270940304540a733656f0d",
            "0x0af0c3ebe77999ca20698e1ff25f812bf82409a59d21ca15a41f39e0ce9f2500",
            "0x000000000000000000000000d1fa3f9ba62cb251e785d2c7eddd5d0a022baae1",
            "0x000000000000000000000000a50fc8fc0b7845b07dcd00ef6bde46e5160e3835"
          ],
          "data": "0x",
          "blockHash": "0xb157d050d0967963d8f65cf7c9b1ea4bd24f274f875ad4c9c73b90cb25f045c4",
          "blockNumber": "0x610353e",
          "transactionHash": "0x3a8ab33e59067b8f4a9412583e69c1addcd81280a9bdecbd7fb6a58864886ad0",
          "transactionIndex": "0x2",
          "logIndex": "0x26",
          "removed": false
        },
        {
          "address": "0xBA4BeedC6d4f1c582a7EDB09A0709b7AC6508296",
          "topics": [
            "0x2f8788117e7eff1d82e926ec794901d17c78024a50270940304540a733656f0d",
            "0x0af0c3ebe77999ca20698e1ff25f812bf82409a59d21ca15a41f39e0ce9f2500",
            "0x0000000000000000000000003476c2e44880e020aaaeb80dcd85f7f67d20acc6",
            "0x000000000000000000000000a50fc8fc0b7845b07dcd00ef6bde46e5160e3835"
          ],
          "data": "0x",
          "blockHash": "0xb157d050d0967963d8f65cf7c9b1ea4bd24f274f875ad4c9c73b90cb25f045c4",
          "blockNumber": "0x610353e",
          "transactionHash": "0x3a8ab33e59067b8f4a9412583e69c1addcd81280a9bdecbd7fb6a58864886ad0",
          "transactionIndex": "0x2",
          "logIndex": "0x27",
          "removed": false
        },
        {
          "address": "0xBA4BeedC6d4f1c582a7EDB09A0709b7AC6508296",
          "topics": [
            "0x2f8788117e7eff1d82e926ec794901d17c78024a50270940304540a733656f0d",
            "0x0af0c3ebe77999ca20698e1ff25f812bf82409a59d21ca15a41f39e0ce9f2500",
            "0x0000000000000000000000008b5d3e6fd56488c7bc4f31b93fa2f2e219fdfb38",
            "0x000000000000000000000000a50fc8fc0b7845b07dcd00ef6bde46e5160e3835"
          ],
          "data": "0x",
          "blockHash": "0xb157d050d0967963d8f65cf7c9b1ea4bd24f274f875ad4c9c73b90cb25f045c4",
          "blockNumber": "0x610353e",
          "transactionHash": "0x3a8ab33e59067b8f4a9412583e69c1addcd81280a9bdecbd7fb6a58864886ad0",
          "transactionIndex": "0x2",
          "logIndex": "0x28",
          "removed": false
        },
        {
          "address": "0xBA4BeedC6d4f1c582a7EDB09A0709b7AC6508296",
          "topics": [
            "0x2f8788117e7eff1d82e926ec794901d17c78024a50270940304540a733656f0d",
            "0x0af0c3ebe77999ca20698e1ff25f812bf82409a59d21ca15a41f39e0ce9f2500",
            "0x000000000000000000000000a914604c82bfbebdd261cc08e72b35ac29259d8b",
            "0x000000000000000000000000a50fc8fc0b7845b07dcd00ef6bde46e5160e3835"
          ],
          "data": "0x",
          "blockHash": "0xb157d050d0967963d8f65cf7c9b1ea4bd24f274f875ad4c9c73b90cb25f045c4",
          "blockNumber": "0x610353e",
          "transactionHash": "0x3a8ab33e59067b8f4a9412583e69c1addcd81280a9bdecbd7fb6a58864886ad0",
          "transactionIndex": "0x2",
          "logIndex": "0x29",
          "removed": false
        },
        {
          "address": "0xBA4BeedC6d4f1c582a7EDB09A0709b7AC6508296",
          "topics": [
            "0x2f8788117e7eff1d82e926ec794901d17c78024a50270940304540a733656f0d",
            "0x0af0c3ebe77999ca20698e1ff25f812bf82409a59d21ca15a41f39e0ce9f2500",
            "0x0000000000000000000000007038e012b0683d8fdb38f127ebb98a01bb30da27",
            "0x000000000000000000000000a50fc8fc0b7845b07dcd00ef6bde46e5160e3835"
          ],
          "data": "0x",
          "blockHash": "0xb157d050d0967963d8f65cf7c9b1ea4bd24f274f875ad4c9c73b90cb25f045c4",
          "blockNumber": "0x610353e",
          "transactionHash": "0x3a8ab33e59067b8f4a9412583e69c1addcd81280a9bdecbd7fb6a58864886ad0",
          "transactionIndex": "0x2",
          "logIndex": "0x2a",
          "removed": false
        },
        {
          "address": "0xBA4BeedC6d4f1c582a7EDB09A0709b7AC6508296",
          "topics": [
            "0x2f8788117e7eff1d82e926ec794901d17c78024a50270940304540a733656f0d",
            "0x0af0c3ebe77999ca20698e1ff25f812bf82409a59d21ca15a41f39e0ce9f2500",
            "0x000000000000000000000000d963be28a687e21ff44c7b3eb822cce75ce95b88",
            "0x000000000000000000000000a50fc8fc0b7845b07dcd00ef6bde46e5160e3835"
          ],
          "data": "0x",
          "blockHash": "0xb157d050d0967963d8f65cf7c9b1ea4bd24f274f875ad4c9c73b90cb25f045c4",
          "blockNumber": "0x610353e",
          "transactionHash": "0x3a8ab33e59067b8f4a9412583e69c1addcd81280a9bdecbd7fb6a58864886ad0",
          "transactionIndex": "0x2",
          "logIndex": "0x2b",
          "removed": false
        },
        {
          "address": "0xBA4BeedC6d4f1c582a7EDB09A0709b7AC6508296",
          "topics": [
            "0x2f8788117e7eff1d82e926ec794901d17c78024a50270940304540a733656f0d",
            "0x0af0c3ebe77999ca20698e1ff25f812bf82409a59d21ca15a41f39e0ce9f2500",
            "0x000000000000000000000000f733f39134debb3ec637d7cdd9463a5687ab893c",
            "0x000000000000000000000000a50fc8fc0b7845b07dcd00ef6bde46e5160e3835"
          ],
          "data": "0x",
          "blockHash": "0xb157d050d0967963d8f65cf7c9b1ea4bd24f274f875ad4c9c73b90cb25f045c4",
          "blockNumber": "0x610353e",
          "transactionHash": "0x3a8ab33e59067b8f4a9412583e69c1addcd81280a9bdecbd7fb6a58864886ad0",
          "transactionIndex": "0x2",
          "logIndex": "0x2c",
          "removed": false
        },
        {
          "address": "0xBA4BeedC6d4f1c582a7EDB09A0709b7AC6508296",
          "topics": [
            "0x2f8788117e7eff1d82e926ec794901d17c78024a50270940304540a733656f0d",
            "0x0af0c3ebe77999ca20698e1ff25f812bf82409a59d21ca15a41f39e0ce9f2500",
            "0x000000000000000000000000e4682c269248f3d9efe7c8ec1a9c73ebdc185b2e",
            "0x000000000000000000000000a50fc8fc0b7845b07dcd00ef6bde46e5160e3835"
          ],
          "data": "0x",
          "blockHash": "0xb157d050d0967963d8f65cf7c9b1ea4bd24f274f875ad4c9c73b90cb25f045c4",
          "blockNumber": "0x610353e",
          "transactionHash": "0x3a8ab33e59067b8f4a9412583e69c1addcd81280a9bdecbd7fb6a58864886ad0",
          "transactionIndex": "0x2",
          "logIndex": "0x2d",
          "removed": false
        },
        {
          "address": "0xBA4BeedC6d4f1c582a7EDB09A0709b7AC6508296",
          "topics": [
            "0x2f8788117e7eff1d82e926ec794901d17c78024a50270940304540a733656f0d",
            "0x0af0c3ebe77999ca20698e1ff25f812bf82409a59d21ca15a41f39e0ce9f2500",
            "0x000000000000000000000000e5ea58e6531e63c7bb58353f08a492acc8b5eeb6",
            "0x000000000000000000000000a50fc8fc0b7845b07dcd00ef6bde46e5160e3835"
          ],
          "data": "0x",
          "blockHash": "0xb157d050d0967963d8f65cf7c9b1ea4bd24f274f875ad4c9c73b90cb25f045c4",
          "blockNumber": "0x610353e",
          "transactionHash": "0x3a8ab33e59067b8f4a9412583e69c1addcd81280a9bdecbd7fb6a58864886ad0",
          "transactionIndex": "0x2",
          "logIndex": "0x2e",
          "removed": false
        },
        {
          "address": "0xBA4BeedC6d4f1c582a7EDB09A0709b7AC6508296",
          "topics": [
            "0x2f8788117e7eff1d82e926ec794901d17c78024a50270940304540a733656f0d",
            "0x0af0c3ebe77999ca20698e1ff25f812bf82409a59d21ca15a41f39e0ce9f2500",
            "0x000000000000000000000000b3639bcf727216c353b78c2415878b7e52286d44",
            "0x000000000000000000000000a50fc8fc0b7845b07dcd00ef6bde46e5160e3835"
          ],
          "data": "0x",
          "blockHash": "0xb157d050d0967963d8f65cf7c9b1ea4bd24f274f875ad4c9c73b90cb25f045c4",
          "blockNumber": "0x610353e",
          "transactionHash": "0x3a8ab33e59067b8f4a9412583e69c1addcd81280a9bdecbd7fb6a58864886ad0",
          "transactionIndex": "0x2",
          "logIndex": "0x2f",
          "removed": false
        },
        {
          "address": "0xBA4BeedC6d4f1c582a7EDB09A0709b7AC6508296",
          "topics": [
            "0x2f8788117e7eff1d82e926ec794901d17c78024a50270940304540a733656f0d",
            "0x0af0c3ebe77999ca20698e1ff25f812bf82409a59d21ca15a41f39e0ce9f2500",
            "0x000000000000000000000000c8ba5a463895b09f8362977be63c48022caaeac7",
            "0x000000000000000000000000a50fc8fc0b7845b07dcd00ef6bde46e5160e3835"
          ],
          "data": "0x",
          "blockHash": "0xb157d050d0967963d8f65cf7c9b1ea4bd24f274f875ad4c9c73b90cb25f045c4",
          "blockNumber": "0x610353e",
          "transactionHash": "0x3a8ab33e59067b8f4a9412583e69c1addcd81280a9bdecbd7fb6a58864886ad0",
          "transactionIndex": "0x2",
          "logIndex": "0x30",
          "removed": false
        },
        {
          "address": "0xBA4BeedC6d4f1c582a7EDB09A0709b7AC6508296",
          "topics": [
            "0x2f8788117e7eff1d82e926ec794901d17c78024a50270940304540a733656f0d",
            "0x0af0c3ebe77999ca20698e1ff25f812bf82409a59d21ca15a41f39e0ce9f2500",
            "0x000000000000000000000000bd76c6487dabef207470afdb6f332c0432482f45",
            "0x000000000000000000000000a50fc8fc0b7845b07dcd00ef6bde46e5160e3835"
          ],
          "data": "0x",
          "blockHash": "0xb157d050d0967963d8f65cf7c9b1ea4bd24f274f875ad4c9c73b90cb25f045c4",
          "blockNumber": "0x610353e",
          "transactionHash": "0x3a8ab33e59067b8f4a9412583e69c1addcd81280a9bdecbd7fb6a58864886ad0",
          "transactionIndex": "0x2",
          "logIndex": "0x31",
          "removed": false
        },
        {
          "address": "0xBA4BeedC6d4f1c582a7EDB09A0709b7AC6508296",
          "topics": [
            "0x2f8788117e7eff1d82e926ec794901d17c78024a50270940304540a733656f0d",
            "0x0af0c3ebe77999ca20698e1ff25f812bf82409a59d21ca15a41f39e0ce9f2500",
            "0x0000000000000000000000002412bd7681b71010a1cd90057dee4158ec86f08c",
            "0x000000000000000000000000a50fc8fc0b7845b07dcd00ef6bde46e5160e3835"
          ],
          "data": "0x",
          "blockHash": "0xb157d050d0967963d8f65cf7c9b1ea4bd24f274f875ad4c9c73b90cb25f045c4",
          "blockNumber": "0x610353e",
          "transactionHash": "0x3a8ab33e59067b8f4a9412583e69c1addcd81280a9bdecbd7fb6a58864886ad0",
          "transactionIndex": "0x2",
          "logIndex": "0x32",
          "removed": false
        },
        {
          "address": "0xBA4BeedC6d4f1c582a7EDB09A0709b7AC6508296",
          "topics": [
            "0x2f8788117e7eff1d82e926ec794901d17c78024a50270940304540a733656f0d",
            "0x0af0c3ebe77999ca20698e1ff25f812bf82409a59d21ca15a41f39e0ce9f2500",
            "0x0000000000000000000000003753e2ede1fb49cc203f9c3e598b18665fb55d2a",
            "0x000000000000000000000000a50fc8fc0b7845b07dcd00ef6bde46e5160e3835"
          ],
          "data": "0x",
          "blockHash": "0xb157d050d0967963d8f65cf7c9b1ea4bd24f274f875ad4c9c73b90cb25f045c4",
          "blockNumber": "0x610353e",
          "transactionHash": "0x3a8ab33e59067b8f4a9412583e69c1addcd81280a9bdecbd7fb6a58864886ad0",
          "transactionIndex": "0x2",
          "logIndex": "0x33",
          "removed": false
        },
        {
          "address": "0xBA4BeedC6d4f1c582a7EDB09A0709b7AC6508296",
          "topics": [
            "0x2f8788117e7eff1d82e926ec794901d17c78024a50270940304540a733656f0d",
            "0x0af0c3ebe77999ca20698e1ff25f812bf82409a59d21ca15a41f39e0ce9f2500",
            "0x000000000000000000000000b4fb31e7b1471a8e52dd1e962a281a732ead59c1",
            "0x000000000000000000000000a50fc8fc0b7845b07dcd00ef6bde46e5160e3835"
          ],
          "data": "0x",
          "blockHash": "0xb157d050d0967963d8f65cf7c9b1ea4bd24f274f875ad4c9c73b90cb25f045c4",
          "blockNumber": "0x610353e",
          "transactionHash": "0x3a8ab33e59067b8f4a9412583e69c1addcd81280a9bdecbd7fb6a58864886ad0",
          "transactionIndex": "0x2",
          "logIndex": "0x34",
          "removed": false
        },
        {
          "address": "0xBA4BeedC6d4f1c582a7EDB09A0709b7AC6508296",
          "topics": [
            "0x2f8788117e7eff1d82e926ec794901d17c78024a50270940304540a733656f0d",
            "0x0af0c3ebe77999ca20698e1ff25f812bf82409a59d21ca15a41f39e0ce9f2500",
            "0x0000000000000000000000006b2ea72ba8a7346cedd2dd5dc1476ea8df0b57d7",
            "0x000000000000000000000000a50fc8fc0b7845b07dcd00ef6bde46e5160e3835"
          ],
          "data": "0x",
          "blockHash": "0xb157d050d0967963d8f65cf7c9b1ea4bd24f274f875ad4c9c73b90cb25f045c4",
          "blockNumber": "0x610353e",
          "transactionHash": "0x3a8ab33e59067b8f4a9412583e69c1addcd81280a9bdecbd7fb6a58864886ad0",
          "transactionIndex": "0x2",
          "logIndex": "0x35",
          "removed": false
        },
        {
          "address": "0xBA4BeedC6d4f1c582a7EDB09A0709b7AC6508296",
          "topics": [
            "0x2f8788117e7eff1d82e926ec794901d17c78024a50270940304540a733656f0d",
            "0x0af0c3ebe77999ca20698e1ff25f812bf82409a59d21ca15a41f39e0ce9f2500",
            "0x00000000000000000000000047671c4d89abb81eff18cc69839c634af408e8af",
            "0x000000000000000000000000a50fc8fc0b7845b07dcd00ef6bde46e5160e3835"
          ],
          "data": "0x",
          "blockHash": "0xb157d050d0967963d8f65cf7c9b1ea4bd24f274f875ad4c9c73b90cb25f045c4",
          "blockNumber": "0x610353e",
          "transactionHash": "0x3a8ab33e59067b8f4a9412583e69c1addcd81280a9bdecbd7fb6a58864886ad0",
          "transactionIndex": "0x2",
          "logIndex": "0x36",
          "removed": false
        },
        {
          "address": "0xBA4BeedC6d4f1c582a7EDB09A0709b7AC6508296",
          "topics": [
            "0x2f8788117e7eff1d82e926ec794901d17c78024a50270940304540a733656f0d",
            "0x0af0c3ebe77999ca20698e1ff25f812bf82409a59d21ca15a41f39e0ce9f2500",
            "0x000000000000000000000000049808d5eaa90a2665b9703d2246dded34f1eb73",
            "0x000000000000000000000000a50fc8fc0b7845b07dcd00ef6bde46e5160e3835"
          ],
          "data": "0x",
          "blockHash": "0xb157d050d0967963d8f65cf7c9b1ea4bd24f274f875ad4c9c73b90cb25f045c4",
          "blockNumber": "0x610353e",
          "transactionHash": "0x3a8ab33e59067b8f4a9412583e69c1addcd81280a9bdecbd7fb6a58864886ad0",
          "transactionIndex": "0x2",
          "logIndex": "0x37",
          "removed": false
        },
        {
          "address": "0xBA4BeedC6d4f1c582a7EDB09A0709b7AC6508296",
          "topics": [
            "0x2f8788117e7eff1d82e926ec794901d17c78024a50270940304540a733656f0d",
            "0x0af0c3ebe77999ca20698e1ff25f812bf82409a59d21ca15a41f39e0ce9f2500",
            "0x000000000000000000000000300f818133cb321b1099cbd845044390f37e2e22",
            "0x000000000000000000000000a50fc8fc0b7845b07dcd00ef6bde46e5160e3835"
          ],
          "data": "0x",
          "blockHash": "0xb157d050d0967963d8f65cf7c9b1ea4bd24f274f875ad4c9c73b90cb25f045c4",
          "blockNumber": "0x610353e",
          "transactionHash": "0x3a8ab33e59067b8f4a9412583e69c1addcd81280a9bdecbd7fb6a58864886ad0",
          "transactionIndex": "0x2",
          "logIndex": "0x38",
          "removed": false
        },
        {
          "address": "0xBA4BeedC6d4f1c582a7EDB09A0709b7AC6508296",
          "topics": [
            "0x2f8788117e7eff1d82e926ec794901d17c78024a50270940304540a733656f0d",
            "0x0af0c3ebe77999ca20698e1ff25f812bf82409a59d21ca15a41f39e0ce9f2500",
            "0x0000000000000000000000006b5b5f2de5fb8ac403c2632a21b55efc4dcc1ed3",
            "0x000000000000000000000000a50fc8fc0b7845b07dcd00ef6bde46e5160e3835"
          ],
          "data": "0x",
          "blockHash": "0xb157d050d0967963d8f65cf7c9b1ea4bd24f274f875ad4c9c73b90cb25f045c4",
          "blockNumber": "0x610353e",
          "transactionHash": "0x3a8ab33e59067b8f4a9412583e69c1addcd81280a9bdecbd7fb6a58864886ad0",
          "transactionIndex": "0x2",
          "logIndex": "0x39",
          "removed": false
        },
        {
          "address": "0xBA4BeedC6d4f1c582a7EDB09A0709b7AC6508296",
          "topics": [
            "0x2f8788117e7eff1d82e926ec794901d17c78024a50270940304540a733656f0d",
            "0x0af0c3ebe77999ca20698e1ff25f812bf82409a59d21ca15a41f39e0ce9f2500",
            "0x0000000000000000000000008f7ff55ba9880a740a30e75f99e8991cbc382d7b",
            "0x000000000000000000000000a50fc8fc0b7845b07dcd00ef6bde46e5160e3835"
          ],
          "data": "0x",
          "blockHash": "0xb157d050d0967963d8f65cf7c9b1ea4bd24f274f875ad4c9c73b90cb25f045c4",
          "blockNumber": "0x610353e",
          "transactionHash": "0x3a8ab33e59067b8f4a9412583e69c1addcd81280a9bdecbd7fb6a58864886ad0",
          "transactionIndex": "0x2",
          "logIndex": "0x3a",
          "removed": false
        },
        {
          "address": "0xBA4BeedC6d4f1c582a7EDB09A0709b7AC6508296",
          "topics": [
            "0x2f8788117e7eff1d82e926ec794901d17c78024a50270940304540a733656f0d",
            "0x0af0c3ebe77999ca20698e1ff25f812bf82409a59d21ca15a41f39e0ce9f2500",
            "0x00000000000000000000000016623d088c54a11afa30faf98f778fbd7f7fb61f",
            "0x000000000000000000000000a50fc8fc0b7845b07dcd00ef6bde46e5160e3835"
          ],
          "data": "0x",
          "blockHash": "0xb157d050d0967963d8f65cf7c9b1ea4bd24f274f875ad4c9c73b90cb25f045c4",
          "blockNumber": "0x610353e",
          "transactionHash": "0x3a8ab33e59067b8f4a9412583e69c1addcd81280a9bdecbd7fb6a58864886ad0",
          "transactionIndex": "0x2",
          "logIndex": "0x3b",
          "removed": false
        },
        {
          "address": "0xBA4BeedC6d4f1c582a7EDB09A0709b7AC6508296",
          "topics": [
            "0x2f8788117e7eff1d82e926ec794901d17c78024a50270940304540a733656f0d",
            "0x0af0c3ebe77999ca20698e1ff25f812bf82409a59d21ca15a41f39e0ce9f2500",
            "0x000000000000000000000000ab888291f4127352b655fd476f64ac2ebfb8fe76",
            "0x000000000000000000000000a50fc8fc0b7845b07dcd00ef6bde46e5160e3835"
          ],
          "data": "0x",
          "blockHash": "0xb157d050d0967963d8f65cf7c9b1ea4bd24f274f875ad4c9c73b90cb25f045c4",
          "blockNumber": "0x610353e",
          "transactionHash": "0x3a8ab33e59067b8f4a9412583e69c1addcd81280a9bdecbd7fb6a58864886ad0",
          "transactionIndex": "0x2",
          "logIndex": "0x3c",
          "removed": false
        },
        {
          "address": "0xBA4BeedC6d4f1c582a7EDB09A0709b7AC6508296",
          "topics": [
            "0x2f8788117e7eff1d82e926ec794901d17c78024a50270940304540a733656f0d",
            "0x0af0c3ebe77999ca20698e1ff25f812bf82409a59d21ca15a41f39e0ce9f2500",
            "0x0000000000000000000000007c6cc4fc9f054f851aa9ae3577087f00e017db5a",
            "0x000000000000000000000000a50fc8fc0b7845b07dcd00ef6bde46e5160e3835"
          ],
          "data": "0x",
          "blockHash": "0xb157d050d0967963d8f65cf7c9b1ea4bd24f274f875ad4c9c73b90cb25f045c4",
          "blockNumber": "0x610353e",
          "transactionHash": "0x3a8ab33e59067b8f4a9412583e69c1addcd81280a9bdecbd7fb6a58864886ad0",
          "transactionIndex": "0x2",
          "logIndex": "0x3d",
          "removed": false
        },
        {
          "address": "0xBA4BeedC6d4f1c582a7EDB09A0709b7AC6508296",
          "topics": [
            "0x2f8788117e7eff1d82e926ec794901d17c78024a50270940304540a733656f0d",
            "0x0af0c3ebe77999ca20698e1ff25f812bf82409a59d21ca15a41f39e0ce9f2500",
            "0x000000000000000000000000629862337fddf4d18c543dbaa9b3b7b441900fb5",
            "0x000000000000000000000000a50fc8fc0b7845b07dcd00ef6bde46e5160e3835"
          ],
          "data": "0x",
          "blockHash": "0xb157d050d0967963d8f65cf7c9b1ea4bd24f274f875ad4c9c73b90cb25f045c4",
          "blockNumber": "0x610353e",
          "transactionHash": "0x3a8ab33e59067b8f4a9412583e69c1addcd81280a9bdecbd7fb6a58864886ad0",
          "transactionIndex": "0x2",
          "logIndex": "0x3e",
          "removed": false
        },
        {
          "address": "0xBA4BeedC6d4f1c582a7EDB09A0709b7AC6508296",
          "topics": [
            "0x2f8788117e7eff1d82e926ec794901d17c78024a50270940304540a733656f0d",
            "0x0af0c3ebe77999ca20698e1ff25f812bf82409a59d21ca15a41f39e0ce9f2500",
            "0x0000000000000000000000003bb20140af8858a94c9693244e517ff304299085",
            "0x000000000000000000000000a50fc8fc0b7845b07dcd00ef6bde46e5160e3835"
          ],
          "data": "0x",
          "blockHash": "0xb157d050d0967963d8f65cf7c9b1ea4bd24f274f875ad4c9c73b90cb25f045c4",
          "blockNumber": "0x610353e",
          "transactionHash": "0x3a8ab33e59067b8f4a9412583e69c1addcd81280a9bdecbd7fb6a58864886ad0",
          "transactionIndex": "0x2",
          "logIndex": "0x3f",
          "removed": false
        },
        {
          "address": "0xBA4BeedC6d4f1c582a7EDB09A0709b7AC6508296",
          "topics": [
            "0x2f8788117e7eff1d82e926ec794901d17c78024a50270940304540a733656f0d",
            "0x0af0c3ebe77999ca20698e1ff25f812bf82409a59d21ca15a41f39e0ce9f2500",
            "0x000000000000000000000000e6f4ccac6bbc030f4b4735fb9dbd68526096ce3d",
            "0x000000000000000000000000a50fc8fc0b7845b07dcd00ef6bde46e5160e3835"
          ],
          "data": "0x",
          "blockHash": "0xb157d050d0967963d8f65cf7c9b1ea4bd24f274f875ad4c9c73b90cb25f045c4",
          "blockNumber": "0x610353e",
          "transactionHash": "0x3a8ab33e59067b8f4a9412583e69c1addcd81280a9bdecbd7fb6a58864886ad0",
          "transactionIndex": "0x2",
          "logIndex": "0x40",
          "removed": false
        },
        {
          "address": "0xBA4BeedC6d4f1c582a7EDB09A0709b7AC6508296",
          "topics": [
            "0x2f8788117e7eff1d82e926ec794901d17c78024a50270940304540a733656f0d",
            "0x0af0c3ebe77999ca20698e1ff25f812bf82409a59d21ca15a41f39e0ce9f2500",
            "0x000000000000000000000000e3f186478e9dcd416e3568e56e4153645144093a",
            "0x000000000000000000000000a50fc8fc0b7845b07dcd00ef6bde46e5160e3835"
          ],
          "data": "0x",
          "blockHash": "0xb157d050d0967963d8f65cf7c9b1ea4bd24f274f875ad4c9c73b90cb25f045c4",
          "blockNumber": "0x610353e",
          "transactionHash": "0x3a8ab33e59067b8f4a9412583e69c1addcd81280a9bdecbd7fb6a58864886ad0",
          "transactionIndex": "0x2",
          "logIndex": "0x41",
          "removed": false
        },
        {
          "address": "0xBA4BeedC6d4f1c582a7EDB09A0709b7AC6508296",
          "topics": [
            "0x2f8788117e7eff1d82e926ec794901d17c78024a50270940304540a733656f0d",
            "0x0af0c3ebe77999ca20698e1ff25f812bf82409a59d21ca15a41f39e0ce9f2500",
            "0x000000000000000000000000232e03cc440ad5158bd38636607f0e0ad62a01c2",
            "0x000000000000000000000000a50fc8fc0b7845b07dcd00ef6bde46e5160e3835"
          ],
          "data": "0x",
          "blockHash": "0xb157d050d0967963d8f65cf7c9b1ea4bd24f274f875ad4c9c73b90cb25f045c4",
          "blockNumber": "0x610353e",
          "transactionHash": "0x3a8ab33e59067b8f4a9412583e69c1addcd81280a9bdecbd7fb6a58864886ad0",
          "transactionIndex": "0x2",
          "logIndex": "0x42",
          "removed": false
        },
        {
          "address": "0xBA4BeedC6d4f1c582a7EDB09A0709b7AC6508296",
          "topics": [
            "0x2f8788117e7eff1d82e926ec794901d17c78024a50270940304540a733656f0d",
            "0x0af0c3ebe77999ca20698e1ff25f812bf82409a59d21ca15a41f39e0ce9f2500",
            "0x00000000000000000000000005a2e50c5e4d724897b67b708db432a38c985f83",
            "0x000000000000000000000000a50fc8fc0b7845b07dcd00ef6bde46e5160e3835"
          ],
          "data": "0x",
          "blockHash": "0xb157d050d0967963d8f65cf7c9b1ea4bd24f274f875ad4c9c73b90cb25f045c4",
          "blockNumber": "0x610353e",
          "transactionHash": "0x3a8ab33e59067b8f4a9412583e69c1addcd81280a9bdecbd7fb6a58864886ad0",
          "transactionIndex": "0x2",
          "logIndex": "0x43",
          "removed": false
        },
        {
          "address": "0xBA4BeedC6d4f1c582a7EDB09A0709b7AC6508296",
          "topics": [
            "0x2f8788117e7eff1d82e926ec794901d17c78024a50270940304540a733656f0d",
            "0x0af0c3ebe77999ca20698e1ff25f812bf82409a59d21ca15a41f39e0ce9f2500",
            "0x0000000000000000000000002be1a753b1c0562c4cf35a24f6f62619961ceb53",
            "0x000000000000000000000000a50fc8fc0b7845b07dcd00ef6bde46e5160e3835"
          ],
          "data": "0x",
          "blockHash": "0xb157d050d0967963d8f65cf7c9b1ea4bd24f274f875ad4c9c73b90cb25f045c4",
          "blockNumber": "0x610353e",
          "transactionHash": "0x3a8ab33e59067b8f4a9412583e69c1addcd81280a9bdecbd7fb6a58864886ad0",
          "transactionIndex": "0x2",
          "logIndex": "0x44",
          "removed": false
        },
        {
          "address": "0xBA4BeedC6d4f1c582a7EDB09A0709b7AC6508296",
          "topics": [
            "0x2f8788117e7eff1d82e926ec794901d17c78024a50270940304540a733656f0d",
            "0x0af0c3ebe77999ca20698e1ff25f812bf82409a59d21ca15a41f39e0ce9f2500",
            "0x0000000000000000000000000ca6cadb6a8ca4199788b9a060c3285fe7b897fd",
            "0x000000000000000000000000a50fc8fc0b7845b07dcd00ef6bde46e5160e3835"
          ],
          "data": "0x",
          "blockHash": "0xb157d050d0967963d8f65cf7c9b1ea4bd24f274f875ad4c9c73b90cb25f045c4",
          "blockNumber": "0x610353e",
          "transactionHash": "0x3a8ab33e59067b8f4a9412583e69c1addcd81280a9bdecbd7fb6a58864886ad0",
          "transactionIndex": "0x2",
          "logIndex": "0x45",
          "removed": false
        },
        {
          "address": "0xBA4BeedC6d4f1c582a7EDB09A0709b7AC6508296",
          "topics": [
            "0x2f8788117e7eff1d82e926ec794901d17c78024a50270940304540a733656f0d",
            "0x0af0c3ebe77999ca20698e1ff25f812bf82409a59d21ca15a41f39e0ce9f2500",
            "0x000000000000000000000000c44fd102415ff62769a4e37c70dea27033a5291f",
            "0x000000000000000000000000a50fc8fc0b7845b07dcd00ef6bde46e5160e3835"
          ],
          "data": "0x",
          "blockHash": "0xb157d050d0967963d8f65cf7c9b1ea4bd24f274f875ad4c9c73b90cb25f045c4",
          "blockNumber": "0x610353e",
          "transactionHash": "0x3a8ab33e59067b8f4a9412583e69c1addcd81280a9bdecbd7fb6a58864886ad0",
          "transactionIndex": "0x2",
          "logIndex": "0x46",
          "removed": false
        },
        {
          "address": "0xBA4BeedC6d4f1c582a7EDB09A0709b7AC6508296",
          "topics": [
            "0x2f8788117e7eff1d82e926ec794901d17c78024a50270940304540a733656f0d",
            "0x0af0c3ebe77999ca20698e1ff25f812bf82409a59d21ca15a41f39e0ce9f2500",
            "0x000000000000000000000000473d3a2005499301dc353afa9d0c9c5980b5188c",
            "0x000000000000000000000000a50fc8fc0b7845b07dcd00ef6bde46e5160e3835"
          ],
          "data": "0x",
          "blockHash": "0xb157d050d0967963d8f65cf7c9b1ea4bd24f274f875ad4c9c73b90cb25f045c4",
          "blockNumber": "0x610353e",
          "transactionHash": "0x3a8ab33e59067b8f4a9412583e69c1addcd81280a9bdecbd7fb6a58864886ad0",
          "transactionIndex": "0x2",
          "logIndex": "0x47",
          "removed": false
        },
        {
          "address": "0xBA4BeedC6d4f1c582a7EDB09A0709b7AC6508296",
          "topics": [
            "0x2f8788117e7eff1d82e926ec794901d17c78024a50270940304540a733656f0d",
            "0x0af0c3ebe77999ca20698e1ff25f812bf82409a59d21ca15a41f39e0ce9f2500",
            "0x0000000000000000000000007c43a9c3b85619be2f7c0a4d676ecd373f63b73c",
            "0x000000000000000000000000a50fc8fc0b7845b07dcd00ef6bde46e5160e3835"
          ],
          "data": "0x",
          "blockHash": "0xb157d050d0967963d8f65cf7c9b1ea4bd24f274f875ad4c9c73b90cb25f045c4",
          "blockNumber": "0x610353e",
          "transactionHash": "0x3a8ab33e59067b8f4a9412583e69c1addcd81280a9bdecbd7fb6a58864886ad0",
          "transactionIndex": "0x2",
          "logIndex": "0x48",
          "removed": false
        },
        {
          "address": "0xBA4BeedC6d4f1c582a7EDB09A0709b7AC6508296",
          "topics": [
            "0x2f8788117e7eff1d82e926ec794901d17c78024a50270940304540a733656f0d",
            "0x0af0c3ebe77999ca20698e1ff25f812bf82409a59d21ca15a41f39e0ce9f2500",
            "0x00000000000000000000000048cd090c9e8a9954b0955c8b87754031d90c4955",
            "0x000000000000000000000000a50fc8fc0b7845b07dcd00ef6bde46e5160e3835"
          ],
          "data": "0x",
          "blockHash": "0xb157d050d0967963d8f65cf7c9b1ea4bd24f274f875ad4c9c73b90cb25f045c4",
          "blockNumber": "0x610353e",
          "transactionHash": "0x3a8ab33e59067b8f4a9412583e69c1addcd81280a9bdecbd7fb6a58864886ad0",
          "transactionIndex": "0x2",
          "logIndex": "0x49",
          "removed": false
        },
        {
          "address": "0xBA4BeedC6d4f1c582a7EDB09A0709b7AC6508296",
          "topics": [
            "0x2f8788117e7eff1d82e926ec794901d17c78024a50270940304540a733656f0d",
            "0x0af0c3ebe77999ca20698e1ff25f812bf82409a59d21ca15a41f39e0ce9f2500",
            "0x00000000000000000000000061e60af04805d7ddfb0cfde0a96a3b1c15f3748f",
            "0x000000000000000000000000a50fc8fc0b7845b07dcd00ef6bde46e5160e3835"
          ],
          "data": "0x",
          "blockHash": "0xb157d050d0967963d8f65cf7c9b1ea4bd24f274f875ad4c9c73b90cb25f045c4",
          "blockNumber": "0x610353e",
          "transactionHash": "0x3a8ab33e59067b8f4a9412583e69c1addcd81280a9bdecbd7fb6a58864886ad0",
          "transactionIndex": "0x2",
          "logIndex": "0x4a",
          "removed": false
        },
        {
          "address": "0xBA4BeedC6d4f1c582a7EDB09A0709b7AC6508296",
          "topics": [
            "0x2f8788117e7eff1d82e926ec794901d17c78024a50270940304540a733656f0d",
            "0x0af0c3ebe77999ca20698e1ff25f812bf82409a59d21ca15a41f39e0ce9f2500",
            "0x0000000000000000000000008f0568899653dc5853954cc02b29c37862982148",
            "0x000000000000000000000000a50fc8fc0b7845b07dcd00ef6bde46e5160e3835"
          ],
          "data": "0x",
          "blockHash": "0xb157d050d0967963d8f65cf7c9b1ea4bd24f274f875ad4c9c73b90cb25f045c4",
          "blockNumber": "0x610353e",
          "transactionHash": "0x3a8ab33e59067b8f4a9412583e69c1addcd81280a9bdecbd7fb6a58864886ad0",
          "transactionIndex": "0x2",
          "logIndex": "0x4b",
          "removed": false
        },
        {
          "address": "0xBA4BeedC6d4f1c582a7EDB09A0709b7AC6508296",
          "topics": [
            "0x2f8788117e7eff1d82e926ec794901d17c78024a50270940304540a733656f0d",
            "0x0af0c3ebe77999ca20698e1ff25f812bf82409a59d21ca15a41f39e0ce9f2500",
            "0x000000000000000000000000de28e623b919b4a5280ed97759d3b8e741ea8ff3",
            "0x000000000000000000000000a50fc8fc0b7845b07dcd00ef6bde46e5160e3835"
          ],
          "data": "0x",
          "blockHash": "0xb157d050d0967963d8f65cf7c9b1ea4bd24f274f875ad4c9c73b90cb25f045c4",
          "blockNumber": "0x610353e",
          "transactionHash": "0x3a8ab33e59067b8f4a9412583e69c1addcd81280a9bdecbd7fb6a58864886ad0",
          "transactionIndex": "0x2",
          "logIndex": "0x4c",
          "removed": false
        },
        {
          "address": "0xBA4BeedC6d4f1c582a7EDB09A0709b7AC6508296",
          "topics": [
            "0x2f8788117e7eff1d82e926ec794901d17c78024a50270940304540a733656f0d",
            "0x0af0c3ebe77999ca20698e1ff25f812bf82409a59d21ca15a41f39e0ce9f2500",
            "0x000000000000000000000000eae1e7bdaaadc6d4e0892b0defba3f0111354248",
            "0x000000000000000000000000a50fc8fc0b7845b07dcd00ef6bde46e5160e3835"
          ],
          "data": "0x",
          "blockHash": "0xb157d050d0967963d8f65cf7c9b1ea4bd24f274f875ad4c9c73b90cb25f045c4",
          "blockNumber": "0x610353e",
          "transactionHash": "0x3a8ab33e59067b8f4a9412583e69c1addcd81280a9bdecbd7fb6a58864886ad0",
          "transactionIndex": "0x2",
          "logIndex": "0x4d",
          "removed": false
        },
        {
          "address": "0xBA4BeedC6d4f1c582a7EDB09A0709b7AC6508296",
          "topics": [
            "0x2f8788117e7eff1d82e926ec794901d17c78024a50270940304540a733656f0d",
            "0x0af0c3ebe77999ca20698e1ff25f812bf82409a59d21ca15a41f39e0ce9f2500",
            "0x0000000000000000000000002a1bbcdff7a047d82fc8829faa0d13a8d2cf1dbe",
            "0x000000000000000000000000a50fc8fc0b7845b07dcd00ef6bde46e5160e3835"
          ],
          "data": "0x",
          "blockHash": "0xb157d050d0967963d8f65cf7c9b1ea4bd24f274f875ad4c9c73b90cb25f045c4",
          "blockNumber": "0x610353e",
          "transactionHash": "0x3a8ab33e59067b8f4a9412583e69c1addcd81280a9bdecbd7fb6a58864886ad0",
          "transactionIndex": "0x2",
          "logIndex": "0x4e",
          "removed": false
        },
        {
          "address": "0xBA4BeedC6d4f1c582a7EDB09A0709b7AC6508296",
          "topics": [
            "0x2f8788117e7eff1d82e926ec794901d17c78024a50270940304540a733656f0d",
            "0x0af0c3ebe77999ca20698e1ff25f812bf82409a59d21ca15a41f39e0ce9f2500",
            "0x0000000000000000000000009a54971b7a4c17e93fcffb4cb11e792065e15d44",
            "0x000000000000000000000000a50fc8fc0b7845b07dcd00ef6bde46e5160e3835"
          ],
          "data": "0x",
          "blockHash": "0xb157d050d0967963d8f65cf7c9b1ea4bd24f274f875ad4c9c73b90cb25f045c4",
          "blockNumber": "0x610353e",
          "transactionHash": "0x3a8ab33e59067b8f4a9412583e69c1addcd81280a9bdecbd7fb6a58864886ad0",
          "transactionIndex": "0x2",
          "logIndex": "0x4f",
          "removed": false
        },
        {
          "address": "0xBA4BeedC6d4f1c582a7EDB09A0709b7AC6508296",
          "topics": [
            "0x2f8788117e7eff1d82e926ec794901d17c78024a50270940304540a733656f0d",
            "0x0af0c3ebe77999ca20698e1ff25f812bf82409a59d21ca15a41f39e0ce9f2500",
            "0x0000000000000000000000003f2228945c85663b54677db97da44dbde71744ae",
            "0x000000000000000000000000a50fc8fc0b7845b07dcd00ef6bde46e5160e3835"
          ],
          "data": "0x",
          "blockHash": "0xb157d050d0967963d8f65cf7c9b1ea4bd24f274f875ad4c9c73b90cb25f045c4",
          "blockNumber": "0x610353e",
          "transactionHash": "0x3a8ab33e59067b8f4a9412583e69c1addcd81280a9bdecbd7fb6a58864886ad0",
          "transactionIndex": "0x2",
          "logIndex": "0x50",
          "removed": false
        },
        {
          "address": "0xBA4BeedC6d4f1c582a7EDB09A0709b7AC6508296",
          "topics": [
            "0x2f8788117e7eff1d82e926ec794901d17c78024a50270940304540a733656f0d",
            "0x0af0c3ebe77999ca20698e1ff25f812bf82409a59d21ca15a41f39e0ce9f2500",
            "0x0000000000000000000000001eeb5ecbb50e4cd52de4f81d7c07d3fd6ce2e9fc",
            "0x000000000000000000000000a50fc8fc0b7845b07dcd00ef6bde46e5160e3835"
          ],
          "data": "0x",
          "blockHash": "0xb157d050d0967963d8f65cf7c9b1ea4bd24f274f875ad4c9c73b90cb25f045c4",
          "blockNumber": "0x610353e",
          "transactionHash": "0x3a8ab33e59067b8f4a9412583e69c1addcd81280a9bdecbd7fb6a58864886ad0",
          "transactionIndex": "0x2",
          "logIndex": "0x51",
          "removed": false
        },
        {
          "address": "0xBA4BeedC6d4f1c582a7EDB09A0709b7AC6508296",
          "topics": [
            "0x2f8788117e7eff1d82e926ec794901d17c78024a50270940304540a733656f0d",
            "0x0af0c3ebe77999ca20698e1ff25f812bf82409a59d21ca15a41f39e0ce9f2500",
            "0x000000000000000000000000b05cf01231cf2ff99499682e64d3780d57c80fdd",
            "0x000000000000000000000000a50fc8fc0b7845b07dcd00ef6bde46e5160e3835"
          ],
          "data": "0x",
          "blockHash": "0xb157d050d0967963d8f65cf7c9b1ea4bd24f274f875ad4c9c73b90cb25f045c4",
          "blockNumber": "0x610353e",
          "transactionHash": "0x3a8ab33e59067b8f4a9412583e69c1addcd81280a9bdecbd7fb6a58864886ad0",
          "transactionIndex": "0x2",
          "logIndex": "0x52",
          "removed": false
        },
        {
          "address": "0xBA4BeedC6d4f1c582a7EDB09A0709b7AC6508296",
          "topics": [
            "0x2f8788117e7eff1d82e926ec794901d17c78024a50270940304540a733656f0d",
            "0x0af0c3ebe77999ca20698e1ff25f812bf82409a59d21ca15a41f39e0ce9f2500",
            "0x000000000000000000000000b6f6db1f7eba57094ebc3891904bb5b34778db67",
            "0x000000000000000000000000a50fc8fc0b7845b07dcd00ef6bde46e5160e3835"
          ],
          "data": "0x",
          "blockHash": "0xb157d050d0967963d8f65cf7c9b1ea4bd24f274f875ad4c9c73b90cb25f045c4",
          "blockNumber": "0x610353e",
          "transactionHash": "0x3a8ab33e59067b8f4a9412583e69c1addcd81280a9bdecbd7fb6a58864886ad0",
          "transactionIndex": "0x2",
          "logIndex": "0x53",
          "removed": false
        },
        {
          "address": "0xBA4BeedC6d4f1c582a7EDB09A0709b7AC6508296",
          "topics": [
            "0x2f8788117e7eff1d82e926ec794901d17c78024a50270940304540a733656f0d",
            "0x0af0c3ebe77999ca20698e1ff25f812bf82409a59d21ca15a41f39e0ce9f2500",
            "0x000000000000000000000000b50a3877f40ba0a019d45cec9f3d9f01dd4eed0e",
            "0x000000000000000000000000a50fc8fc0b7845b07dcd00ef6bde46e5160e3835"
          ],
          "data": "0x",
          "blockHash": "0xb157d050d0967963d8f65cf7c9b1ea4bd24f274f875ad4c9c73b90cb25f045c4",
          "blockNumber": "0x610353e",
          "transactionHash": "0x3a8ab33e59067b8f4a9412583e69c1addcd81280a9bdecbd7fb6a58864886ad0",
          "transactionIndex": "0x2",
          "logIndex": "0x54",
          "removed": false
        },
        {
          "address": "0xBA4BeedC6d4f1c582a7EDB09A0709b7AC6508296",
          "topics": [
            "0x2f8788117e7eff1d82e926ec794901d17c78024a50270940304540a733656f0d",
            "0x0af0c3ebe77999ca20698e1ff25f812bf82409a59d21ca15a41f39e0ce9f2500",
            "0x000000000000000000000000bcef7d7a39ed4975b3261c8b226220187b785662",
            "0x000000000000000000000000a50fc8fc0b7845b07dcd00ef6bde46e5160e3835"
          ],
          "data": "0x",
          "blockHash": "0xb157d050d0967963d8f65cf7c9b1ea4bd24f274f875ad4c9c73b90cb25f045c4",
          "blockNumber": "0x610353e",
          "transactionHash": "0x3a8ab33e59067b8f4a9412583e69c1addcd81280a9bdecbd7fb6a58864886ad0",
          "transactionIndex": "0x2",
          "logIndex": "0x55",
          "removed": false
        },
        {
          "address": "0xBA4BeedC6d4f1c582a7EDB09A0709b7AC6508296",
          "topics": [
            "0x2f8788117e7eff1d82e926ec794901d17c78024a50270940304540a733656f0d",
            "0x0af0c3ebe77999ca20698e1ff25f812bf82409a59d21ca15a41f39e0ce9f2500",
            "0x000000000000000000000000b3b38f171f12c1543164ac8fc40503827d3b9edc",
            "0x000000000000000000000000a50fc8fc0b7845b07dcd00ef6bde46e5160e3835"
          ],
          "data": "0x",
          "blockHash": "0xb157d050d0967963d8f65cf7c9b1ea4bd24f274f875ad4c9c73b90cb25f045c4",
          "blockNumber": "0x610353e",
          "transactionHash": "0x3a8ab33e59067b8f4a9412583e69c1addcd81280a9bdecbd7fb6a58864886ad0",
          "transactionIndex": "0x2",
          "logIndex": "0x56",
          "removed": false
        },
        {
          "address": "0xBA4BeedC6d4f1c582a7EDB09A0709b7AC6508296",
          "topics": [
            "0x2f8788117e7eff1d82e926ec794901d17c78024a50270940304540a733656f0d",
            "0x0af0c3ebe77999ca20698e1ff25f812bf82409a59d21ca15a41f39e0ce9f2500",
            "0x0000000000000000000000003bf86d166cb46bbf145e94b124dc686493a265af",
            "0x000000000000000000000000a50fc8fc0b7845b07dcd00ef6bde46e5160e3835"
          ],
          "data": "0x",
          "blockHash": "0xb157d050d0967963d8f65cf7c9b1ea4bd24f274f875ad4c9c73b90cb25f045c4",
          "blockNumber": "0x610353e",
          "transactionHash": "0x3a8ab33e59067b8f4a9412583e69c1addcd81280a9bdecbd7fb6a58864886ad0",
          "transactionIndex": "0x2",
          "logIndex": "0x57",
          "removed": false
        },
        {
          "address": "0xBA4BeedC6d4f1c582a7EDB09A0709b7AC6508296",
          "topics": [
            "0x2f8788117e7eff1d82e926ec794901d17c78024a50270940304540a733656f0d",
            "0x0af0c3ebe77999ca20698e1ff25f812bf82409a59d21ca15a41f39e0ce9f2500",
            "0x00000000000000000000000056679f8669f6cdff2b341f9aaa4055356dadc8e7",
            "0x000000000000000000000000a50fc8fc0b7845b07dcd00ef6bde46e5160e3835"
          ],
          "data": "0x",
          "blockHash": "0xb157d050d0967963d8f65cf7c9b1ea4bd24f274f875ad4c9c73b90cb25f045c4",
          "blockNumber": "0x610353e",
          "transactionHash": "0x3a8ab33e59067b8f4a9412583e69c1addcd81280a9bdecbd7fb6a58864886ad0",
          "transactionIndex": "0x2",
          "logIndex": "0x58",
          "removed": false
        },
        {
          "address": "0xBA4BeedC6d4f1c582a7EDB09A0709b7AC6508296",
          "topics": [
            "0x2f8788117e7eff1d82e926ec794901d17c78024a50270940304540a733656f0d",
            "0x0af0c3ebe77999ca20698e1ff25f812bf82409a59d21ca15a41f39e0ce9f2500",
            "0x000000000000000000000000750685db51856e2c9b5e839ab27fb268b365115b",
            "0x000000000000000000000000a50fc8fc0b7845b07dcd00ef6bde46e5160e3835"
          ],
          "data": "0x",
          "blockHash": "0xb157d050d0967963d8f65cf7c9b1ea4bd24f274f875ad4c9c73b90cb25f045c4",
          "blockNumber": "0x610353e",
          "transactionHash": "0x3a8ab33e59067b8f4a9412583e69c1addcd81280a9bdecbd7fb6a58864886ad0",
          "transactionIndex": "0x2",
          "logIndex": "0x59",
          "removed": false
        },
        {
          "address": "0xBA4BeedC6d4f1c582a7EDB09A0709b7AC6508296",
          "topics": [
            "0x2f8788117e7eff1d82e926ec794901d17c78024a50270940304540a733656f0d",
            "0x0af0c3ebe77999ca20698e1ff25f812bf82409a59d21ca15a41f39e0ce9f2500",
            "0x0000000000000000000000003188810bf80c80551b9e15a3d49854190b381ae9",
            "0x000000000000000000000000a50fc8fc0b7845b07dcd00ef6bde46e5160e3835"
          ],
          "data": "0x",
          "blockHash": "0xb157d050d0967963d8f65cf7c9b1ea4bd24f274f875ad4c9c73b90cb25f045c4",
          "blockNumber": "0x610353e",
          "transactionHash": "0x3a8ab33e59067b8f4a9412583e69c1addcd81280a9bdecbd7fb6a58864886ad0",
          "transactionIndex": "0x2",
          "logIndex": "0x5a",
          "removed": false
        },
        {
          "address": "0xBA4BeedC6d4f1c582a7EDB09A0709b7AC6508296",
          "topics": [
            "0x2f8788117e7eff1d82e926ec794901d17c78024a50270940304540a733656f0d",
            "0x0af0c3ebe77999ca20698e1ff25f812bf82409a59d21ca15a41f39e0ce9f2500",
            "0x0000000000000000000000003f2b9232ce37d489f846d4464648f14036c6ca12",
            "0x000000000000000000000000a50fc8fc0b7845b07dcd00ef6bde46e5160e3835"
          ],
          "data": "0x",
          "blockHash": "0xb157d050d0967963d8f65cf7c9b1ea4bd24f274f875ad4c9c73b90cb25f045c4",
          "blockNumber": "0x610353e",
          "transactionHash": "0x3a8ab33e59067b8f4a9412583e69c1addcd81280a9bdecbd7fb6a58864886ad0",
          "transactionIndex": "0x2",
          "logIndex": "0x5b",
          "removed": false
        },
        {
          "address": "0xBA4BeedC6d4f1c582a7EDB09A0709b7AC6508296",
          "topics": [
            "0x2f8788117e7eff1d82e926ec794901d17c78024a50270940304540a733656f0d",
            "0x0af0c3ebe77999ca20698e1ff25f812bf82409a59d21ca15a41f39e0ce9f2500",
            "0x000000000000000000000000a52453c88c29550430f8a0378f1ade46413ab9d7",
            "0x000000000000000000000000a50fc8fc0b7845b07dcd00ef6bde46e5160e3835"
          ],
          "data": "0x",
          "blockHash": "0xb157d050d0967963d8f65cf7c9b1ea4bd24f274f875ad4c9c73b90cb25f045c4",
          "blockNumber": "0x610353e",
          "transactionHash": "0x3a8ab33e59067b8f4a9412583e69c1addcd81280a9bdecbd7fb6a58864886ad0",
          "transactionIndex": "0x2",
          "logIndex": "0x5c",
          "removed": false
        },
        {
          "address": "0xBA4BeedC6d4f1c582a7EDB09A0709b7AC6508296",
          "topics": [
            "0x2f8788117e7eff1d82e926ec794901d17c78024a50270940304540a733656f0d",
            "0x0af0c3ebe77999ca20698e1ff25f812bf82409a59d21ca15a41f39e0ce9f2500",
            "0x000000000000000000000000f8fea0ba658acaef401566c9cc6f84ffab6fcd70",
            "0x000000000000000000000000a50fc8fc0b7845b07dcd00ef6bde46e5160e3835"
          ],
          "data": "0x",
          "blockHash": "0xb157d050d0967963d8f65cf7c9b1ea4bd24f274f875ad4c9c73b90cb25f045c4",
          "blockNumber": "0x610353e",
          "transactionHash": "0x3a8ab33e59067b8f4a9412583e69c1addcd81280a9bdecbd7fb6a58864886ad0",
          "transactionIndex": "0x2",
          "logIndex": "0x5d",
          "removed": false
        },
        {
          "address": "0xBA4BeedC6d4f1c582a7EDB09A0709b7AC6508296",
          "topics": [
            "0x2f8788117e7eff1d82e926ec794901d17c78024a50270940304540a733656f0d",
            "0x0af0c3ebe77999ca20698e1ff25f812bf82409a59d21ca15a41f39e0ce9f2500",
            "0x000000000000000000000000b41429cf0bd01e587d09369a088e547150c2fe38",
            "0x000000000000000000000000a50fc8fc0b7845b07dcd00ef6bde46e5160e3835"
          ],
          "data": "0x",
          "blockHash": "0xb157d050d0967963d8f65cf7c9b1ea4bd24f274f875ad4c9c73b90cb25f045c4",
          "blockNumber": "0x610353e",
          "transactionHash": "0x3a8ab33e59067b8f4a9412583e69c1addcd81280a9bdecbd7fb6a58864886ad0",
          "transactionIndex": "0x2",
          "logIndex": "0x5e",
          "removed": false
        },
        {
          "address": "0xBA4BeedC6d4f1c582a7EDB09A0709b7AC6508296",
          "topics": [
            "0x2f8788117e7eff1d82e926ec794901d17c78024a50270940304540a733656f0d",
            "0x0af0c3ebe77999ca20698e1ff25f812bf82409a59d21ca15a41f39e0ce9f2500",
            "0x0000000000000000000000006af9bd5d67468d8b273b68b57c43956e8397c620",
            "0x000000000000000000000000a50fc8fc0b7845b07dcd00ef6bde46e5160e3835"
          ],
          "data": "0x",
          "blockHash": "0xb157d050d0967963d8f65cf7c9b1ea4bd24f274f875ad4c9c73b90cb25f045c4",
          "blockNumber": "0x610353e",
          "transactionHash": "0x3a8ab33e59067b8f4a9412583e69c1addcd81280a9bdecbd7fb6a58864886ad0",
          "transactionIndex": "0x2",
          "logIndex": "0x5f",
          "removed": false
        },
        {
          "address": "0xBA4BeedC6d4f1c582a7EDB09A0709b7AC6508296",
          "topics": [
            "0x2f8788117e7eff1d82e926ec794901d17c78024a50270940304540a733656f0d",
            "0x0af0c3ebe77999ca20698e1ff25f812bf82409a59d21ca15a41f39e0ce9f2500",
            "0x00000000000000000000000003b25d7c738c4ba0c319b86c208c2f718ea04d22",
            "0x000000000000000000000000a50fc8fc0b7845b07dcd00ef6bde46e5160e3835"
          ],
          "data": "0x",
          "blockHash": "0xb157d050d0967963d8f65cf7c9b1ea4bd24f274f875ad4c9c73b90cb25f045c4",
          "blockNumber": "0x610353e",
          "transactionHash": "0x3a8ab33e59067b8f4a9412583e69c1addcd81280a9bdecbd7fb6a58864886ad0",
          "transactionIndex": "0x2",
          "logIndex": "0x60",
          "removed": false
        },
        {
          "address": "0xBA4BeedC6d4f1c582a7EDB09A0709b7AC6508296",
          "topics": [
            "0x2f8788117e7eff1d82e926ec794901d17c78024a50270940304540a733656f0d",
            "0x0af0c3ebe77999ca20698e1ff25f812bf82409a59d21ca15a41f39e0ce9f2500",
            "0x00000000000000000000000099655ca16c742b46a4a05afaf0f7798c336fd279",
            "0x000000000000000000000000a50fc8fc0b7845b07dcd00ef6bde46e5160e3835"
          ],
          "data": "0x",
          "blockHash": "0xb157d050d0967963d8f65cf7c9b1ea4bd24f274f875ad4c9c73b90cb25f045c4",
          "blockNumber": "0x610353e",
          "transactionHash": "0x3a8ab33e59067b8f4a9412583e69c1addcd81280a9bdecbd7fb6a58864886ad0",
          "transactionIndex": "0x2",
          "logIndex": "0x61",
          "removed": false
        },
        {
          "address": "0xBA4BeedC6d4f1c582a7EDB09A0709b7AC6508296",
          "topics": [
            "0x2f8788117e7eff1d82e926ec794901d17c78024a50270940304540a733656f0d",
            "0x0af0c3ebe77999ca20698e1ff25f812bf82409a59d21ca15a41f39e0ce9f2500",
            "0x0000000000000000000000003172aee5e0b47bb23e87db93327f58e06e6a73b6",
            "0x000000000000000000000000a50fc8fc0b7845b07dcd00ef6bde46e5160e3835"
          ],
          "data": "0x",
          "blockHash": "0xb157d050d0967963d8f65cf7c9b1ea4bd24f274f875ad4c9c73b90cb25f045c4",
          "blockNumber": "0x610353e",
          "transactionHash": "0x3a8ab33e59067b8f4a9412583e69c1addcd81280a9bdecbd7fb6a58864886ad0",
          "transactionIndex": "0x2",
          "logIndex": "0x62",
          "removed": false
        },
        {
          "address": "0xBA4BeedC6d4f1c582a7EDB09A0709b7AC6508296",
          "topics": [
            "0x2f8788117e7eff1d82e926ec794901d17c78024a50270940304540a733656f0d",
            "0x0af0c3ebe77999ca20698e1ff25f812bf82409a59d21ca15a41f39e0ce9f2500",
            "0x0000000000000000000000006c7d2e50b4a588acb5e88c8f6b76a6218fce5af2",
            "0x000000000000000000000000a50fc8fc0b7845b07dcd00ef6bde46e5160e3835"
          ],
          "data": "0x",
          "blockHash": "0xb157d050d0967963d8f65cf7c9b1ea4bd24f274f875ad4c9c73b90cb25f045c4",
          "blockNumber": "0x610353e",
          "transactionHash": "0x3a8ab33e59067b8f4a9412583e69c1addcd81280a9bdecbd7fb6a58864886ad0",
          "transactionIndex": "0x2",
          "logIndex": "0x63",
          "removed": false
        },
        {
          "address": "0xBA4BeedC6d4f1c582a7EDB09A0709b7AC6508296",
          "topics": [
            "0x2f8788117e7eff1d82e926ec794901d17c78024a50270940304540a733656f0d",
            "0x0af0c3ebe77999ca20698e1ff25f812bf82409a59d21ca15a41f39e0ce9f2500",
            "0x000000000000000000000000fdfc13a4acef96e28d4f54bc17857dbd9824a819",
            "0x000000000000000000000000a50fc8fc0b7845b07dcd00ef6bde46e5160e3835"
          ],
          "data": "0x",
          "blockHash": "0xb157d050d0967963d8f65cf7c9b1ea4bd24f274f875ad4c9c73b90cb25f045c4",
          "blockNumber": "0x610353e",
          "transactionHash": "0x3a8ab33e59067b8f4a9412583e69c1addcd81280a9bdecbd7fb6a58864886ad0",
          "transactionIndex": "0x2",
          "logIndex": "0x64",
          "removed": false
        },
        {
          "address": "0xBA4BeedC6d4f1c582a7EDB09A0709b7AC6508296",
          "topics": [
            "0x2f8788117e7eff1d82e926ec794901d17c78024a50270940304540a733656f0d",
            "0x0af0c3ebe77999ca20698e1ff25f812bf82409a59d21ca15a41f39e0ce9f2500",
            "0x0000000000000000000000002dcf532dd77845710dc95596cf560ef8b7964104",
            "0x000000000000000000000000a50fc8fc0b7845b07dcd00ef6bde46e5160e3835"
          ],
          "data": "0x",
          "blockHash": "0xb157d050d0967963d8f65cf7c9b1ea4bd24f274f875ad4c9c73b90cb25f045c4",
          "blockNumber": "0x610353e",
          "transactionHash": "0x3a8ab33e59067b8f4a9412583e69c1addcd81280a9bdecbd7fb6a58864886ad0",
          "transactionIndex": "0x2",
          "logIndex": "0x65",
          "removed": false
        },
        {
          "address": "0xBA4BeedC6d4f1c582a7EDB09A0709b7AC6508296",
          "topics": [
            "0x2f8788117e7eff1d82e926ec794901d17c78024a50270940304540a733656f0d",
            "0x0af0c3ebe77999ca20698e1ff25f812bf82409a59d21ca15a41f39e0ce9f2500",
            "0x000000000000000000000000fab977091c09cb67a478c824c427b1351fb204b7",
            "0x000000000000000000000000a50fc8fc0b7845b07dcd00ef6bde46e5160e3835"
          ],
          "data": "0x",
          "blockHash": "0xb157d050d0967963d8f65cf7c9b1ea4bd24f274f875ad4c9c73b90cb25f045c4",
          "blockNumber": "0x610353e",
          "transactionHash": "0x3a8ab33e59067b8f4a9412583e69c1addcd81280a9bdecbd7fb6a58864886ad0",
          "transactionIndex": "0x2",
          "logIndex": "0x66",
          "removed": false
        },
        {
          "address": "0xBA4BeedC6d4f1c582a7EDB09A0709b7AC6508296",
          "topics": [
            "0x2f8788117e7eff1d82e926ec794901d17c78024a50270940304540a733656f0d",
            "0x0af0c3ebe77999ca20698e1ff25f812bf82409a59d21ca15a41f39e0ce9f2500",
            "0x0000000000000000000000000452c0a0743c37af4737e000b1e664f2017f8337",
            "0x000000000000000000000000a50fc8fc0b7845b07dcd00ef6bde46e5160e3835"
          ],
          "data": "0x",
          "blockHash": "0xb157d050d0967963d8f65cf7c9b1ea4bd24f274f875ad4c9c73b90cb25f045c4",
          "blockNumber": "0x610353e",
          "transactionHash": "0x3a8ab33e59067b8f4a9412583e69c1addcd81280a9bdecbd7fb6a58864886ad0",
          "transactionIndex": "0x2",
          "logIndex": "0x67",
          "removed": false
        },
        {
          "address": "0xBA4BeedC6d4f1c582a7EDB09A0709b7AC6508296",
          "topics": [
            "0x2f8788117e7eff1d82e926ec794901d17c78024a50270940304540a733656f0d",
            "0x0af0c3ebe77999ca20698e1ff25f812bf82409a59d21ca15a41f39e0ce9f2500",
            "0x000000000000000000000000c5cc3cb22a976c1715d8cc83b6a8e1dbb995a6f5",
            "0x000000000000000000000000a50fc8fc0b7845b07dcd00ef6bde46e5160e3835"
          ],
          "data": "0x",
          "blockHash": "0xb157d050d0967963d8f65cf7c9b1ea4bd24f274f875ad4c9c73b90cb25f045c4",
          "blockNumber": "0x610353e",
          "transactionHash": "0x3a8ab33e59067b8f4a9412583e69c1addcd81280a9bdecbd7fb6a58864886ad0",
          "transactionIndex": "0x2",
          "logIndex": "0x68",
          "removed": false
        },
        {
          "address": "0xBA4BeedC6d4f1c582a7EDB09A0709b7AC6508296",
          "topics": [
            "0x2f8788117e7eff1d82e926ec794901d17c78024a50270940304540a733656f0d",
            "0x0af0c3ebe77999ca20698e1ff25f812bf82409a59d21ca15a41f39e0ce9f2500",
            "0x00000000000000000000000010b38e6a0e47cfc69cfb153885b8565ae2333b74",
            "0x000000000000000000000000a50fc8fc0b7845b07dcd00ef6bde46e5160e3835"
          ],
          "data": "0x",
          "blockHash": "0xb157d050d0967963d8f65cf7c9b1ea4bd24f274f875ad4c9c73b90cb25f045c4",
          "blockNumber": "0x610353e",
          "transactionHash": "0x3a8ab33e59067b8f4a9412583e69c1addcd81280a9bdecbd7fb6a58864886ad0",
          "transactionIndex": "0x2",
          "logIndex": "0x69",
          "removed": false
        },
        {
          "address": "0xBA4BeedC6d4f1c582a7EDB09A0709b7AC6508296",
          "topics": [
            "0x2f8788117e7eff1d82e926ec794901d17c78024a50270940304540a733656f0d",
            "0x0af0c3ebe77999ca20698e1ff25f812bf82409a59d21ca15a41f39e0ce9f2500",
            "0x00000000000000000000000048218a6452f65e0b8529d20cb5149b695d48e0c5",
            "0x000000000000000000000000a50fc8fc0b7845b07dcd00ef6bde46e5160e3835"
          ],
          "data": "0x",
          "blockHash": "0xb157d050d0967963d8f65cf7c9b1ea4bd24f274f875ad4c9c73b90cb25f045c4",
          "blockNumber": "0x610353e",
          "transactionHash": "0x3a8ab33e59067b8f4a9412583e69c1addcd81280a9bdecbd7fb6a58864886ad0",
          "transactionIndex": "0x2",
          "logIndex": "0x6a",
          "removed": false
        },
        {
          "address": "0xBA4BeedC6d4f1c582a7EDB09A0709b7AC6508296",
          "topics": [
            "0x2f8788117e7eff1d82e926ec794901d17c78024a50270940304540a733656f0d",
            "0x0af0c3ebe77999ca20698e1ff25f812bf82409a59d21ca15a41f39e0ce9f2500",
            "0x0000000000000000000000002fa7ab2e6a5c5fd9af6f9c4a025f04529ce301cd",
            "0x000000000000000000000000a50fc8fc0b7845b07dcd00ef6bde46e5160e3835"
          ],
          "data": "0x",
          "blockHash": "0xb157d050d0967963d8f65cf7c9b1ea4bd24f274f875ad4c9c73b90cb25f045c4",
          "blockNumber": "0x610353e",
          "transactionHash": "0x3a8ab33e59067b8f4a9412583e69c1addcd81280a9bdecbd7fb6a58864886ad0",
          "transactionIndex": "0x2",
          "logIndex": "0x6b",
          "removed": false
        }
      ],
      "status": "0x1",
      "logsBloom": "0x504008848008000046222a0020400a08941088600500000842021000050500006040080a0212100001048200100000211421801a000005d0840048022810118000128424400200101a4180800200220030828000400810402001100180044009a8a22440b000192003000000780000020004202200000404002082401181004400400258200200800c2402a000100100189000420038020088006104808202000002004320008110044082200050089010b93040428080102032920100800001081100180050080822808040000008021026460001100005041500020041201920040a5d00d14084280144048021800440300100006481408001100020000500",
      "type": "0x2",
      "effectiveGasPrice": "0x5f5e100"
    },
    {
      "transactionHash": "0x8f6c5c0d6c910d01fcf0a6dd79be3a5e1d1e8ef09539ce6c08de4d4953f34fd9",
      "transactionIndex": "0x4",
      "blockHash": "0xe5679564c08604e0a8734cbb94ee1fb42e867ca6fbcc4f45d5de75f76f5eb7b4",
      "blockNumber": "0x6103559",
      "from": "0xa50FC8Fc0b7845b07DCD00ef6bdE46E5160E3835",
      "to": "0x4B65Cef586d4de8bc7BF48Cf7C8E1e164Bb89bab",
      "cumulativeGasUsed": "0x141404",
      "gasUsed": "0x525e5",
      "contractAddress": null,
      "logs": [
        {
          "address": "0x4B65Cef586d4de8bc7BF48Cf7C8E1e164Bb89bab",
          "topics": [
            "0x6560dd86d70bf03c0005b3533cc115fa8b8a12b4ee11c7342ae7b32d82267c90",
            "0x0000000000000000000000000000000000000000000000000000000000000004",
            "0x00000000000000000000000094b23c2233bc7c9fe75b22950335d7f792b00e8e"
          ],
          "data": "0x",
          "blockHash": "0xe5679564c08604e0a8734cbb94ee1fb42e867ca6fbcc4f45d5de75f76f5eb7b4",
          "blockNumber": "0x6103559",
          "transactionHash": "0x8f6c5c0d6c910d01fcf0a6dd79be3a5e1d1e8ef09539ce6c08de4d4953f34fd9",
          "transactionIndex": "0x4",
          "logIndex": "0x2",
          "removed": false
        }
      ],
      "status": "0x1",
      "logsBloom": "0x80000000000000000000000000000000000000000000000000000000000000000000000000000000000000000000000000000000000000000000000000000000000000000000000000000000000000000000000000000000000000000000020008000000000000000000000000000000000000000040000000000000000000000000000000000000000000000000000000000000000000000000004000000000000000000000000000000000000000000000000000000000002000000000000000000000000000000008000000000020000000008000000000000000008000000000000000000000000000000000000000000000000000004000000000000080",
      "type": "0x2",
      "effectiveGasPrice": "0x5f5e100"
    }
  ],
  "libraries": [],
  "pending": [],
  "returns": {},
  "timestamp": 1686912170,
  "chain": 42161,
  "multi": false,
  "commit": "e0fda6e"
}